{
  "contractName": "CrowdsaleController",
  "abi": [
    {
      "constant": true,
      "inputs": [],
      "name": "crowdsaleProcessor",
      "outputs": [
        {
          "name": "",
          "type": "address"
        }
      ],
      "payable": false,
      "stateMutability": "view",
      "type": "function"
    },
    {
      "constant": true,
      "inputs": [],
      "name": "started",
      "outputs": [
        {
          "name": "",
          "type": "bool"
        }
      ],
      "payable": false,
      "stateMutability": "view",
      "type": "function"
    },
    {
      "constant": true,
      "inputs": [],
      "name": "manager",
      "outputs": [
        {
          "name": "",
          "type": "address"
        }
      ],
      "payable": false,
      "stateMutability": "view",
      "type": "function"
    },
    {
      "constant": true,
      "inputs": [],
      "name": "crowdsaleStartDeadline",
      "outputs": [
        {
          "name": "",
          "type": "uint256"
        }
      ],
      "payable": false,
      "stateMutability": "view",
      "type": "function"
    },
    {
      "constant": true,
      "inputs": [],
      "name": "is3rdParty",
      "outputs": [
        {
          "name": "",
          "type": "bool"
        }
      ],
      "payable": false,
      "stateMutability": "view",
      "type": "function"
    },
    {
      "constant": true,
      "inputs": [],
      "name": "stopped",
      "outputs": [
        {
          "name": "",
          "type": "bool"
        }
      ],
      "payable": false,
      "stateMutability": "view",
      "type": "function"
    },
    {
      "constant": true,
      "inputs": [],
      "name": "ethRewardPart",
      "outputs": [
        {
          "name": "",
          "type": "uint256"
        }
      ],
      "payable": false,
      "stateMutability": "view",
      "type": "function"
    },
    {
      "constant": true,
      "inputs": [],
      "name": "semanticVersion",
      "outputs": [
        {
          "name": "",
          "type": "string"
        }
      ],
      "payable": false,
      "stateMutability": "view",
      "type": "function"
    },
    {
      "constant": true,
      "inputs": [],
      "name": "owner",
      "outputs": [
        {
          "name": "",
          "type": "address"
        }
      ],
      "payable": false,
      "stateMutability": "view",
      "type": "function"
    },
    {
      "constant": true,
      "inputs": [],
      "name": "forecasting",
      "outputs": [
        {
          "name": "",
          "type": "address"
        }
      ],
      "payable": false,
      "stateMutability": "view",
      "type": "function"
    },
    {
      "constant": true,
      "inputs": [],
      "name": "tokenRewardPart",
      "outputs": [
        {
          "name": "",
          "type": "uint256"
        }
      ],
      "payable": false,
      "stateMutability": "view",
      "type": "function"
    },
    {
      "constant": false,
      "inputs": [
        {
          "name": "_newManager",
          "type": "address"
        }
      ],
      "name": "transferManager",
      "outputs": [],
      "payable": false,
      "stateMutability": "nonpayable",
      "type": "function"
    },
    {
      "constant": true,
      "inputs": [],
      "name": "forecastingClosed",
      "outputs": [
        {
          "name": "",
          "type": "bool"
        }
      ],
      "payable": false,
      "stateMutability": "view",
      "type": "function"
    },
    {
      "constant": false,
      "inputs": [
        {
          "name": "newOwner",
          "type": "address"
        }
      ],
      "name": "transferOwnership",
      "outputs": [],
      "payable": false,
      "stateMutability": "nonpayable",
      "type": "function"
    },
    {
      "inputs": [
        {
          "name": "_startDeadline",
          "type": "uint256"
        },
        {
          "name": "_owner",
          "type": "address"
        },
        {
          "name": "_manager",
          "type": "address"
        },
        {
          "name": "_ethRewardPart",
          "type": "uint256"
        },
        {
          "name": "_tokenRewardPart",
          "type": "uint256"
        },
        {
          "name": "_crowdsaleProcessor",
          "type": "address"
        },
        {
          "name": "_forecastingContract",
          "type": "address"
        },
        {
          "name": "_is3rdParty",
          "type": "bool"
        }
      ],
      "payable": false,
      "stateMutability": "nonpayable",
      "type": "constructor"
    },
    {
      "anonymous": false,
      "inputs": [
        {
          "indexed": false,
          "name": "crowdsale",
          "type": "address"
        },
        {
          "indexed": false,
          "name": "token",
          "type": "address"
        },
        {
          "indexed": false,
          "name": "forecasting",
          "type": "address"
        },
        {
          "indexed": false,
          "name": "ethRewardPart",
          "type": "uint256"
        },
        {
          "indexed": false,
          "name": "tokenRewardPart",
          "type": "uint256"
        },
        {
          "indexed": false,
          "name": "is3rdParty",
          "type": "bool"
        }
      ],
      "name": "CROWDSALE_PROCESSOR",
      "type": "event"
    },
    {
      "anonymous": false,
      "inputs": [
        {
          "indexed": false,
          "name": "startTimestamp",
          "type": "uint256"
        },
        {
          "indexed": false,
          "name": "endTimestamp",
          "type": "uint256"
        },
        {
          "indexed": false,
          "name": "fundingAddress",
          "type": "address"
        }
      ],
      "name": "CROWDSALE_PROCESSOR_START",
      "type": "event"
    },
    {
      "anonymous": false,
      "inputs": [],
      "name": "CROWDSALE_PROCESSOR_STOP",
      "type": "event"
    },
    {
      "anonymous": false,
      "inputs": [],
      "name": "CROWDSALE_PROCESSOR_CLOSED_FORECASTING",
      "type": "event"
    },
    {
      "anonymous": false,
      "inputs": [
        {
          "indexed": true,
          "name": "previousOwner",
          "type": "address"
        },
        {
          "indexed": true,
          "name": "newOwner",
          "type": "address"
        }
      ],
      "name": "OwnershipTransferred",
      "type": "event"
    },
    {
      "constant": false,
      "inputs": [],
      "name": "closeIfNotStarted",
      "outputs": [],
      "payable": false,
      "stateMutability": "nonpayable",
      "type": "function"
    },
    {
      "constant": false,
      "inputs": [
        {
          "name": "_startTimestamp",
          "type": "uint256"
        },
        {
          "name": "_endTimestamp",
          "type": "uint256"
        },
        {
          "name": "_fundingAddress",
          "type": "address"
        }
      ],
      "name": "start",
      "outputs": [],
      "payable": false,
      "stateMutability": "nonpayable",
      "type": "function"
    },
    {
      "constant": false,
      "inputs": [],
      "name": "start",
      "outputs": [],
      "payable": false,
      "stateMutability": "nonpayable",
      "type": "function"
    },
    {
      "constant": false,
      "inputs": [],
      "name": "closeForecasting",
      "outputs": [],
      "payable": false,
      "stateMutability": "nonpayable",
      "type": "function"
    },
    {
      "constant": false,
      "inputs": [],
      "name": "stop",
      "outputs": [],
      "payable": false,
      "stateMutability": "nonpayable",
      "type": "function"
    }
  ],
  "bytecode": "0x60806040523480156200001157600080fd5b5060405161010080620017aa8339810160408181528251602080850151838601516060870151608088015160a089015160c08a015160e0909a0151888a019098526005808a527f312e302e30000000000000000000000000000000000000000000000000000000968a0196875260008054600160a060020a03191633178155979a959994989397929691959491620000ad916002919062000315565b5050600085118015620000c25750620f424086105b8015620000d15750620f424085105b1515620000dd57600080fd5b600789905560008054600160a060020a0319908116600160a060020a038b81169190911783556001805483168b83161790556003805460058b905560068a905560ff1916861515176201000060b060020a031916620100008984168102919091179182905560048054909416888416178455604080517f21df0da7000000000000000000000000000000000000000000000000000000008152905191909204909216936321df0da7938281019360209390929083900390910190829087803b158015620001a957600080fd5b505af1158015620001be573d6000803e3d6000fd5b505050506040513d6020811015620001d557600080fd5b50519050600160a060020a0381161515620001ef57600080fd5b8115156200029b5783600160a060020a031681600160a060020a0316638da5cb5b6040518163ffffffff167c0100000000000000000000000000000000000000000000000000000000028152600401602060405180830381600087803b1580156200025957600080fd5b505af11580156200026e573d6000803e3d6000fd5b505050506040513d60208110156200028557600080fd5b5051600160a060020a0316146200029b57600080fd5b60045460035460408051600160a060020a038089168252808616602083015290931683820152606083018990526080830188905260ff909116151560a0830152517f2fbd244eab58c07f13c25924188ec652574ea1f625ad4377b9e3ba2ce3a00cc39181900360c00190a1505050505050505050620003ba565b828054600181600116156101000203166002900490600052602060002090601f016020900481019282601f106200035857805160ff191683800117855562000388565b8280016001018555821562000388579182015b82811115620003885782518255916020019190600101906200036b565b50620003969291506200039a565b5090565b620003b791905b80821115620003965760008155600101620003a1565b90565b6113e080620003ca6000396000f3006080604052600436106100ed5763ffffffff60e060020a60003504166307da68f581146100f25780630e8c7f93146101095780631918a54b1461011e5780631f2698ab1461014f578063481c6a751461017857806351c7c16a1461018d57806375e20a80146101b457806375f12b21146101c957806380fa81b1146101de57806388b9022f146101f35780638da5cb5b1461027d578063997d11c414610292578063a51fe113146102a7578063a823cfaf146102ce578063ba0e930a146102e3578063be9a655514610304578063c4c5f3de14610319578063c72ed1101461032e578063f2fde38b14610343575b600080fd5b3480156100fe57600080fd5b50610107610364565b005b34801561011557600080fd5b506101076105ad565b34801561012a57600080fd5b506101336105ef565b60408051600160a060020a039092168252519081900360200190f35b34801561015b57600080fd5b50610164610604565b604080519115158252519081900360200190f35b34801561018457600080fd5b50610133610614565b34801561019957600080fd5b506101a2610623565b60408051918252519081900360200190f35b3480156101c057600080fd5b50610164610629565b3480156101d557600080fd5b50610164610632565b3480156101ea57600080fd5b506101a2610642565b3480156101ff57600080fd5b50610208610648565b6040805160208082528351818301528351919283929083019185019080838360005b8381101561024257818101518382015260200161022a565b50505050905090810190601f16801561026f5780820380516001836020036101000a031916815260200191505b509250505060405180910390f35b34801561028957600080fd5b506101336106d3565b34801561029e57600080fd5b506101336106e2565b3480156102b357600080fd5b50610107600435602435600160a060020a03604435166106f1565b3480156102da57600080fd5b506101a2610948565b3480156102ef57600080fd5b50610107600160a060020a036004351661094e565b34801561031057600080fd5b5061010761099c565b34801561032557600080fd5b506101646109e2565b34801561033a57600080fd5b506101076109f0565b34801561034f57600080fd5b50610107600160a060020a0360043516611268565b600154600160a060020a0316331461037b57600080fd5b60005460a860020a900460ff161561039257600080fd5b600360029054906101000a9004600160a060020a0316600160a060020a031663f41633406040518163ffffffff1660e060020a028152600401602060405180830381600087803b1580156103e557600080fd5b505af11580156103f9573d6000803e3d6000fd5b505050506040513d602081101561040f57600080fd5b50511561041b57600080fd5b600360029054906101000a9004600160a060020a0316600160a060020a031663ec4cd0cf6040518163ffffffff1660e060020a028152600401602060405180830381600087803b15801561046e57600080fd5b505af1158015610482573d6000803e3d6000fd5b505050506040513d602081101561049857600080fd5b5051156104a457600080fd5b600480546040805160e060020a6307da68f50281529051600160a060020a03909216926307da68f592828201926000929082900301818387803b1580156104ea57600080fd5b505af11580156104fe573d6000803e3d6000fd5b50505050600360029054906101000a9004600160a060020a0316600160a060020a03166307da68f56040518163ffffffff1660e060020a028152600401600060405180830381600087803b15801561055557600080fd5b505af1158015610569573d6000803e3d6000fd5b50506000805460a860020a60ff02191660a860020a1781556040517fa80ff82152ea8cf6ad95e6a4f50b632d07e72547c1fd99768f6e37bb36cbf6fc9350909150a1565b60005460a860020a900460ff16156105c457600080fd5b60005460a060020a900460ff16156105db57600080fd5b6007544211156105ed576105ed6112ef565b565b600354620100009004600160a060020a031681565b60005460a060020a900460ff1681565b600154600160a060020a031681565b60075481565b60035460ff1681565b60005460a860020a900460ff1681565b60055481565b6002805460408051602060018416156101000260001901909316849004601f810184900484028201840190925281815292918301828280156106cb5780601f106106a0576101008083540402835291602001916106cb565b820191906000526020600020905b8154815290600101906020018083116106ae57829003601f168201915b505050505081565b600054600160a060020a031681565b600454600160a060020a031681565b600054600160a060020a0316331461070857600080fd5b60005460a860020a900460ff161561071f57600080fd5b60005460a060020a900460ff161561073657600080fd5b6003546040805160e060020a63481c6a7502815290513092620100009004600160a060020a03169163481c6a759160048083019260209291908290030181600087803b15801561078557600080fd5b505af1158015610799573d6000803e3d6000fd5b505050506040513d60208110156107af57600080fd5b5051600160a060020a0316146107c457600080fd5b6002600480546040805160e360020a6318081cd70281529051600160a060020a039092169263c040e6b89282820192602092908290030181600087803b15801561080d57600080fd5b505af1158015610821573d6000803e3d6000fd5b505050506040513d602081101561083757600080fd5b5051600981111561084457fe5b1461084e57600080fd5b600754421115610865576108606112ef565b610943565b60075483111561087457600080fd5b6003546040805160e060020a63a51fe1130281526004810186905260248101859052600160a060020a0384811660448301529151620100009093049091169163a51fe1139160648082019260009290919082900301818387803b1580156108da57600080fd5b505af11580156108ee573d6000803e3d6000fd5b505050506108fa61099c565b6040805184815260208101849052600160a060020a0383168183015290517f2733ef997aba18950854f234b437abf7cda2afdc842371abc36ba897e40dad2e9181900360600190a15b505050565b60065481565b600154600160a060020a0316331461096557600080fd5b600160a060020a038116151561097a57600080fd5b60018054600160a060020a031916600160a060020a0392909216919091179055565b600054600160a060020a031633146109b357600080fd5b60005460a060020a900460ff16156109ca57600080fd5b6000805460a060020a60ff02191660a060020a179055565b600354610100900460ff1681565b600354600090819081908190610100900460ff1615610a0e57600080fd5b600360029054906101000a9004600160a060020a0316600160a060020a031663f41633406040518163ffffffff1660e060020a028152600401602060405180830381600087803b158015610a6157600080fd5b505af1158015610a75573d6000803e3d6000fd5b505050506040513d6020811015610a8b57600080fd5b505115610c0357600480546003546040805160e160020a63714f5c1b0281529051600160a060020a0393841694633f7f96d194620100009094049093169263e29eb836928082019260209290918290030181600087803b158015610aee57600080fd5b505af1158015610b02573d6000803e3d6000fd5b505050506040513d6020811015610b1857600080fd5b50516040805160e060020a63ffffffff8516028152600481019290925260006024830181905260448301819052905160648084019382900301818387803b158015610b6257600080fd5b505af1158015610b76573d6000803e3d6000fd5b5050600480546040805160e160020a63387666830281529051600160a060020a0390921694506370eccd069350808301926000929182900301818387803b158015610bc057600080fd5b505af1158015610bd4573d6000803e3d6000fd5b50506003805461ff001916610100179055505060405160008051602061139583398151915290600090a1611262565b600360029054906101000a9004600160a060020a0316600160a060020a031663ec4cd0cf6040518163ffffffff1660e060020a028152600401602060405180830381600087803b158015610c5657600080fd5b505af1158015610c6a573d6000803e3d6000fd5b505050506040513d6020811015610c8057600080fd5b50511515610c8d57600080fd5b620f4240610d22600654600360029054906101000a9004600160a060020a0316600160a060020a0316639106d7ba6040518163ffffffff1660e060020a028152600401602060405180830381600087803b158015610cea57600080fd5b505af1158015610cfe573d6000803e3d6000fd5b505050506040513d6020811015610d1457600080fd5b50519063ffffffff61135e16565b811515610d2b57fe5b049350600554600014159150600360029054906101000a9004600160a060020a0316600160a060020a031663e29eb8366040518163ffffffff1660e060020a028152600401602060405180830381600087803b158015610d8a57600080fd5b505af1158015610d9e573d6000803e3d6000fd5b505050506040513d6020811015610db457600080fd5b505160035490915060ff1615610e4257600480546040805160e160020a6319a8571b02815292830184905251600160a060020a0390911691633350ae369160248083019260209291908290030181600087803b158015610e1357600080fd5b505af1158015610e27573d6000803e3d6000fd5b505050506040513d6020811015610e3d57600080fd5b505190505b8115610e6e57620f4240610e616005548361135e90919063ffffffff16565b811515610e6a57fe5b0492505b600454600160a060020a0316633f7f96d18284610e8b5786610e8d565b855b60016040518463ffffffff1660e060020a02815260040180848152602001838152602001821515151581526020019350505050600060405180830381600087803b158015610eda57600080fd5b505af1158015610eee573d6000803e3d6000fd5b5060039250610efb915050565b600480546040805160e360020a6318081cd70281529051600160a060020a039092169263c040e6b89282820192602092908290030181600087803b158015610f4257600080fd5b505af1158015610f56573d6000803e3d6000fd5b505050506040513d6020811015610f6c57600080fd5b50516009811115610f7957fe5b141561117157811561100057600354600480546040805160e060020a6318c9ef97028152600160a060020a039283169381019390935260248301879052516201000090930416916318c9ef979160448082019260009290919082900301818387803b158015610fe757600080fd5b505af1158015610ffb573d6000803e3d6000fd5b505050505b600354600480546040805160e060020a63b23c1f19028152600160a060020a0392831693810193909352602483018890525162010000909304169163b23c1f199160448082019260009290919082900301818387803b15801561106257600080fd5b505af1158015611076573d6000803e3d6000fd5b5050600480546003546040805160e060020a6321df0da70281529051600160a060020a03938416965063f35fd94d955062010000909204909216926321df0da7928082019260209290918290030181600087803b1580156110d657600080fd5b505af11580156110ea573d6000803e3d6000fd5b505050506040513d602081101561110057600080fd5b50516040805160e060020a63ffffffff8516028152600160a060020a039092166004830152602482018790526044820188905251606480830192600092919082900301818387803b15801561115457600080fd5b505af1158015611168573d6000803e3d6000fd5b505050506111d0565b600480546040805160e160020a63387666830281529051600160a060020a03909216926370eccd0692828201926000929082900301818387803b1580156111b757600080fd5b505af11580156111cb573d6000803e3d6000fd5b505050505b600360029054906101000a9004600160a060020a0316600160a060020a031663a96f86686040518163ffffffff1660e060020a028152600401600060405180830381600087803b15801561122357600080fd5b505af1158015611237573d6000803e3d6000fd5b50506003805461ff001916610100179055505060405160008051602061139583398151915290600090a15b50505050565b600054600160a060020a0316331461127f57600080fd5b600160a060020a038116151561129457600080fd5b60008054604051600160a060020a03808516939216917f8be0079c531659141344cd1fd0a4f28419497f9722a3daafe3b4186f6b6457e091a360008054600160a060020a031916600160a060020a0392909216919091179055565b600480546040805160e060020a6307da68f50281529051600160a060020a03909216926307da68f592828201926000929082900301818387803b15801561133557600080fd5b505af1158015611349573d6000803e3d6000fd5b50506003805461ff0019166101001790555050565b600080831515611371576000915061138d565b5082820282848281151561138157fe5b041461138957fe5b8091505b509291505056006277f0d353db24d2814b0b4982c7ab25bbc2fb02e0487173834390ee3a5e104da165627a7a723058209a5d4b950cfcd343fb0d2beff3ac54e75b21e2539aa803cdb498154150ddcd6e0029",
  "source": "pragma solidity ^0.4.18;\nimport \"zeppelin-solidity/contracts/ownership/Ownable.sol\";\nimport \"zeppelin-solidity/contracts/math/SafeMath.sol\";\nimport \"./Starting.sol\";\nimport \"./Stoppable.sol\";\nimport \"./helpers/HasManager.sol\";\nimport \"./helpers/Version.sol\";\nimport \"./interfaces/ICrowdsaleProcessor.sol\";\nimport \"./interfaces/IForecasting.sol\";\n\ncontract CrowdsaleController is Ownable, Starting, Stoppable, HasManager, Version {\n    using SafeMath for uint256;\n\n    event CROWDSALE_PROCESSOR(address crowdsale, address token, address forecasting, uint256 ethRewardPart, uint256 tokenRewardPart, bool is3rdParty);\n    event CROWDSALE_PROCESSOR_START(uint256 startTimestamp, uint256 endTimestamp, address fundingAddress);\n    event CROWDSALE_PROCESSOR_STOP();\n    event CROWDSALE_PROCESSOR_CLOSED_FORECASTING();\n\n    /*\n        Is 3rd party contract\n    */\n    bool public is3rdParty;\n\n    /*\n        Detect if forecasting closed\n    */\n    bool public forecastingClosed;\n\n    /*\n        Crowdsale processor and forecasting\n    */\n    ICrowdsaleProcessor public crowdsaleProcessor;\n    IForecasting public forecasting;\n\n    // Ether (optional) and token reward parts\n    // in millionths of collected value and tokens sold respectively\n    uint256 public ethRewardPart;\n    uint256 public tokenRewardPart;\n\n    /*\n        Deadline timestamp to start crowdsale (end of forecasting period + 7 days)\n    */\n    uint256 public crowdsaleStartDeadline;\n\n    /*\n        Need to check time\n    */\n    function CrowdsaleController(\n        uint256 _startDeadline,\n        address _owner,\n        address _manager,\n        uint256 _ethRewardPart,\n        uint256 _tokenRewardPart,\n        address _crowdsaleProcessor,\n        address _forecastingContract,\n        bool _is3rdParty\n    )\n        public\n        Version(\"1.0.0\")\n    {\n        require(_tokenRewardPart > 0 && _ethRewardPart < 1000000 && _tokenRewardPart < 1000000);\n\n        crowdsaleStartDeadline = _startDeadline;\n        owner = _owner;\n        manager = _manager;\n        is3rdParty = _is3rdParty;\n\n        ethRewardPart = _ethRewardPart;\n        tokenRewardPart = _tokenRewardPart;\n\n        crowdsaleProcessor = ICrowdsaleProcessor(_crowdsaleProcessor);\n\n        forecasting = IForecasting(_forecastingContract);\n\n        address token = crowdsaleProcessor.getToken();\n        require(token != address(0));\n\n        if (!_is3rdParty) {\n            require(Ownable(token).owner() == _crowdsaleProcessor);\n        }\n\n        CROWDSALE_PROCESSOR(_crowdsaleProcessor, token, forecasting, _ethRewardPart, _tokenRewardPart, is3rdParty);\n    }\n\n    // you can start while forecasting closed\n    // if no start - forecasting failed\n    function closeIfNotStarted()\n        public\n        hasntStopped()\n        hasntStarted()\n    {\n        if (block.timestamp > crowdsaleStartDeadline) {\n            closeIfNotStartedImpl();\n        }\n    }\n\n    // Max 7 days to start if it's not 3rd party contract (review time)\n    function start(\n        uint256 _startTimestamp,\n        uint256 _endTimestamp,\n        address _fundingAddress\n    )\n        public\n        onlyOwner()\n        hasntStopped()\n        hasntStarted()\n    {\n        require(crowdsaleProcessor.manager() == address(this));\n        require(forecasting.stage() == IForecasting.Stage.ReadyToMakeStats);\n\n        if (block.timestamp > crowdsaleStartDeadline) {\n            closeIfNotStartedImpl();\n            return;\n        }\n\n        require(_startTimestamp <= crowdsaleStartDeadline);\n\n        crowdsaleProcessor.start(_startTimestamp, _endTimestamp, _fundingAddress);\n        super.start();\n\n        CROWDSALE_PROCESSOR_START(_startTimestamp, _endTimestamp, _fundingAddress);\n    }\n\n    // Close forecasting\n    function closeForecasting()\n        public\n    {\n        require(!forecastingClosed);\n\n        if (crowdsaleProcessor.isFailed()) {\n            // failed stats\n            forecasting.makeStats(crowdsaleProcessor.totalCollected(), 0, false);\n\n            // transfer Wings deposit back to author\n            forecasting.takeReward();\n\n            forecastingClosed = true;\n            CROWDSALE_PROCESSOR_CLOSED_FORECASTING();\n            return;\n        }\n\n        require(crowdsaleProcessor.isSuccessful());\n\n        uint256 tokenReward = crowdsaleProcessor.totalSold().mul(tokenRewardPart) / 1000000;\n        uint256 ethReward;\n        bool hasEthReward = (ethRewardPart != 0);\n\n        uint256 totalCollected = crowdsaleProcessor.totalCollected();\n        if (is3rdParty) {\n            totalCollected = forecasting.fitCollectedValueIntoRange(totalCollected);\n        }\n\n        if (hasEthReward) {\n            ethReward = totalCollected.mul(ethRewardPart) / 1000000;\n        }\n\n        forecasting.makeStats(totalCollected, hasEthReward ? ethReward : tokenReward, true);\n\n        if (forecasting.stage() == IForecasting.Stage.RewardsDistributed) {\n            if (hasEthReward) {\n                crowdsaleProcessor.mintETHRewards(address(forecasting), ethReward);\n            }\n\n            // mint rewards for crowdsale\n            crowdsaleProcessor.mintTokenRewards(forecasting, tokenReward);\n\n            forecasting.prepareToGiveRewards(address(crowdsaleProcessor.getToken()), ethReward, tokenReward);\n        } else {\n            // transfer Wings deposit back to author\n            forecasting.takeReward();\n        }\n\n        crowdsaleProcessor.releaseTokens();\n\n        forecastingClosed = true;\n        CROWDSALE_PROCESSOR_CLOSED_FORECASTING();\n    }\n\n    // Stop crowdsale\n    // Only manager\n    // HasntStopped yet\n    // If crowdsale started and not completed yet\n    function stop()\n        public\n        onlyManager()\n        hasntStopped()\n    {\n        require(!crowdsaleProcessor.isFailed());\n        require(!crowdsaleProcessor.isSuccessful());\n\n        forecasting.stop();\n        crowdsaleProcessor.stop();\n\n        stopped = true;\n        CROWDSALE_PROCESSOR_STOP();\n    }\n\n    // crowdsale failed: called if authors didn't start crowdsale during review period\n    function closeIfNotStartedImpl() internal {\n        forecasting.stop();\n        forecastingClosed = true;\n    }\n}\n",
  "sourcePath": "/Users/solidity/Desktop/github/private-contracts/contracts/CrowdsaleController.sol",
  "compiler": {
    "name": "solc",
    "version": "0.4.24+commit.e67f0147.Emscripten.clang"
  },
  "schemaVersion": "2.0.0",
  "updatedAt": "2018-06-13T08:55:56.611Z"
}