{
  "contractName": "DAO",
  "abi": [
    {
      "constant": true,
      "inputs": [],
      "name": "name",
      "outputs": [
        {
          "name": "",
          "type": "string"
        }
      ],
      "payable": false,
      "stateMutability": "view",
      "type": "function"
    },
    {
      "constant": true,
      "inputs": [],
      "name": "rewardsModelFactory",
      "outputs": [
        {
          "name": "",
          "type": "address"
        }
      ],
      "payable": false,
      "stateMutability": "view",
      "type": "function"
    },
    {
      "constant": true,
      "inputs": [],
      "name": "wingsReserveAmount",
      "outputs": [
        {
          "name": "",
          "type": "uint256"
        }
      ],
      "payable": false,
      "stateMutability": "view",
      "type": "function"
    },
    {
      "constant": true,
      "inputs": [],
      "name": "manager",
      "outputs": [
        {
          "name": "",
          "type": "address"
        }
      ],
      "payable": false,
      "stateMutability": "view",
      "type": "function"
    },
    {
      "constant": true,
      "inputs": [],
      "name": "crowdsaleController",
      "outputs": [
        {
          "name": "",
          "type": "address"
        }
      ],
      "payable": false,
      "stateMutability": "view",
      "type": "function"
    },
    {
      "constant": true,
      "inputs": [],
      "name": "crowdsaleFactory",
      "outputs": [
        {
          "name": "",
          "type": "address"
        }
      ],
      "payable": false,
      "stateMutability": "view",
      "type": "function"
    },
    {
      "constant": true,
      "inputs": [],
      "name": "tokenName",
      "outputs": [
        {
          "name": "",
          "type": "string"
        }
      ],
      "payable": false,
      "stateMutability": "view",
      "type": "function"
    },
    {
      "constant": true,
      "inputs": [],
      "name": "userStorage",
      "outputs": [
        {
          "name": "",
          "type": "address"
        }
      ],
      "payable": false,
      "stateMutability": "view",
      "type": "function"
    },
    {
      "constant": true,
      "inputs": [],
      "name": "stopped",
      "outputs": [
        {
          "name": "",
          "type": "bool"
        }
      ],
      "payable": false,
      "stateMutability": "view",
      "type": "function"
    },
    {
      "constant": true,
      "inputs": [],
      "name": "tokenSymbol",
      "outputs": [
        {
          "name": "",
          "type": "string"
        }
      ],
      "payable": false,
      "stateMutability": "view",
      "type": "function"
    },
    {
      "constant": true,
      "inputs": [],
      "name": "ethRewardPart",
      "outputs": [
        {
          "name": "",
          "type": "uint256"
        }
      ],
      "payable": false,
      "stateMutability": "view",
      "type": "function"
    },
    {
      "constant": true,
      "inputs": [],
      "name": "semanticVersion",
      "outputs": [
        {
          "name": "",
          "type": "string"
        }
      ],
      "payable": false,
      "stateMutability": "view",
      "type": "function"
    },
    {
      "constant": true,
      "inputs": [],
      "name": "owner",
      "outputs": [
        {
          "name": "",
          "type": "address"
        }
      ],
      "payable": false,
      "stateMutability": "view",
      "type": "function"
    },
    {
      "constant": true,
      "inputs": [],
      "name": "forecasting",
      "outputs": [
        {
          "name": "",
          "type": "address"
        }
      ],
      "payable": false,
      "stateMutability": "view",
      "type": "function"
    },
    {
      "constant": true,
      "inputs": [],
      "name": "crowdsale",
      "outputs": [
        {
          "name": "",
          "type": "address"
        }
      ],
      "payable": false,
      "stateMutability": "view",
      "type": "function"
    },
    {
      "constant": true,
      "inputs": [],
      "name": "tokenRewardPart",
      "outputs": [
        {
          "name": "",
          "type": "uint256"
        }
      ],
      "payable": false,
      "stateMutability": "view",
      "type": "function"
    },
    {
      "constant": true,
      "inputs": [],
      "name": "endTimestamp",
      "outputs": [
        {
          "name": "",
          "type": "uint256"
        }
      ],
      "payable": false,
      "stateMutability": "view",
      "type": "function"
    },
    {
      "constant": true,
      "inputs": [],
      "name": "id",
      "outputs": [
        {
          "name": "",
          "type": "bytes32"
        }
      ],
      "payable": false,
      "stateMutability": "view",
      "type": "function"
    },
    {
      "constant": false,
      "inputs": [
        {
          "name": "_newManager",
          "type": "address"
        }
      ],
      "name": "transferManager",
      "outputs": [],
      "payable": false,
      "stateMutability": "nonpayable",
      "type": "function"
    },
    {
      "constant": true,
      "inputs": [],
      "name": "stage",
      "outputs": [
        {
          "name": "",
          "type": "uint8"
        }
      ],
      "payable": false,
      "stateMutability": "view",
      "type": "function"
    },
    {
      "constant": true,
      "inputs": [],
      "name": "rewardsModel",
      "outputs": [
        {
          "name": "",
          "type": "address"
        }
      ],
      "payable": false,
      "stateMutability": "view",
      "type": "function"
    },
    {
      "constant": true,
      "inputs": [],
      "name": "startTimestamp",
      "outputs": [
        {
          "name": "",
          "type": "uint256"
        }
      ],
      "payable": false,
      "stateMutability": "view",
      "type": "function"
    },
    {
      "constant": true,
      "inputs": [],
      "name": "forecastingFactory",
      "outputs": [
        {
          "name": "",
          "type": "address"
        }
      ],
      "payable": false,
      "stateMutability": "view",
      "type": "function"
    },
    {
      "constant": true,
      "inputs": [],
      "name": "tokenFactory",
      "outputs": [
        {
          "name": "",
          "type": "address"
        }
      ],
      "payable": false,
      "stateMutability": "view",
      "type": "function"
    },
    {
      "constant": true,
      "inputs": [],
      "name": "infoHash",
      "outputs": [
        {
          "name": "",
          "type": "bytes32"
        }
      ],
      "payable": false,
      "stateMutability": "view",
      "type": "function"
    },
    {
      "constant": false,
      "inputs": [
        {
          "name": "newOwner",
          "type": "address"
        }
      ],
      "name": "transferOwnership",
      "outputs": [],
      "payable": false,
      "stateMutability": "nonpayable",
      "type": "function"
    },
    {
      "constant": true,
      "inputs": [],
      "name": "token",
      "outputs": [
        {
          "name": "",
          "type": "address"
        }
      ],
      "payable": false,
      "stateMutability": "view",
      "type": "function"
    },
    {
      "inputs": [
        {
          "name": "_name",
          "type": "string"
        },
        {
          "name": "_tokenName",
          "type": "string"
        },
        {
          "name": "_tokenSymbol",
          "type": "string"
        },
        {
          "name": "_manager",
          "type": "address"
        },
        {
          "name": "_owner",
          "type": "address"
        },
        {
          "name": "_id",
          "type": "bytes32"
        },
        {
          "name": "_infoHash",
          "type": "bytes32"
        }
      ],
      "payable": false,
      "stateMutability": "nonpayable",
      "type": "constructor"
    },
    {
      "anonymous": false,
      "inputs": [
        {
          "indexed": true,
          "name": "creator",
          "type": "address"
        },
        {
          "indexed": false,
          "name": "name",
          "type": "string"
        },
        {
          "indexed": false,
          "name": "symbol",
          "type": "string"
        },
        {
          "indexed": false,
          "name": "infoHash",
          "type": "bytes32"
        }
      ],
      "name": "DAO_CREATED",
      "type": "event"
    },
    {
      "anonymous": false,
      "inputs": [
        {
          "indexed": false,
          "name": "crowdsale",
          "type": "address"
        },
        {
          "indexed": false,
          "name": "token",
          "type": "address"
        },
        {
          "indexed": false,
          "name": "decimals",
          "type": "uint8"
        }
      ],
      "name": "DAO_SETUP",
      "type": "event"
    },
    {
      "anonymous": false,
      "inputs": [
        {
          "indexed": false,
          "name": "rewardsModel",
          "type": "address"
        }
      ],
      "name": "DAO_MODEL_CREATED",
      "type": "event"
    },
    {
      "anonymous": false,
      "inputs": [
        {
          "indexed": false,
          "name": "forecasting",
          "type": "address"
        },
        {
          "indexed": false,
          "name": "ethRewardPart",
          "type": "uint256"
        },
        {
          "indexed": false,
          "name": "tokenRewardPart",
          "type": "uint256"
        }
      ],
      "name": "DAO_FORECASTING_CREATED",
      "type": "event"
    },
    {
      "anonymous": false,
      "inputs": [
        {
          "indexed": false,
          "name": "modelType",
          "type": "uint8"
        },
        {
          "indexed": false,
          "name": "minAmount",
          "type": "uint256"
        },
        {
          "indexed": false,
          "name": "maxAmount",
          "type": "uint256"
        }
      ],
      "name": "DAO_STARTED",
      "type": "event"
    },
    {
      "anonymous": false,
      "inputs": [],
      "name": "DAO_STOPPED",
      "type": "event"
    },
    {
      "anonymous": false,
      "inputs": [
        {
          "indexed": false,
          "name": "_infoHash",
          "type": "bytes32"
        }
      ],
      "name": "DAO_UPDATE_INFO",
      "type": "event"
    },
    {
      "anonymous": false,
      "inputs": [
        {
          "indexed": false,
          "name": "token",
          "type": "address"
        },
        {
          "indexed": false,
          "name": "name",
          "type": "string"
        },
        {
          "indexed": false,
          "name": "symbol",
          "type": "string"
        },
        {
          "indexed": false,
          "name": "decimals",
          "type": "uint8"
        }
      ],
      "name": "DAO_TOKEN_CREATE",
      "type": "event"
    },
    {
      "anonymous": false,
      "inputs": [
        {
          "indexed": false,
          "name": "crowdsale",
          "type": "address"
        },
        {
          "indexed": false,
          "name": "controller",
          "type": "address"
        },
        {
          "indexed": false,
          "name": "minimalGoal",
          "type": "uint256"
        },
        {
          "indexed": false,
          "name": "hardCap",
          "type": "uint256"
        },
        {
          "indexed": false,
          "name": "prices1to4",
          "type": "uint256"
        },
        {
          "indexed": false,
          "name": "prices5to8",
          "type": "uint256"
        }
      ],
      "name": "DAO_CROWDSALE_CREATED",
      "type": "event"
    },
    {
      "anonymous": false,
      "inputs": [
        {
          "indexed": false,
          "name": "crowdsale",
          "type": "address"
        },
        {
          "indexed": false,
          "name": "controller",
          "type": "address"
        }
      ],
      "name": "DAO_CUSTOM_CROWDSALE_CREATED",
      "type": "event"
    },
    {
      "anonymous": false,
      "inputs": [
        {
          "indexed": true,
          "name": "previousOwner",
          "type": "address"
        },
        {
          "indexed": true,
          "name": "newOwner",
          "type": "address"
        }
      ],
      "name": "OwnershipTransferred",
      "type": "event"
    },
    {
      "constant": false,
      "inputs": [
        {
          "name": "_forecastingFactory",
          "type": "address"
        },
        {
          "name": "_rewardsModelFactory",
          "type": "address"
        },
        {
          "name": "_tokenFactory",
          "type": "address"
        },
        {
          "name": "_crowdsaleFactory",
          "type": "address"
        },
        {
          "name": "_customCrowdsale",
          "type": "address"
        },
        {
          "name": "_userStorage",
          "type": "address"
        },
        {
          "name": "_wingsReserveAmount",
          "type": "uint256"
        }
      ],
      "name": "setupParameters",
      "outputs": [],
      "payable": false,
      "stateMutability": "nonpayable",
      "type": "function"
    },
    {
      "constant": false,
      "inputs": [],
      "name": "createModel",
      "outputs": [],
      "payable": false,
      "stateMutability": "nonpayable",
      "type": "function"
    },
    {
      "constant": false,
      "inputs": [
        {
          "name": "_forecastingDurationInHours",
          "type": "uint256"
        },
        {
          "name": "_ethRewardPart",
          "type": "uint256"
        },
        {
          "name": "_tokenRewardPart",
          "type": "uint256"
        }
      ],
      "name": "createForecasting",
      "outputs": [],
      "payable": false,
      "stateMutability": "nonpayable",
      "type": "function"
    },
    {
      "constant": false,
      "inputs": [
        {
          "name": "_bucketMin",
          "type": "uint256"
        },
        {
          "name": "_bucketMax",
          "type": "uint256"
        },
        {
          "name": "_bucketStep",
          "type": "uint256"
        }
      ],
      "name": "startForecasting",
      "outputs": [],
      "payable": false,
      "stateMutability": "nonpayable",
      "type": "function"
    },
    {
      "constant": false,
      "inputs": [],
      "name": "closeForecasting",
      "outputs": [],
      "payable": false,
      "stateMutability": "nonpayable",
      "type": "function"
    },
    {
      "constant": false,
      "inputs": [],
      "name": "crowdsaleTimeIsOver",
      "outputs": [],
      "payable": false,
      "stateMutability": "nonpayable",
      "type": "function"
    },
    {
      "constant": false,
      "inputs": [
        {
          "name": "_decimals",
          "type": "uint8"
        }
      ],
      "name": "createToken",
      "outputs": [],
      "payable": false,
      "stateMutability": "nonpayable",
      "type": "function"
    },
    {
      "constant": false,
      "inputs": [
        {
          "name": "_minimalGoal",
          "type": "uint256"
        },
        {
          "name": "_hardCap",
          "type": "uint256"
        },
        {
          "name": "_prices1to4",
          "type": "uint256"
        },
        {
          "name": "_prices5to8",
          "type": "uint256"
        }
      ],
      "name": "createCrowdsale",
      "outputs": [],
      "payable": false,
      "stateMutability": "nonpayable",
      "type": "function"
    },
    {
      "constant": false,
      "inputs": [],
      "name": "createCustomCrowdsale",
      "outputs": [],
      "payable": false,
      "stateMutability": "nonpayable",
      "type": "function"
    },
    {
      "constant": false,
      "inputs": [
        {
          "name": "_infoHash",
          "type": "bytes32"
        }
      ],
      "name": "update",
      "outputs": [],
      "payable": false,
      "stateMutability": "nonpayable",
      "type": "function"
    },
    {
      "constant": false,
      "inputs": [],
      "name": "stop",
      "outputs": [],
      "payable": false,
      "stateMutability": "nonpayable",
      "type": "function"
    },
    {
      "constant": false,
      "inputs": [
        {
          "name": "",
          "type": "uint256"
        },
        {
          "name": "",
          "type": "uint256"
        }
      ],
      "name": "setTime",
      "outputs": [],
      "payable": false,
      "stateMutability": "nonpayable",
      "type": "function"
    }
  ],
  "bytecode": "0x60806040523480156200001157600080fd5b5060405162003fb338038062003fb38339810160408181528251602080850151838601516060870151608088015160a089015160c08a0151888a019098526005808a527f312e312e30000000000000000000000000000000000000000000000000000000968a0196875260018054600160a060020a03191633179055968a01999485019893909401969195909491926000928392620000b19181620002c5565b50508851620000c89060099060208c0190620002c5565b5060008054600160a060020a03808916600160a060020a03199283161783556001805491891691909216179055600785905560088490558851925082116200010f57600080fd5b87516200012490600a9060208b0190620002c5565b50508551600581118015906200013a5750600081115b15156200014657600080fd5b86516200015b90600b9060208a0190620002c5565b506006805460ff19169055600180546008546040805190810182905260608082526009805460029681161561010002600019011695909504908201819052600160a060020a03909316937f055b30c1bad01ea94e2ea75f7e5d3020d462e9fe8e4155d165b0598f260db289939092600b929091819060208201906080830190879080156200022d5780601f1062000201576101008083540402835291602001916200022d565b820191906000526020600020905b8154815290600101906020018083116200020f57829003601f168201915b5050838103825285546002600019610100600184161502019091160480825260209091019086908015620002a55780601f106200027957610100808354040283529160200191620002a5565b820191906000526020600020905b8154815290600101906020018083116200028757829003601f168201915b50509550505050505060405180910390a25050505050505050506200036a565b828054600181600116156101000203166002900490600052602060002090601f016020900481019282601f106200030857805160ff191683800117855562000338565b8280016001018555821562000338579182015b82811115620003385782518255916020019190600101906200031b565b50620003469291506200034a565b5090565b6200036791905b8082111562000346576000815560010162000351565b90565b613c39806200037a6000396000f300608060405260043610620001f15763ffffffff60e060020a60003504166306fdde038114620001f657806307da68f514620002865780630db71d5314620002a0578063174114c114620002c45780631df0e35914620002f857806325d355911462000319578063481c6a7514620003435780634be4c893146200035b5780635aed4ec314620003735780635fbfd9f61462000391578063658e450614620003a95780636c02a93114620003c157806371036c3014620003d957806375e5807914620003fa57806375f12b2114620004125780637b61c320146200043e57806380fa81b1146200045657806388b9022f146200046e5780638b14724514620004865780638da5cb5b14620004a1578063997d11c414620004b95780639c1e03a014620004d1578063a0355eca14620004e9578063a823cfaf1462000507578063a85adeab146200051f578063ad2861eb1462000537578063af640d0f146200054f578063ba0e930a1462000567578063c040e6b8146200058b578063c72ed11014620005c8578063c783eb0a14620005e0578063df24224814620005f8578063e6fd48bc1462000610578063e759ce6a1462000628578063e77772fe1462000640578063e8ca27731462000658578063ed0b8f61146200069d578063f2fde38b14620006b5578063fc0c546a14620006d9575b600080fd5b3480156200020357600080fd5b506200020e620006f1565b6040805160208082528351818301528351919283929083019185019080838360005b838110156200024a57818101518382015260200162000230565b50505050905090810190601f168015620002785780820380516001836020036101000a031916815260200191505b509250505060405180910390f35b3480156200029357600080fd5b506200029e62000783565b005b348015620002ad57600080fd5b506200029e600435602435604435606435620009ee565b348015620002d157600080fd5b50620002dc62000ef1565b60408051600160a060020a039092168252519081900360200190f35b3480156200030557600080fd5b506200029e60043560243560443562000f00565b3480156200032657600080fd5b506200033162001271565b60408051918252519081900360200190f35b3480156200035057600080fd5b50620002dc62001277565b3480156200036857600080fd5b506200029e62001286565b3480156200038057600080fd5b506200029e60ff600435166200141d565b3480156200039e57600080fd5b50620002dc6200177f565b348015620003b657600080fd5b50620002dc6200178e565b348015620003ce57600080fd5b506200020e6200179d565b348015620003e657600080fd5b506200029e600435602435604435620017fb565b3480156200040757600080fd5b50620002dc62001a09565b3480156200041f57600080fd5b506200042a62001a18565b604080519115158252519081900360200190f35b3480156200044b57600080fd5b506200020e62001a21565b3480156200046357600080fd5b506200033162001a7f565b3480156200047b57600080fd5b506200020e62001a85565b3480156200049357600080fd5b506200029e60043562001ae3565b348015620004ae57600080fd5b50620002dc62001b65565b348015620004c657600080fd5b50620002dc62001b74565b348015620004de57600080fd5b50620002dc62001b83565b348015620004f657600080fd5b506200029e60043560243562001b92565b3480156200051457600080fd5b506200033162001bc6565b3480156200052c57600080fd5b506200033162001bcc565b3480156200054457600080fd5b506200029e62001bd2565b3480156200055c57600080fd5b506200033162001e82565b3480156200057457600080fd5b506200029e600160a060020a036004351662001e88565b3480156200059857600080fd5b50620005a362001ed8565b60405180826008811115620005b457fe5b60ff16815260200191505060405180910390f35b348015620005d557600080fd5b506200029e62001ee1565b348015620005ed57600080fd5b50620002dc62002027565b3480156200060557600080fd5b506200029e62002036565b3480156200061d57600080fd5b5062000331620020ff565b3480156200063557600080fd5b50620002dc62002105565b3480156200064d57600080fd5b50620002dc62002114565b3480156200066557600080fd5b506200029e600160a060020a0360043581169060243581169060443581169060643581169060843581169060a4351660c43562002123565b348015620006aa57600080fd5b50620003316200235b565b348015620006c257600080fd5b506200029e600160a060020a036004351662002361565b348015620006e657600080fd5b50620002dc620023eb565b6009805460408051602060026001851615610100026000190190941693909304601f810184900484028201840190925281815292918301828280156200077b5780601f106200074f576101008083540402835291602001916200077b565b820191906000526020600020905b8154815290600101906020018083116200075d57829003601f168201915b505050505081565b600154600090600160a060020a031633146200079e57600080fd5b60045460ff1615620007af57600080fd5b601354600160a060020a0316156200083457601360009054906101000a9004600160a060020a0316600160a060020a03166307da68f56040518163ffffffff1660e060020a028152600401600060405180830381600087803b1580156200081557600080fd5b505af11580156200082a573d6000803e3d6000fd5b50505050620009b8565b601254600160a060020a0316156200089a57601260009054906101000a9004600160a060020a0316600160a060020a03166307da68f56040518163ffffffff1660e060020a028152600401600060405180830381600087803b1580156200081557600080fd5b601060009054906101000a9004600160a060020a0316600160a060020a031663fc0c546a6040518163ffffffff1660e060020a028152600401602060405180830381600087803b158015620008ee57600080fd5b505af115801562000903573d6000803e3d6000fd5b505050506040513d60208110156200091a57600080fd5b5051600080546017546040805160e060020a63a9059cbb028152600160a060020a0393841660048201526024810192909252519394509084169263a9059cbb92604480840193602093929083900390910190829087803b1580156200097e57600080fd5b505af115801562000993573d6000803e3d6000fd5b505050506040513d6020811015620009aa57600080fd5b50511515620009b857600080fd5b620009c2620023fa565b6040517f9ce5119d882cca1551639ceffde6afddab333f470f2cc3cfdc2c7acffa0f92e290600090a150565b600154600090600160a060020a0316331462000a0957600080fd5b60045460ff161562000a1a57600080fd5b60058060065460ff16600881111562000a2f57fe5b1462000a3a57600080fd5b600f546015546012546040805160e160020a631f343405028152600160a060020a0393841660048201529183166024830152519190921691633e68680a9160448083019260209291908290030181600087803b15801562000a9a57600080fd5b505af115801562000aaf573d6000803e3d6000fd5b505050506040513d602081101562000ac657600080fd5b50516040805160e060020a63c0b9532b02815260048101899052602481018890529051919350600160a060020a0384169163c0b9532b9160448082019260009290919082900301818387803b15801562000b1f57600080fd5b505af115801562000b34573d6000803e3d6000fd5b5050505081600160a060020a031663ef88d7f085856040518363ffffffff1660e060020a0281526004018083815260200182815260200192505050600060405180830381600087803b15801562000b8a57600080fd5b505af115801562000b9f573d6000803e3d6000fd5b50506015546040805160e060020a63f2fde38b028152600160a060020a038781166004830152915191909216935063f2fde38b9250602480830192600092919082900301818387803b15801562000bf557600080fd5b505af115801562000c0a573d6000803e3d6000fd5b50506040805160e060020a63f2fde38b0281523360048201529051600160a060020a038616935063f2fde38b9250602480830192600092919082900301818387803b15801562000c5957600080fd5b505af115801562000c6e573d6000803e3d6000fd5b505060165460185460195460125492945033935030928790600160a060020a0316600062000c9b62002432565b978852600160a060020a03968716602089015294861660408089019190915260608801949094526080870192909252841660a086015290921660c0840152151560e0830152519081900361010001906000f08015801562000d00573d6000803e3d6000fd5b5060138054600160a060020a031916600160a060020a0392831617908190556040805160e160020a635d0749850281529183166004830152519184169163ba0e930a9160248082019260009290919082900301818387803b15801562000d6557600080fd5b505af115801562000d7a573d6000803e3d6000fd5b50506012546013546040805160e060020a63f2fde38b028152600160a060020a039283166004820152905191909216935063f2fde38b9250602480830192600092919082900301818387803b15801562000dd357600080fd5b505af115801562000de8573d6000803e3d6000fd5b50506012546013546040805160e160020a635d074985028152600160a060020a039283166004820152905191909216935063ba0e930a9250602480830192600092919082900301818387803b15801562000e4157600080fd5b505af115801562000e56573d6000803e3d6000fd5b505060148054600160a060020a031916600160a060020a038616179055505060068054819060ff1916600182021790555060135460408051600160a060020a0380861682529092166020830152818101889052606082018790526080820186905260a08201859052517fe680012b52e1c0193b78c06cfa0c2d063d4f9245746aa2030e67b483631274129181900360c00190a1505050505050565b600d54600160a060020a031681565b600154600090600160a060020a0316331462000f1b57600080fd5b60045460ff161562000f2c57600080fd5b60018060065460ff16600881111562000f4157fe5b1462000f4c57600080fd5b6000831162000f5a57600080fd5b600c54600080546010546011546040805160e260020a6315acdf29028152336004820152600160a060020a03948516602482015292841660448401529083166064830152608482018a90525191909316926356b37ca49260a48083019360209390929083900390910190829087803b15801562000fd657600080fd5b505af115801562000feb573d6000803e3d6000fd5b505050506040513d60208110156200100257600080fd5b505160128054600160a060020a031916600160a060020a039283161790556010546040805160e160020a637e062a350281529051919092169163fc0c546a9160048083019260209291908290030181600087803b1580156200106357600080fd5b505af115801562001078573d6000803e3d6000fd5b505050506040513d60208110156200108f57600080fd5b50516012546017546040805160e060020a63a9059cbb028152600160a060020a0393841660048201526024810192909252519294509084169163a9059cbb916044808201926020929091908290030181600087803b158015620010f157600080fd5b505af115801562001106573d6000803e3d6000fd5b505050506040513d60208110156200111d57600080fd5b505115156200112b57600080fd5b6012546017546040805160e060020a637e24f879028152600481019290925251600160a060020a0390921691637e24f8799160248082019260009290919082900301818387803b1580156200117f57600080fd5b505af115801562001194573d6000803e3d6000fd5b50506011546012546040805160e060020a63f2fde38b028152600160a060020a039283166004820152905191909216935063f2fde38b9250602480830192600092919082900301818387803b158015620011ed57600080fd5b505af115801562001202573d6000803e3d6000fd5b50505060188590555060198390556006805460ff1916600217905560125460408051600160a060020a03909216825260208201869052818101859052517fd1e435da224e360d58c54e1fb97f8aff0211adbd1b5c20e21a32bc473b686225916060908290030190a15050505050565b60175481565b600054600160a060020a031681565b600154600160a060020a031633146200129e57600080fd5b60045460ff1615620012af57600080fd5b60008060065460ff166008811115620012c457fe5b14620012cf57600080fd5b600d60009054906101000a9004600160a060020a0316600160a060020a031663efc81a8c6040518163ffffffff1660e060020a028152600401602060405180830381600087803b1580156200132357600080fd5b505af115801562001338573d6000803e3d6000fd5b505050506040513d60208110156200134f57600080fd5b505160118054600160a060020a031916600160a060020a0392831617908190556040805160e060020a63f2fde38b0281523060048201529051919092169163f2fde38b91602480830192600092919082900301818387803b158015620013b457600080fd5b505af1158015620013c9573d6000803e3d6000fd5b50506006805460ff19166001179055505060115460408051600160a060020a039092168252517fff835096ffa848436d5b61c19eb2b84c121390b062ce561b197ff388015828eb916020908290030190a150565b600154600160a060020a031633146200143557600080fd5b60045460ff16156200144657600080fd5b60048060065460ff1660088111156200145b57fe5b146200146657600080fd5b601454600160a060020a0316156200147d57600080fd5b600e5460405160e060020a6323ea11e702815260ff84166044820152606060048201908152600a80546002600019600183161561010002019091160460648401819052600160a060020a03909416936323ea11e7939192600b9288928291602481019160849091019087908015620015395780601f106200150d5761010080835404028352916020019162001539565b820191906000526020600020905b8154815290600101906020018083116200151b57829003601f168201915b5050838103825285546002600019610100600184161502019091160480825260209091019086908015620015b15780601f106200158557610100808354040283529160200191620015b1565b820191906000526020600020905b8154815290600101906020018083116200159357829003601f168201915b505095505050505050602060405180830381600087803b158015620015d557600080fd5b505af1158015620015ea573d6000803e3d6000fd5b505050506040513d60208110156200160157600080fd5b505160158054600160a060020a03928316600160a060020a031990911617908190556006805460ff19166005179055604080519190921680825260ff85166060830152608060208301818152600a8054600261010060018316150260001901909116049285018390527fa2f62b9f66fb3609c12677efc6c1f5aab1b902b8bd19dafc9e521bc0ba48c6109593949093600b9389939183019060a084019087908015620016f15780601f10620016c557610100808354040283529160200191620016f1565b820191906000526020600020905b815481529060010190602001808311620016d357829003601f168201915b5050838103825285546002600019610100600184161502019091160480825260209091019086908015620017695780601f106200173d5761010080835404028352916020019162001769565b820191906000526020600020905b8154815290600101906020018083116200174b57829003601f168201915b5050965050505050505060405180910390a15050565b601354600160a060020a031681565b600f54600160a060020a031681565b600a805460408051602060026001851615610100026000190190941693909304601f810184900484028201840190925281815292918301828280156200077b5780601f106200074f576101008083540402835291602001916200077b565b600154600090600160a060020a031633146200181657600080fd5b60045460ff16156200182757600080fd5b60028060065460ff1660088111156200183c57fe5b146200184757600080fd5b6012546040805160e160020a63209a9d370281526004810188905260248101879052604481018690529051600160a060020a03909216935083916341353a6e9160648082019260009290919082900301818387803b158015620018a957600080fd5b505af1158015620018be573d6000803e3d6000fd5b505050504260028190555081600160a060020a0316630fb5a6b46040518163ffffffff1660e060020a028152600401602060405180830381600087803b1580156200190857600080fd5b505af11580156200191d573d6000803e3d6000fd5b505050506040513d60208110156200193457600080fd5b5051600254610e1090910281016003819055623b5380016016556040805160e160020a636d095a67028152600481019290925251600160a060020a0384169163da12b4ce91602480830192600092919082900301818387803b1580156200199a57600080fd5b505af1158015620019af573d6000803e3d6000fd5b50506006805460ff19166003179055505060408051600081526020810187905280820186905290517fffba02bbe4be9e89823bfb29e57234ed220b43381774bcb445ad0dbd0332a710916060908290030190a15050505050565b601054600160a060020a031681565b60045460ff1681565b600b805460408051602060026001851615610100026000190190941693909304601f810184900484028201840190925281815292918301828280156200077b5780601f106200074f576101008083540402835291602001916200077b565b60185481565b6005805460408051602060026001851615610100026000190190941693909304601f810184900484028201840190925281815292918301828280156200077b5780601f106200074f576101008083540402835291602001916200077b565b600154600160a060020a0316331462001afb57600080fd5b600254421162001b0a57600080fd5b600354421062001b1957600080fd5b60045460ff161562001b2a57600080fd5b60088190556040805182815290517f52cea4364098f12007334908814b2a36718b51ac244a338de575a08b4c39af389181900360200190a150565b600154600160a060020a031681565b601254600160a060020a031681565b601454600160a060020a031681565b600054600160a060020a0316331462001baa57600080fd5b6002541562001bb857600080fd5b60035415620001f157600080fd5b60195481565b60035481565b600154600160a060020a0316331462001bea57600080fd5b60045460ff161562001bfb57600080fd5b60048060065460ff16600881111562001c1057fe5b1462001c1b57600080fd5b601454600160a060020a0316151562001c3357600080fd5b60165460018054601854601954601454601254600160a060020a03948516953095928316929091169062001c6662002432565b978852600160a060020a03968716602089015294861660408089019190915260608801949094526080870192909252841660a086015290921660c0840152151560e0830152519081900361010001906000f08015801562001ccb573d6000803e3d6000fd5b5060138054600160a060020a031916600160a060020a0392831617908190556014546040805160e160020a635d07498502815292841660048401525192169163ba0e930a9160248082019260009290919082900301818387803b15801562001d3257600080fd5b505af115801562001d47573d6000803e3d6000fd5b50506012546013546040805160e060020a63f2fde38b028152600160a060020a039283166004820152905191909216935063f2fde38b9250602480830192600092919082900301818387803b15801562001da057600080fd5b505af115801562001db5573d6000803e3d6000fd5b50506012546013546040805160e160020a635d074985028152600160a060020a039283166004820152905191909216935063ba0e930a9250602480830192600092919082900301818387803b15801562001e0e57600080fd5b505af115801562001e23573d6000803e3d6000fd5b50506006805460ff191681179055505060145460135460408051600160a060020a03938416815292909116602083015280517fdfb754513e88ce3254f75c05c995b83e833844e56b9e6ec0e15b1e89bebb32929281900390910190a150565b60075481565b600054600160a060020a0316331462001ea057600080fd5b600160a060020a038116151562001eb657600080fd5b60008054600160a060020a031916600160a060020a0392909216919091179055565b60065460ff1681565b600060038060065460ff16600881111562001ef857fe5b1462001f0357600080fd5b601260009054906101000a9004600160a060020a0316915081600160a060020a0316638956e05d6040518163ffffffff1660e060020a028152600401600060405180830381600087803b15801562001f5a57600080fd5b505af115801562001f6f573d6000803e3d6000fd5b506005925062001f7d915050565b82600160a060020a031663c040e6b86040518163ffffffff1660e060020a028152600401602060405180830381600087803b15801562001fbc57600080fd5b505af115801562001fd1573d6000803e3d6000fd5b505050506040513d602081101562001fe857600080fd5b5051600981111562001ff657fe5b146200200457600462002007565b60075b6006805460ff191660018360088111156200201e57fe5b02179055505050565b601154600160a060020a031681565b60165442116200204557600080fd5b600460065460ff1660088111156200205957fe5b1480620020775750600560065460ff1660088111156200207557fe5b145b15156200208357600080fd5b601260009054906101000a9004600160a060020a0316600160a060020a03166307da68f56040518163ffffffff1660e060020a028152600401600060405180830381600087803b158015620020d757600080fd5b505af1158015620020ec573d6000803e3d6000fd5b50506006805460ff191660081790555050565b60025481565b600c54600160a060020a031681565b600e54600160a060020a031681565b60008054600160a060020a031633146200213c57600080fd5b60008060065460ff1660088111156200215157fe5b146200215c57600080fd5b600e8054600160a060020a0319908116600160a060020a038a811691909117909255600c805482168c8416179055600d805482168b8416179055601080548216878416179055600f80549091168883161790556017849055851615620023205760148054600160a060020a031916600160a060020a0387169081179091556040805160e060020a6321df0da702815290516321df0da7916004808201926020929091908290030181600087803b1580156200221657600080fd5b505af11580156200222b573d6000803e3d6000fd5b505050506040513d60208110156200224257600080fd5b505160158054600160a060020a031916600160a060020a0392831617908190556014546040805160e060020a63313ce5670281529051928416955060008051602062003bee8339815191529391909116918591829163313ce567916004808201926020929091908290030181600087803b158015620022c057600080fd5b505af1158015620022d5573d6000803e3d6000fd5b505050506040513d6020811015620022ec57600080fd5b505160408051600160a060020a03948516815292909316602083015260ff168183015290519081900360600190a162002350565b6040805160008082526020820181905281830152905160008051602062003bee8339815191529181900360600190a15b505050505050505050565b60085481565b600154600160a060020a031633146200237957600080fd5b600160a060020a03811615156200238f57600080fd5b600154604051600160a060020a038084169216907f8be0079c531659141344cd1fd0a4f28419497f9722a3daafe3b4186f6b6457e090600090a360018054600160a060020a031916600160a060020a0392909216919091179055565b601554600160a060020a031681565b600154600160a060020a031633146200241257600080fd5b60045460ff16156200242357600080fd5b6004805460ff19166001179055565b6040516117aa806200244483390190560060806040523480156200001157600080fd5b5060405161010080620017aa8339810160408181528251602080850151838601516060870151608088015160a089015160c08a015160e0909a0151888a019098526005808a527f312e302e30000000000000000000000000000000000000000000000000000000968a0196875260008054600160a060020a03191633178155979a959994989397929691959491620000ad916002919062000315565b5050600085118015620000c25750620f424086105b8015620000d15750620f424085105b1515620000dd57600080fd5b600789905560008054600160a060020a0319908116600160a060020a038b81169190911783556001805483168b83161790556003805460058b905560068a905560ff1916861515176201000060b060020a031916620100008984168102919091179182905560048054909416888416178455604080517f21df0da7000000000000000000000000000000000000000000000000000000008152905191909204909216936321df0da7938281019360209390929083900390910190829087803b158015620001a957600080fd5b505af1158015620001be573d6000803e3d6000fd5b505050506040513d6020811015620001d557600080fd5b50519050600160a060020a0381161515620001ef57600080fd5b8115156200029b5783600160a060020a031681600160a060020a0316638da5cb5b6040518163ffffffff167c0100000000000000000000000000000000000000000000000000000000028152600401602060405180830381600087803b1580156200025957600080fd5b505af11580156200026e573d6000803e3d6000fd5b505050506040513d60208110156200028557600080fd5b5051600160a060020a0316146200029b57600080fd5b60045460035460408051600160a060020a038089168252808616602083015290931683820152606083018990526080830188905260ff909116151560a0830152517f2fbd244eab58c07f13c25924188ec652574ea1f625ad4377b9e3ba2ce3a00cc39181900360c00190a1505050505050505050620003ba565b828054600181600116156101000203166002900490600052602060002090601f016020900481019282601f106200035857805160ff191683800117855562000388565b8280016001018555821562000388579182015b82811115620003885782518255916020019190600101906200036b565b50620003969291506200039a565b5090565b620003b791905b80821115620003965760008155600101620003a1565b90565b6113e080620003ca6000396000f3006080604052600436106100ed5763ffffffff60e060020a60003504166307da68f581146100f25780630e8c7f93146101095780631918a54b1461011e5780631f2698ab1461014f578063481c6a751461017857806351c7c16a1461018d57806375e20a80146101b457806375f12b21146101c957806380fa81b1146101de57806388b9022f146101f35780638da5cb5b1461027d578063997d11c414610292578063a51fe113146102a7578063a823cfaf146102ce578063ba0e930a146102e3578063be9a655514610304578063c4c5f3de14610319578063c72ed1101461032e578063f2fde38b14610343575b600080fd5b3480156100fe57600080fd5b50610107610364565b005b34801561011557600080fd5b506101076105ad565b34801561012a57600080fd5b506101336105ef565b60408051600160a060020a039092168252519081900360200190f35b34801561015b57600080fd5b50610164610604565b604080519115158252519081900360200190f35b34801561018457600080fd5b50610133610614565b34801561019957600080fd5b506101a2610623565b60408051918252519081900360200190f35b3480156101c057600080fd5b50610164610629565b3480156101d557600080fd5b50610164610632565b3480156101ea57600080fd5b506101a2610642565b3480156101ff57600080fd5b50610208610648565b6040805160208082528351818301528351919283929083019185019080838360005b8381101561024257818101518382015260200161022a565b50505050905090810190601f16801561026f5780820380516001836020036101000a031916815260200191505b509250505060405180910390f35b34801561028957600080fd5b506101336106d3565b34801561029e57600080fd5b506101336106e2565b3480156102b357600080fd5b50610107600435602435600160a060020a03604435166106f1565b3480156102da57600080fd5b506101a2610948565b3480156102ef57600080fd5b50610107600160a060020a036004351661094e565b34801561031057600080fd5b5061010761099c565b34801561032557600080fd5b506101646109e2565b34801561033a57600080fd5b506101076109f0565b34801561034f57600080fd5b50610107600160a060020a0360043516611268565b600154600160a060020a0316331461037b57600080fd5b60005460a860020a900460ff161561039257600080fd5b600360029054906101000a9004600160a060020a0316600160a060020a031663f41633406040518163ffffffff1660e060020a028152600401602060405180830381600087803b1580156103e557600080fd5b505af11580156103f9573d6000803e3d6000fd5b505050506040513d602081101561040f57600080fd5b50511561041b57600080fd5b600360029054906101000a9004600160a060020a0316600160a060020a031663ec4cd0cf6040518163ffffffff1660e060020a028152600401602060405180830381600087803b15801561046e57600080fd5b505af1158015610482573d6000803e3d6000fd5b505050506040513d602081101561049857600080fd5b5051156104a457600080fd5b600480546040805160e060020a6307da68f50281529051600160a060020a03909216926307da68f592828201926000929082900301818387803b1580156104ea57600080fd5b505af11580156104fe573d6000803e3d6000fd5b50505050600360029054906101000a9004600160a060020a0316600160a060020a03166307da68f56040518163ffffffff1660e060020a028152600401600060405180830381600087803b15801561055557600080fd5b505af1158015610569573d6000803e3d6000fd5b50506000805460a860020a60ff02191660a860020a1781556040517fa80ff82152ea8cf6ad95e6a4f50b632d07e72547c1fd99768f6e37bb36cbf6fc9350909150a1565b60005460a860020a900460ff16156105c457600080fd5b60005460a060020a900460ff16156105db57600080fd5b6007544211156105ed576105ed6112ef565b565b600354620100009004600160a060020a031681565b60005460a060020a900460ff1681565b600154600160a060020a031681565b60075481565b60035460ff1681565b60005460a860020a900460ff1681565b60055481565b6002805460408051602060018416156101000260001901909316849004601f810184900484028201840190925281815292918301828280156106cb5780601f106106a0576101008083540402835291602001916106cb565b820191906000526020600020905b8154815290600101906020018083116106ae57829003601f168201915b505050505081565b600054600160a060020a031681565b600454600160a060020a031681565b600054600160a060020a0316331461070857600080fd5b60005460a860020a900460ff161561071f57600080fd5b60005460a060020a900460ff161561073657600080fd5b6003546040805160e060020a63481c6a7502815290513092620100009004600160a060020a03169163481c6a759160048083019260209291908290030181600087803b15801561078557600080fd5b505af1158015610799573d6000803e3d6000fd5b505050506040513d60208110156107af57600080fd5b5051600160a060020a0316146107c457600080fd5b6002600480546040805160e360020a6318081cd70281529051600160a060020a039092169263c040e6b89282820192602092908290030181600087803b15801561080d57600080fd5b505af1158015610821573d6000803e3d6000fd5b505050506040513d602081101561083757600080fd5b5051600981111561084457fe5b1461084e57600080fd5b600754421115610865576108606112ef565b610943565b60075483111561087457600080fd5b6003546040805160e060020a63a51fe1130281526004810186905260248101859052600160a060020a0384811660448301529151620100009093049091169163a51fe1139160648082019260009290919082900301818387803b1580156108da57600080fd5b505af11580156108ee573d6000803e3d6000fd5b505050506108fa61099c565b6040805184815260208101849052600160a060020a0383168183015290517f2733ef997aba18950854f234b437abf7cda2afdc842371abc36ba897e40dad2e9181900360600190a15b505050565b60065481565b600154600160a060020a0316331461096557600080fd5b600160a060020a038116151561097a57600080fd5b60018054600160a060020a031916600160a060020a0392909216919091179055565b600054600160a060020a031633146109b357600080fd5b60005460a060020a900460ff16156109ca57600080fd5b6000805460a060020a60ff02191660a060020a179055565b600354610100900460ff1681565b600354600090819081908190610100900460ff1615610a0e57600080fd5b600360029054906101000a9004600160a060020a0316600160a060020a031663f41633406040518163ffffffff1660e060020a028152600401602060405180830381600087803b158015610a6157600080fd5b505af1158015610a75573d6000803e3d6000fd5b505050506040513d6020811015610a8b57600080fd5b505115610c0357600480546003546040805160e160020a63714f5c1b0281529051600160a060020a0393841694633f7f96d194620100009094049093169263e29eb836928082019260209290918290030181600087803b158015610aee57600080fd5b505af1158015610b02573d6000803e3d6000fd5b505050506040513d6020811015610b1857600080fd5b50516040805160e060020a63ffffffff8516028152600481019290925260006024830181905260448301819052905160648084019382900301818387803b158015610b6257600080fd5b505af1158015610b76573d6000803e3d6000fd5b5050600480546040805160e160020a63387666830281529051600160a060020a0390921694506370eccd069350808301926000929182900301818387803b158015610bc057600080fd5b505af1158015610bd4573d6000803e3d6000fd5b50506003805461ff001916610100179055505060405160008051602061139583398151915290600090a1611262565b600360029054906101000a9004600160a060020a0316600160a060020a031663ec4cd0cf6040518163ffffffff1660e060020a028152600401602060405180830381600087803b158015610c5657600080fd5b505af1158015610c6a573d6000803e3d6000fd5b505050506040513d6020811015610c8057600080fd5b50511515610c8d57600080fd5b620f4240610d22600654600360029054906101000a9004600160a060020a0316600160a060020a0316639106d7ba6040518163ffffffff1660e060020a028152600401602060405180830381600087803b158015610cea57600080fd5b505af1158015610cfe573d6000803e3d6000fd5b505050506040513d6020811015610d1457600080fd5b50519063ffffffff61135e16565b811515610d2b57fe5b049350600554600014159150600360029054906101000a9004600160a060020a0316600160a060020a031663e29eb8366040518163ffffffff1660e060020a028152600401602060405180830381600087803b158015610d8a57600080fd5b505af1158015610d9e573d6000803e3d6000fd5b505050506040513d6020811015610db457600080fd5b505160035490915060ff1615610e4257600480546040805160e160020a6319a8571b02815292830184905251600160a060020a0390911691633350ae369160248083019260209291908290030181600087803b158015610e1357600080fd5b505af1158015610e27573d6000803e3d6000fd5b505050506040513d6020811015610e3d57600080fd5b505190505b8115610e6e57620f4240610e616005548361135e90919063ffffffff16565b811515610e6a57fe5b0492505b600454600160a060020a0316633f7f96d18284610e8b5786610e8d565b855b60016040518463ffffffff1660e060020a02815260040180848152602001838152602001821515151581526020019350505050600060405180830381600087803b158015610eda57600080fd5b505af1158015610eee573d6000803e3d6000fd5b5060039250610efb915050565b600480546040805160e360020a6318081cd70281529051600160a060020a039092169263c040e6b89282820192602092908290030181600087803b158015610f4257600080fd5b505af1158015610f56573d6000803e3d6000fd5b505050506040513d6020811015610f6c57600080fd5b50516009811115610f7957fe5b141561117157811561100057600354600480546040805160e060020a6318c9ef97028152600160a060020a039283169381019390935260248301879052516201000090930416916318c9ef979160448082019260009290919082900301818387803b158015610fe757600080fd5b505af1158015610ffb573d6000803e3d6000fd5b505050505b600354600480546040805160e060020a63b23c1f19028152600160a060020a0392831693810193909352602483018890525162010000909304169163b23c1f199160448082019260009290919082900301818387803b15801561106257600080fd5b505af1158015611076573d6000803e3d6000fd5b5050600480546003546040805160e060020a6321df0da70281529051600160a060020a03938416965063f35fd94d955062010000909204909216926321df0da7928082019260209290918290030181600087803b1580156110d657600080fd5b505af11580156110ea573d6000803e3d6000fd5b505050506040513d602081101561110057600080fd5b50516040805160e060020a63ffffffff8516028152600160a060020a039092166004830152602482018790526044820188905251606480830192600092919082900301818387803b15801561115457600080fd5b505af1158015611168573d6000803e3d6000fd5b505050506111d0565b600480546040805160e160020a63387666830281529051600160a060020a03909216926370eccd0692828201926000929082900301818387803b1580156111b757600080fd5b505af11580156111cb573d6000803e3d6000fd5b505050505b600360029054906101000a9004600160a060020a0316600160a060020a031663a96f86686040518163ffffffff1660e060020a028152600401600060405180830381600087803b15801561122357600080fd5b505af1158015611237573d6000803e3d6000fd5b50506003805461ff001916610100179055505060405160008051602061139583398151915290600090a15b50505050565b600054600160a060020a0316331461127f57600080fd5b600160a060020a038116151561129457600080fd5b60008054604051600160a060020a03808516939216917f8be0079c531659141344cd1fd0a4f28419497f9722a3daafe3b4186f6b6457e091a360008054600160a060020a031916600160a060020a0392909216919091179055565b600480546040805160e060020a6307da68f50281529051600160a060020a03909216926307da68f592828201926000929082900301818387803b15801561133557600080fd5b505af1158015611349573d6000803e3d6000fd5b50506003805461ff0019166101001790555050565b600080831515611371576000915061138d565b5082820282848281151561138157fe5b041461138957fe5b8091505b509291505056006277f0d353db24d2814b0b4982c7ab25bbc2fb02e0487173834390ee3a5e104da165627a7a723058209a5d4b950cfcd343fb0d2beff3ac54e75b21e2539aa803cdb498154150ddcd6e00299f7a5bd4745f0b105c65cd89ae9fad1bc29117fe3c0b925a4e4b1c3e723f966ea165627a7a723058209f9d359bb589df489aa2350eccb27abd1497673335632aad1cba3ea93909bbb60029",
  "source": "pragma solidity ^0.4.18;\n\nimport \"./interfaces/IERC20.sol\";\nimport \"./interfaces/IDAO.sol\";\nimport \"./interfaces/IForecasting.sol\";\nimport \"./interfaces/IRewardsModel.sol\";\nimport \"./CrowdsaleToken.sol\";\nimport \"./factories/TokenFactory.sol\";\nimport \"./factories/ForecastingFactory.sol\";\nimport \"./factories/RewardsModelFactory.sol\";\nimport \"./factories/CrowdsaleFactory.sol\";\nimport \"./CrowdsaleController.sol\";\nimport \"./Crowdsale.sol\";\nimport \"./interfaces/ICrowdsaleProcessor.sol\";\nimport \"./forecasting/UserStorage.sol\";\n\ncontract DAO is IDAO {\n    uint256 constant CROWDSALE_COUNTDOWN_PERIOD = 45 * 1 days;\n\n    function DAO(\n        string _name,\n        string _tokenName,\n        string _tokenSymbol,\n        address _manager,\n        address _owner,\n        bytes32 _id,\n        bytes32 _infoHash\n    )\n        public\n        Version(\"1.1.0\")\n    {\n        name = _name;\n        manager = _manager;\n        owner = _owner;\n        id = _id;\n        infoHash = _infoHash;\n\n        uint256 nameLength = bytes(_tokenName).length;\n        require(nameLength > 0);\n\n        tokenName = _tokenName;\n\n        uint256 symbolLength = bytes(_tokenSymbol).length;\n        require(symbolLength <= 5 && symbolLength > 0);\n\n        tokenSymbol = _tokenSymbol;\n\n        stage = Stage.Initial;\n\n        DAO_CREATED(owner, name, tokenSymbol, infoHash);\n    }\n\n    function setupParameters(\n        address _forecastingFactory,\n        address _rewardsModelFactory,\n        address _tokenFactory,\n        address _crowdsaleFactory,\n        address _customCrowdsale,\n        address _userStorage,\n        uint256 _wingsReserveAmount\n    )\n        public\n        onlyManager()\n        requireStage(Stage.Initial)\n    {\n        tokenFactory = _tokenFactory;\n        forecastingFactory = _forecastingFactory;\n        rewardsModelFactory = _rewardsModelFactory;\n        userStorage = _userStorage;\n        crowdsaleFactory = _crowdsaleFactory;\n        wingsReserveAmount = _wingsReserveAmount;\n\n        if (_customCrowdsale != address(0)) {\n            // this address can be 0 in case of regular crowdsale\n            crowdsale = _customCrowdsale;\n            token = ICrowdsaleProcessor(_customCrowdsale).getToken();\n            IERC20 ccToken = IERC20(token);\n            DAO_SETUP(crowdsale, token, ccToken.decimals());\n        } else {\n            DAO_SETUP(0, 0, 0);\n        }\n    }\n\n    function createModel()\n        public\n        onlyOwner()\n        hasntStopped()\n        requireStage(Stage.Initial)\n    {\n        rewardsModel = RewardsModelFactory(rewardsModelFactory).create();\n        RewardsModel(rewardsModel).transferOwnership(address(this));\n\n        stage = Stage.ModelCreated;\n\n        DAO_MODEL_CREATED(rewardsModel);\n    }\n\n    function createForecasting(\n        uint256 _forecastingDurationInHours,\n        uint256 _ethRewardPart,\n        uint256 _tokenRewardPart\n    )\n        public\n        onlyOwner()\n        hasntStopped()\n        requireStage(Stage.ModelCreated)\n    {\n        require(_tokenRewardPart > 0);\n\n        forecasting = ForecastingFactory(forecastingFactory).create(\n            msg.sender, // author\n            manager, // XXX: set Wings contract address as foundation\n            userStorage,\n            rewardsModel,\n            _forecastingDurationInHours\n        );\n\n        ERC20 wingsToken = UserStorage(userStorage).token();\n        require(wingsToken.transfer(forecasting, wingsReserveAmount));\n\n        IForecasting(forecasting).setWingsDeposit(wingsReserveAmount);\n\n        // model now belongs to Forecasting\n        Ownable(rewardsModel).transferOwnership(forecasting);\n\n        ethRewardPart = _ethRewardPart;\n        tokenRewardPart = _tokenRewardPart;\n\n        stage = Stage.ForecastingCreated;\n\n        DAO_FORECASTING_CREATED(forecasting, _ethRewardPart, _tokenRewardPart);\n    }\n\n    function startForecasting(\n        uint256 _bucketMin,\n        uint256 _bucketMax,\n        uint256 _bucketStep\n    )\n        public\n        onlyOwner()\n        hasntStopped()\n        requireStage(Stage.ForecastingCreated)\n    {\n        IForecasting fc = IForecasting(forecasting);\n\n        fc.createFlatscaleBuckets(_bucketMin, _bucketMax, _bucketStep);\n\n        startTimestamp = block.timestamp;\n        endTimestamp = startTimestamp + (fc.duration() * 1 hours);\n        crowdsaleStartDeadline = endTimestamp + CROWDSALE_COUNTDOWN_PERIOD;\n\n        fc.startForecastingPeriod(startTimestamp);\n\n        stage = Stage.ForecastingStarted;\n\n        DAO_STARTED(0, _bucketMin, _bucketMax);\n    }\n\n    // Closes forecasting after forecasting period. Calls Forecasting.checkForSpam(),\n    // On success, transfers state to ForecastingClosed, if failed: to IsSpam\n    function closeForecasting()\n        public\n        requireStage(Stage.ForecastingStarted)\n    {\n        IForecasting fc = IForecasting(forecasting);\n        fc.checkForSpam();\n        stage = (fc.stage() == IForecasting.Stage.IsSpam) ? Stage.IsSpam : Stage.ForecastingClosed;\n    }\n\n    // Should be called if crowdsale hasn't been created before deadline\n    function crowdsaleTimeIsOver()\n        public\n    {\n        require(block.timestamp > crowdsaleStartDeadline);\n        require(stage == Stage.ForecastingClosed || stage == Stage.TokenCreated);\n        IForecasting(forecasting).stop();\n\n        stage = Stage.CrowdsaleTimeIsOver;\n    }\n\n    function createToken(\n        uint8 _decimals\n    )\n        public\n        onlyOwner()\n        hasntStopped()\n        requireStage(Stage.ForecastingClosed)\n    {\n        // crowdsale != 0 means custom crowdsale\n        require(crowdsale == address(0));\n\n        token = TokenFactory(tokenFactory).create(\n            tokenName,\n            tokenSymbol,\n            _decimals\n          );\n\n        stage = Stage.TokenCreated;\n\n        DAO_TOKEN_CREATE(token, tokenName, tokenSymbol, _decimals);\n    }\n\n    function createCrowdsale(\n        uint256 _minimalGoal,\n        uint256 _hardCap,\n        uint256 _prices1to4,\n        uint256 _prices5to8\n    )\n        public\n        onlyOwner()\n        hasntStopped()\n        requireStage(Stage.TokenCreated)\n    {\n        address daoCrowdsale = CrowdsaleFactory(crowdsaleFactory).create(\n          token,\n          forecasting\n        );\n\n        Crowdsale(daoCrowdsale).changeGoals(_minimalGoal, _hardCap);\n        Crowdsale(daoCrowdsale).updatePrices(_prices1to4, _prices5to8);\n\n        Ownable(token).transferOwnership(daoCrowdsale);\n        Ownable(daoCrowdsale).transferOwnership(msg.sender);\n\n        crowdsaleController = new CrowdsaleController(\n          crowdsaleStartDeadline,\n          msg.sender,\n          address(this),\n          ethRewardPart,\n          tokenRewardPart,\n          daoCrowdsale,\n          forecasting,\n          false\n        );\n\n        HasManager(daoCrowdsale).transferManager(address(crowdsaleController));\n\n        Ownable(forecasting).transferOwnership(crowdsaleController);\n        HasManager(forecasting).transferManager(crowdsaleController);\n\n        crowdsale = daoCrowdsale;\n        stage = Stage.CrowdsaleCreated;\n\n        DAO_CROWDSALE_CREATED(daoCrowdsale, crowdsaleController, _minimalGoal, _hardCap, _prices1to4, _prices5to8);\n    }\n\n    function createCustomCrowdsale()\n        public\n        onlyOwner()\n        hasntStopped()\n        requireStage(Stage.ForecastingClosed)\n    {\n        // crowdsale != 0 means custom crowdsale\n        require(crowdsale != address(0));\n\n        crowdsaleController = new CrowdsaleController(\n          crowdsaleStartDeadline,\n          owner,\n          address(this),\n          ethRewardPart,\n          tokenRewardPart,\n          crowdsale,\n          forecasting,\n          true\n        );\n\n        ICrowdsaleProcessor(crowdsale).transferManager(address(crowdsaleController));\n\n        Ownable(forecasting).transferOwnership(crowdsaleController);\n        HasManager(forecasting).transferManager(crowdsaleController);\n\n        stage = Stage.CrowdsaleCreated;\n\n        DAO_CUSTOM_CROWDSALE_CREATED(crowdsale, crowdsaleController);\n    }\n\n    /*\n        Update project media asset\n    */\n    function update(bytes32 _infoHash) public onlyOwner() inTime() hasntStopped()   {\n        infoHash = _infoHash;\n        DAO_UPDATE_INFO(infoHash);\n    }\n\n    /*\n        Stop\n    */\n    function stop() public onlyOwner() hasntStopped() {\n        if (crowdsaleController != address(0)) {\n          CrowdsaleController(crowdsaleController).stop();\n        } else if (forecasting != address(0)) {\n          IForecasting(forecasting).stop();\n        } else {\n          ERC20 wingsToken = UserStorage(userStorage).token();\n          // manager is Wings contract, XXX: and foundation\n          require(wingsToken.transfer(manager, wingsReserveAmount));\n        }\n\n        super.stop();\n        DAO_STOPPED(); // XXX: sum refunded to foundation here in event?\n    }\n\n    function setTime(uint /*_start*/, uint /*_end*/) public onlyManager() before() {\n        revert();\n    }\n}\n",
  "sourcePath": "/Users/solidity/Desktop/github/private-contracts/contracts/DAO.sol",
  "compiler": {
    "name": "solc",
    "version": "0.4.24+commit.e67f0147.Emscripten.clang"
  },
  "schemaVersion": "2.0.0",
  "updatedAt": "2018-06-13T08:55:56.621Z"
}