{
  "contractName": "Forecasting",
  "abi": [
    {
      "constant": true,
      "inputs": [],
      "name": "duration",
      "outputs": [
        {
          "name": "",
          "type": "uint256"
        }
      ],
      "payable": false,
      "stateMutability": "view",
      "type": "function"
    },
    {
      "constant": true,
      "inputs": [],
      "name": "spamThreshold",
      "outputs": [
        {
          "name": "",
          "type": "uint256"
        }
      ],
      "payable": false,
      "stateMutability": "view",
      "type": "function"
    },
    {
      "constant": true,
      "inputs": [],
      "name": "wingsToken",
      "outputs": [
        {
          "name": "",
          "type": "address"
        }
      ],
      "payable": false,
      "stateMutability": "view",
      "type": "function"
    },
    {
      "constant": true,
      "inputs": [
        {
          "name": "",
          "type": "address"
        }
      ],
      "name": "forecasts",
      "outputs": [
        {
          "name": "amount",
          "type": "uint256"
        },
        {
          "name": "originalAmount",
          "type": "uint256"
        },
        {
          "name": "wingsLocked",
          "type": "uint256"
        },
        {
          "name": "created_at",
          "type": "uint256"
        },
        {
          "name": "updated_at",
          "type": "uint256"
        },
        {
          "name": "weight",
          "type": "uint64"
        },
        {
          "name": "rating",
          "type": "uint64"
        },
        {
          "name": "state",
          "type": "uint8"
        },
        {
          "name": "message",
          "type": "bytes32"
        },
        {
          "name": "rewardPending",
          "type": "uint256"
        }
      ],
      "payable": false,
      "stateMutability": "view",
      "type": "function"
    },
    {
      "constant": true,
      "inputs": [],
      "name": "ethReward",
      "outputs": [
        {
          "name": "",
          "type": "uint256"
        }
      ],
      "payable": false,
      "stateMutability": "view",
      "type": "function"
    },
    {
      "constant": true,
      "inputs": [],
      "name": "foundation",
      "outputs": [
        {
          "name": "",
          "type": "address"
        }
      ],
      "payable": false,
      "stateMutability": "view",
      "type": "function"
    },
    {
      "constant": true,
      "inputs": [],
      "name": "manager",
      "outputs": [
        {
          "name": "",
          "type": "address"
        }
      ],
      "payable": false,
      "stateMutability": "view",
      "type": "function"
    },
    {
      "constant": true,
      "inputs": [
        {
          "name": "",
          "type": "uint256"
        }
      ],
      "name": "userForecasts",
      "outputs": [
        {
          "name": "",
          "type": "address"
        }
      ],
      "payable": false,
      "stateMutability": "view",
      "type": "function"
    },
    {
      "constant": true,
      "inputs": [],
      "name": "projectToken",
      "outputs": [
        {
          "name": "",
          "type": "address"
        }
      ],
      "payable": false,
      "stateMutability": "view",
      "type": "function"
    },
    {
      "constant": true,
      "inputs": [],
      "name": "ethBalance",
      "outputs": [
        {
          "name": "",
          "type": "uint256"
        }
      ],
      "payable": false,
      "stateMutability": "view",
      "type": "function"
    },
    {
      "constant": true,
      "inputs": [],
      "name": "deviation",
      "outputs": [
        {
          "name": "",
          "type": "uint256"
        }
      ],
      "payable": false,
      "stateMutability": "view",
      "type": "function"
    },
    {
      "constant": true,
      "inputs": [],
      "name": "tokenReward",
      "outputs": [
        {
          "name": "",
          "type": "uint256"
        }
      ],
      "payable": false,
      "stateMutability": "view",
      "type": "function"
    },
    {
      "constant": true,
      "inputs": [],
      "name": "userStorage",
      "outputs": [
        {
          "name": "",
          "type": "address"
        }
      ],
      "payable": false,
      "stateMutability": "view",
      "type": "function"
    },
    {
      "constant": true,
      "inputs": [],
      "name": "semanticVersion",
      "outputs": [
        {
          "name": "",
          "type": "string"
        }
      ],
      "payable": false,
      "stateMutability": "view",
      "type": "function"
    },
    {
      "constant": true,
      "inputs": [],
      "name": "owner",
      "outputs": [
        {
          "name": "",
          "type": "address"
        }
      ],
      "payable": false,
      "stateMutability": "view",
      "type": "function"
    },
    {
      "constant": true,
      "inputs": [],
      "name": "totalWeight",
      "outputs": [
        {
          "name": "",
          "type": "uint256"
        }
      ],
      "payable": false,
      "stateMutability": "view",
      "type": "function"
    },
    {
      "constant": true,
      "inputs": [],
      "name": "totalWingsLocked",
      "outputs": [
        {
          "name": "",
          "type": "uint256"
        }
      ],
      "payable": false,
      "stateMutability": "view",
      "type": "function"
    },
    {
      "constant": true,
      "inputs": [],
      "name": "minAmount",
      "outputs": [
        {
          "name": "",
          "type": "uint256"
        }
      ],
      "payable": false,
      "stateMutability": "view",
      "type": "function"
    },
    {
      "constant": true,
      "inputs": [],
      "name": "wingsRewardForSpamReportRemainder",
      "outputs": [
        {
          "name": "",
          "type": "uint256"
        }
      ],
      "payable": false,
      "stateMutability": "view",
      "type": "function"
    },
    {
      "constant": true,
      "inputs": [],
      "name": "forecastsCount",
      "outputs": [
        {
          "name": "",
          "type": "uint256"
        }
      ],
      "payable": false,
      "stateMutability": "view",
      "type": "function"
    },
    {
      "constant": true,
      "inputs": [],
      "name": "author",
      "outputs": [
        {
          "name": "",
          "type": "address"
        }
      ],
      "payable": false,
      "stateMutability": "view",
      "type": "function"
    },
    {
      "constant": true,
      "inputs": [],
      "name": "endTimestamp",
      "outputs": [
        {
          "name": "",
          "type": "uint256"
        }
      ],
      "payable": false,
      "stateMutability": "view",
      "type": "function"
    },
    {
      "constant": true,
      "inputs": [],
      "name": "totalFRForSpam",
      "outputs": [
        {
          "name": "",
          "type": "uint256"
        }
      ],
      "payable": false,
      "stateMutability": "view",
      "type": "function"
    },
    {
      "constant": true,
      "inputs": [],
      "name": "totalForecastsForSpam",
      "outputs": [
        {
          "name": "",
          "type": "uint256"
        }
      ],
      "payable": false,
      "stateMutability": "view",
      "type": "function"
    },
    {
      "constant": false,
      "inputs": [
        {
          "name": "_newManager",
          "type": "address"
        }
      ],
      "name": "transferManager",
      "outputs": [],
      "payable": false,
      "stateMutability": "nonpayable",
      "type": "function"
    },
    {
      "constant": true,
      "inputs": [],
      "name": "stage",
      "outputs": [
        {
          "name": "",
          "type": "uint8"
        }
      ],
      "payable": false,
      "stateMutability": "view",
      "type": "function"
    },
    {
      "constant": true,
      "inputs": [],
      "name": "rewardsModel",
      "outputs": [
        {
          "name": "",
          "type": "address"
        }
      ],
      "payable": false,
      "stateMutability": "view",
      "type": "function"
    },
    {
      "constant": true,
      "inputs": [],
      "name": "totalFR",
      "outputs": [
        {
          "name": "",
          "type": "uint256"
        }
      ],
      "payable": false,
      "stateMutability": "view",
      "type": "function"
    },
    {
      "constant": true,
      "inputs": [],
      "name": "startTimestamp",
      "outputs": [
        {
          "name": "",
          "type": "uint256"
        }
      ],
      "payable": false,
      "stateMutability": "view",
      "type": "function"
    },
    {
      "constant": true,
      "inputs": [],
      "name": "valueOfPoll",
      "outputs": [
        {
          "name": "",
          "type": "uint256"
        }
      ],
      "payable": false,
      "stateMutability": "view",
      "type": "function"
    },
    {
      "constant": false,
      "inputs": [
        {
          "name": "newOwner",
          "type": "address"
        }
      ],
      "name": "transferOwnership",
      "outputs": [],
      "payable": false,
      "stateMutability": "nonpayable",
      "type": "function"
    },
    {
      "constant": true,
      "inputs": [],
      "name": "forecastsCancelled",
      "outputs": [
        {
          "name": "",
          "type": "uint256"
        }
      ],
      "payable": false,
      "stateMutability": "view",
      "type": "function"
    },
    {
      "constant": true,
      "inputs": [],
      "name": "wingsRewardForSpamReport",
      "outputs": [
        {
          "name": "",
          "type": "uint256"
        }
      ],
      "payable": false,
      "stateMutability": "view",
      "type": "function"
    },
    {
      "inputs": [
        {
          "name": "_owner",
          "type": "address"
        },
        {
          "name": "_manager",
          "type": "address"
        },
        {
          "name": "_author",
          "type": "address"
        },
        {
          "name": "_foundation",
          "type": "address"
        },
        {
          "name": "_userStorage",
          "type": "address"
        },
        {
          "name": "_rewardsModel",
          "type": "address"
        },
        {
          "name": "_durationInHours",
          "type": "uint256"
        },
        {
          "name": "_spamThreshold",
          "type": "uint256"
        },
        {
          "name": "_deviation",
          "type": "uint256"
        }
      ],
      "payable": false,
      "stateMutability": "nonpayable",
      "type": "constructor"
    },
    {
      "payable": true,
      "stateMutability": "payable",
      "type": "fallback"
    },
    {
      "anonymous": false,
      "inputs": [
        {
          "indexed": true,
          "name": "dao",
          "type": "address"
        },
        {
          "indexed": false,
          "name": "duration",
          "type": "uint256"
        }
      ],
      "name": "FORECASTING_CREATED",
      "type": "event"
    },
    {
      "anonymous": false,
      "inputs": [
        {
          "indexed": false,
          "name": "startTimestamp",
          "type": "uint256"
        },
        {
          "indexed": false,
          "name": "endTimestamp",
          "type": "uint256"
        }
      ],
      "name": "FORECASTING_SET_TIMEFRAME",
      "type": "event"
    },
    {
      "anonymous": false,
      "inputs": [
        {
          "indexed": false,
          "name": "forecastsCount",
          "type": "uint256"
        }
      ],
      "name": "FORECASTING_STOPPED",
      "type": "event"
    },
    {
      "anonymous": false,
      "inputs": [
        {
          "indexed": true,
          "name": "owner",
          "type": "address"
        },
        {
          "indexed": false,
          "name": "wings",
          "type": "uint256"
        },
        {
          "indexed": false,
          "name": "FR",
          "type": "uint64"
        },
        {
          "indexed": false,
          "name": "weight",
          "type": "uint64"
        },
        {
          "indexed": false,
          "name": "amount",
          "type": "uint256"
        },
        {
          "indexed": false,
          "name": "realAmount",
          "type": "uint256"
        },
        {
          "indexed": false,
          "name": "message",
          "type": "bytes32"
        }
      ],
      "name": "FORECAST_ADD",
      "type": "event"
    },
    {
      "anonymous": false,
      "inputs": [
        {
          "indexed": true,
          "name": "owner",
          "type": "address"
        },
        {
          "indexed": false,
          "name": "wings",
          "type": "uint256"
        },
        {
          "indexed": false,
          "name": "amount",
          "type": "uint256"
        },
        {
          "indexed": false,
          "name": "realAmount",
          "type": "uint256"
        },
        {
          "indexed": false,
          "name": "weight",
          "type": "uint64"
        },
        {
          "indexed": false,
          "name": "message",
          "type": "bytes32"
        }
      ],
      "name": "FORECAST_CHANGE",
      "type": "event"
    },
    {
      "anonymous": false,
      "inputs": [
        {
          "indexed": true,
          "name": "owner",
          "type": "address"
        },
        {
          "indexed": false,
          "name": "wings",
          "type": "uint256"
        },
        {
          "indexed": false,
          "name": "weight",
          "type": "uint256"
        }
      ],
      "name": "FORECAST_ADD_WINGS",
      "type": "event"
    },
    {
      "anonymous": false,
      "inputs": [
        {
          "indexed": true,
          "name": "owner",
          "type": "address"
        },
        {
          "indexed": false,
          "name": "dFR",
          "type": "int32"
        }
      ],
      "name": "FORECAST_CLOSE",
      "type": "event"
    },
    {
      "anonymous": false,
      "inputs": [
        {
          "indexed": true,
          "name": "owner",
          "type": "address"
        },
        {
          "indexed": false,
          "name": "dFR",
          "type": "int32"
        }
      ],
      "name": "FORECAST_CANCEL",
      "type": "event"
    },
    {
      "anonymous": false,
      "inputs": [
        {
          "indexed": false,
          "name": "spamFactor",
          "type": "uint256"
        }
      ],
      "name": "FORECAST_DETECT_SPAM",
      "type": "event"
    },
    {
      "anonymous": false,
      "inputs": [],
      "name": "FORECAST_NOT_DETECT_SPAM",
      "type": "event"
    },
    {
      "anonymous": false,
      "inputs": [
        {
          "indexed": false,
          "name": "valueOfPoll",
          "type": "uint256"
        }
      ],
      "name": "FORECAST_VALUE_OF_POLL",
      "type": "event"
    },
    {
      "anonymous": false,
      "inputs": [
        {
          "indexed": false,
          "name": "rewardsDistributed",
          "type": "bool"
        }
      ],
      "name": "FORECAST_STATS_MADE",
      "type": "event"
    },
    {
      "anonymous": false,
      "inputs": [
        {
          "indexed": true,
          "name": "account",
          "type": "address"
        },
        {
          "indexed": false,
          "name": "reward",
          "type": "uint256"
        },
        {
          "indexed": false,
          "name": "dFR",
          "type": "int32"
        }
      ],
      "name": "FORECAST_RESULT_TAKE",
      "type": "event"
    },
    {
      "anonymous": false,
      "inputs": [
        {
          "indexed": true,
          "name": "account",
          "type": "address"
        },
        {
          "indexed": false,
          "name": "rewardEth",
          "type": "uint256"
        },
        {
          "indexed": false,
          "name": "rewardToken",
          "type": "uint256"
        }
      ],
      "name": "FORECAST_REWARD_TAKE",
      "type": "event"
    },
    {
      "anonymous": false,
      "inputs": [
        {
          "indexed": true,
          "name": "account",
          "type": "address"
        },
        {
          "indexed": false,
          "name": "amount",
          "type": "uint256"
        }
      ],
      "name": "FORECAST_DEPOSIT_WITHDRAW",
      "type": "event"
    },
    {
      "anonymous": false,
      "inputs": [],
      "name": "FORECAST_READY_TO_GIVE_REWARDS",
      "type": "event"
    },
    {
      "anonymous": false,
      "inputs": [
        {
          "indexed": true,
          "name": "previousOwner",
          "type": "address"
        },
        {
          "indexed": true,
          "name": "newOwner",
          "type": "address"
        }
      ],
      "name": "OwnershipTransferred",
      "type": "event"
    },
    {
      "constant": false,
      "inputs": [],
      "name": "stop",
      "outputs": [],
      "payable": false,
      "stateMutability": "nonpayable",
      "type": "function"
    },
    {
      "constant": false,
      "inputs": [
        {
          "name": "_wingsReserveAmount",
          "type": "uint256"
        }
      ],
      "name": "setWingsDeposit",
      "outputs": [],
      "payable": false,
      "stateMutability": "nonpayable",
      "type": "function"
    },
    {
      "constant": false,
      "inputs": [
        {
          "name": "_minAmount",
          "type": "uint256"
        },
        {
          "name": "_maxAmount",
          "type": "uint256"
        },
        {
          "name": "_step",
          "type": "uint256"
        }
      ],
      "name": "createFlatscaleBuckets",
      "outputs": [],
      "payable": false,
      "stateMutability": "nonpayable",
      "type": "function"
    },
    {
      "constant": false,
      "inputs": [
        {
          "name": "_startTimestamp",
          "type": "uint256"
        }
      ],
      "name": "startForecastingPeriod",
      "outputs": [],
      "payable": false,
      "stateMutability": "nonpayable",
      "type": "function"
    },
    {
      "constant": false,
      "inputs": [
        {
          "name": "",
          "type": "uint256"
        },
        {
          "name": "",
          "type": "uint256"
        }
      ],
      "name": "setTime",
      "outputs": [],
      "payable": false,
      "stateMutability": "nonpayable",
      "type": "function"
    },
    {
      "constant": false,
      "inputs": [
        {
          "name": "_amount",
          "type": "uint256"
        },
        {
          "name": "_message",
          "type": "bytes32"
        }
      ],
      "name": "addForecast",
      "outputs": [],
      "payable": false,
      "stateMutability": "nonpayable",
      "type": "function"
    },
    {
      "constant": false,
      "inputs": [
        {
          "name": "_amount",
          "type": "uint256"
        },
        {
          "name": "_message",
          "type": "bytes32"
        }
      ],
      "name": "changeForecast",
      "outputs": [],
      "payable": false,
      "stateMutability": "nonpayable",
      "type": "function"
    },
    {
      "constant": false,
      "inputs": [
        {
          "name": "_amount",
          "type": "uint256"
        }
      ],
      "name": "addNewWings",
      "outputs": [],
      "payable": false,
      "stateMutability": "nonpayable",
      "type": "function"
    },
    {
      "constant": false,
      "inputs": [],
      "name": "closeForecast",
      "outputs": [],
      "payable": false,
      "stateMutability": "nonpayable",
      "type": "function"
    },
    {
      "constant": false,
      "inputs": [],
      "name": "checkForSpam",
      "outputs": [],
      "payable": false,
      "stateMutability": "nonpayable",
      "type": "function"
    },
    {
      "constant": false,
      "inputs": [
        {
          "name": "_amount",
          "type": "uint256"
        },
        {
          "name": "_reward",
          "type": "uint256"
        },
        {
          "name": "_crowdsaleSucceeded",
          "type": "bool"
        }
      ],
      "name": "makeStats",
      "outputs": [],
      "payable": false,
      "stateMutability": "nonpayable",
      "type": "function"
    },
    {
      "constant": false,
      "inputs": [
        {
          "name": "_projectToken",
          "type": "address"
        },
        {
          "name": "_ethReward",
          "type": "uint256"
        },
        {
          "name": "_tokenReward",
          "type": "uint256"
        }
      ],
      "name": "prepareToGiveRewards",
      "outputs": [],
      "payable": false,
      "stateMutability": "nonpayable",
      "type": "function"
    },
    {
      "constant": false,
      "inputs": [],
      "name": "takeReward",
      "outputs": [],
      "payable": false,
      "stateMutability": "nonpayable",
      "type": "function"
    },
    {
      "constant": true,
      "inputs": [
        {
          "name": "_user",
          "type": "address"
        }
      ],
      "name": "getForecastStateAndResults",
      "outputs": [
        {
          "name": "forecastState",
          "type": "uint8"
        },
        {
          "name": "dFR",
          "type": "int32"
        },
        {
          "name": "rewardInEth",
          "type": "uint256"
        },
        {
          "name": "rewardInProjectToken",
          "type": "uint256"
        },
        {
          "name": "rewardInWings",
          "type": "uint256"
        }
      ],
      "payable": false,
      "stateMutability": "view",
      "type": "function"
    },
    {
      "constant": true,
      "inputs": [
        {
          "name": "_user",
          "type": "address"
        }
      ],
      "name": "getByUser",
      "outputs": [
        {
          "name": "",
          "type": "uint256"
        },
        {
          "name": "",
          "type": "uint256"
        },
        {
          "name": "",
          "type": "uint64"
        },
        {
          "name": "",
          "type": "uint64"
        },
        {
          "name": "",
          "type": "uint8"
        },
        {
          "name": "",
          "type": "uint256"
        },
        {
          "name": "",
          "type": "bytes32"
        },
        {
          "name": "",
          "type": "uint256"
        },
        {
          "name": "",
          "type": "uint256"
        }
      ],
      "payable": false,
      "stateMutability": "view",
      "type": "function"
    },
    {
      "constant": true,
      "inputs": [
        {
          "name": "_index",
          "type": "uint256"
        }
      ],
      "name": "get",
      "outputs": [
        {
          "name": "",
          "type": "address"
        },
        {
          "name": "",
          "type": "uint256"
        },
        {
          "name": "",
          "type": "uint256"
        },
        {
          "name": "",
          "type": "uint64"
        },
        {
          "name": "",
          "type": "uint64"
        },
        {
          "name": "",
          "type": "uint8"
        },
        {
          "name": "",
          "type": "uint256"
        },
        {
          "name": "",
          "type": "bytes32"
        },
        {
          "name": "",
          "type": "uint256"
        },
        {
          "name": "",
          "type": "uint256"
        }
      ],
      "payable": false,
      "stateMutability": "view",
      "type": "function"
    },
    {
      "constant": true,
      "inputs": [
        {
          "name": "_minimalGoal",
          "type": "uint256"
        },
        {
          "name": "_hardCap",
          "type": "uint256"
        }
      ],
      "name": "approveCrowdsaleRange",
      "outputs": [],
      "payable": false,
      "stateMutability": "view",
      "type": "function"
    },
    {
      "constant": true,
      "inputs": [
        {
          "name": "_totalCollected",
          "type": "uint256"
        }
      ],
      "name": "fitCollectedValueIntoRange",
      "outputs": [
        {
          "name": "",
          "type": "uint256"
        }
      ],
      "payable": false,
      "stateMutability": "view",
      "type": "function"
    },
    {
      "constant": true,
      "inputs": [],
      "name": "getFRCancelForecastChange",
      "outputs": [
        {
          "name": "dFR",
          "type": "int32"
        }
      ],
      "payable": false,
      "stateMutability": "view",
      "type": "function"
    }
  ],
  "bytecode": "0x60806040523480156200001157600080fd5b506040516101208062003b078339810160408181528251602080850151838601516060870151608088015160a089015160c08a015160e08b0151610100909b0151898b019099526005808b527f312e382e30000000000000000000000000000000000000000000000000000000978b0197885260008054600160a060020a03191633179055979a9599949893979296919590949093929091620000b8916004919062000284565b50508260788110158015620000cf57506101688111155b1515620000db57600080fd5b6103e8831115620000eb57600080fd5b6103e882118015620000fe57506107d082105b15156200010a57600080fd5b601d8054600160a060020a031916600160a060020a038881169190911791829055604080517ffc0c546a0000000000000000000000000000000000000000000000000000000081529051929091169163fc0c546a916004808201926020929091908290030181600087803b1580156200018257600080fd5b505af115801562000197573d6000803e3d6000fd5b505050506040513d6020811015620001ae57600080fd5b505160128054600160a060020a0319908116600160a060020a03938416179091556000805482168d84161781556001805483168d8516179055601b805483168c8516179055601c805483168b85161790556007879055601e8054909216928816929092179055600684905560168390556005805461ff0019166101008302179055506000546007546040805191825251600160a060020a03909216917f730ea73850c5917ca2cf48d8b2366c726063b2ee1b2058e0f97f2fc6c041d1fe9181900360200190a25050505050505050505062000329565b828054600181600116156101000203166002900490600052602060002090601f016020900481019282601f10620002c757805160ff1916838001178555620002f7565b82800160010185558215620002f7579182015b82811115620002f7578251825591602001919060010190620002da565b506200030592915062000309565b5090565b6200032691905b8082111562000305576000815560010162000310565b90565b6137ce80620003396000396000f3006080604052600436106102585763ffffffff60e060020a60003504166307da68f581146102625780630fb5a6b41461027957806314b89c8f146102a0578063318a3941146102b55780633350ae36146102d0578063378867d6146102e85780633d094829146103195780633e05e01b146103c35780633f7f96d1146103d857806341353a6e146103f857806341fbb05014610416578063481c6a751461042b5780634a1afccf146104405780634b60ce77146104585780634e6630b01461046d578063639097a1146104825780636e66f6e91461049757806370eccd06146104ac578063750657ae146104c157806375e58079146105285780637deb349b1461053d5780637e24f8791461055857806388b9022f146105705780638956e05d146105fa5780638a11cffa1461060f5780638d5cfdd8146106245780638da5cb5b1461063f5780638eb62752146106545780639507d39a1461068257806396c82e57146107025780639797b9fe146107175780639b2cb5d81461072c578063a0355eca14610741578063a1685d9f1461075c578063a620fcc714610771578063a6c3e6b914610786578063a85adeab1461079b578063ac77d9fa146107b0578063ae0fd5ac146107c5578063ba0e930a146107da578063c040e6b8146107fb578063c783eb0a14610834578063d36d5d9514610849578063d67bf3791461085e578063da12b4ce146108d4578063e4446b5e146108ec578063e6fd48bc14610904578063eba20b8f14610919578063f2fde38b1461092e578063f35fd94d1461094f578063f440e79314610976578063f9c0ccad1461098b575b6019805434019055005b34801561026e57600080fd5b506102776109a0565b005b34801561028557600080fd5b5061028e610a77565b60408051918252519081900360200190f35b3480156102ac57600080fd5b5061028e610a7d565b3480156102c157600080fd5b50610277600435602435610a83565b3480156102dc57600080fd5b5061028e600435610e2e565b3480156102f457600080fd5b506102fd610eb0565b60408051600160a060020a039092168252519081900360200190f35b34801561032557600080fd5b5061033a600160a060020a0360043516610ebf565b604051808b81526020018a8152602001898152602001888152602001878152602001866001604060020a03166001604060020a03168152602001856001604060020a03166001604060020a0316815260200184600381111561039857fe5b60ff168152602081019390935250604080830191909152519081900360600198509650505050505050f35b3480156103cf57600080fd5b5061028e610f23565b3480156103e457600080fd5b506102776004356024356044351515610f29565b34801561040457600080fd5b506102776004356024356044356111a0565b34801561042257600080fd5b506102fd611259565b34801561043757600080fd5b506102fd611268565b34801561044c57600080fd5b506102fd600435611277565b34801561046457600080fd5b506102fd611292565b34801561047957600080fd5b5061028e6112a1565b34801561048e57600080fd5b5061028e6112a7565b3480156104a357600080fd5b5061028e6112ad565b3480156104b857600080fd5b506102776112b3565b3480156104cd57600080fd5b506104e2600160a060020a0360043516611830565b604051808660038111156104f257fe5b60ff1681526020018560030b60030b81526020018481526020018381526020018281526020019550505050505060405180910390f35b34801561053457600080fd5b506102fd611b65565b34801561054957600080fd5b50610277600435602435611b74565b34801561056457600080fd5b50610277600435611f0a565b34801561057c57600080fd5b50610585611fce565b6040805160208082528351818301528351919283929083019185019080838360005b838110156105bf5781810151838201526020016105a7565b50505050905090810190601f1680156105ec5780820380516001836020036101000a031916815260200191505b509250505060405180910390f35b34801561060657600080fd5b5061027761205c565b34801561061b57600080fd5b50610277612265565b34801561063057600080fd5b5061027760043560243561231a565b34801561064b57600080fd5b506102fd61238d565b34801561066057600080fd5b5061066961239c565b60408051600392830b90920b8252519081900360200190f35b34801561068e57600080fd5b5061069a60043561246f565b60408051600160a060020a03909b168b5260208b0199909952898901979097526001604060020a0395861660608a015293909416608088015260ff90911660a087015260c086015260e085019190915261010084015261012083015251908190036101400190f35b34801561070e57600080fd5b5061028e61251b565b34801561072357600080fd5b5061028e612521565b34801561073857600080fd5b5061028e612527565b34801561074d57600080fd5b5061027760043560243561252d565b34801561076857600080fd5b5061028e612563565b34801561077d57600080fd5b5061028e612569565b34801561079257600080fd5b506102fd61256f565b3480156107a757600080fd5b5061028e61257e565b3480156107bc57600080fd5b5061028e612584565b3480156107d157600080fd5b5061028e61258a565b3480156107e657600080fd5b50610277600160a060020a0360043516612590565b34801561080757600080fd5b506108106125de565b6040518082600981111561082057fe5b60ff16815260200191505060405180910390f35b34801561084057600080fd5b506102fd6125ec565b34801561085557600080fd5b5061028e6125fb565b34801561086a57600080fd5b5061087f600160a060020a0360043516612601565b60408051998a5260208a01989098526001604060020a039687168989015294909516606088015260ff909216608087015260a086015260c085015260e084019190915261010083015251908190036101200190f35b3480156108e057600080fd5b50610277600435612695565b3480156108f857600080fd5b5061027760043561273c565b34801561091057600080fd5b5061028e6129b0565b34801561092557600080fd5b5061028e6129b6565b34801561093a57600080fd5b50610277600160a060020a03600435166129bc565b34801561095b57600080fd5b50610277600160a060020a0360043516602435604435612a43565b34801561098257600080fd5b5061028e612c86565b34801561099757600080fd5b5061028e612c8c565b6001546000908190600160a060020a031633146109bc57600080fd5b600554600490610100900460ff1660098111156109d557fe5b60ff16106109e257600080fd5b600b54600a546109f79163ffffffff612c9216565b91506000821115610a2957506013548181811515610a1157fe5b046013558181811515610a2057fe5b06601455610a2f565b6000600a555b6005805461ff001916610900179055600a5460408051918252517f0ab6d52c42be1f53d2d83c24df8f9075324dcef1a6e1d8886dac18a40a2055ab9181900360200190a15050565b60075481565b60065481565b6000808080426001600554610100900460ff166009811115610aa157fe5b148015610aaf575060035481105b8015610abd57506002548110155b1515610ac857600080fd5b336000908152600860205260409020945060016005860154608060020a900460ff166003811115610af557fe5b14610aff57600080fd5b601d546040805160e060020a639bf3f7e50281523360048201526000602482018190529151600160a060020a0390931692639bf3f7e592604480840193602093929083900390910190829087803b158015610b5957600080fd5b505af1158015610b6d573d6000803e3d6000fd5b505050506040513d6020811015610b8357600080fd5b50516002860154909450841015610b9657fe5b8454158015610bba575060058501546000604060020a9091046001604060020a0316115b15610bfa576005850154600f54610be091604060020a90046001604060020a0316612c92565b600f55601054600010610bef57fe5b601080546000190190555b601e54855460058701546002546003546040805160e260020a632836e1050281526004810195909552602485018d9052604485018a90526001604060020a038085166064870152604060020a909404909316608485015260a484019190915260c48301528051600160a060020a039093169263a0db84149260e48082019392918290030181600087803b158015610c9057600080fd5b505af1158015610ca4573d6000803e3d6000fd5b505050506040513d6040811015610cba57600080fd5b5080516020909101519086556002860154600c54919450610cf3918691610ce7919063ffffffff612c9216565b9063ffffffff612ca416565b600c556005850154600d54610d20916001604060020a0380871692610ce79290911663ffffffff612c9216565b600d55600185018790556002850184905560058501805467ffffffffffffffff19166001604060020a0385161790554260048601819055600686018790558554909250158015610d85575060058501546000604060020a9091046001604060020a0316115b15610db8576005850154600f54610dab91604060020a90046001604060020a0316612ca4565b600f556010805460010190555b60028501548554600187015460058801546006890154604080519586526020860194909452848401929092526001604060020a0316606084015260808301525133917f21f1afab2f02b89c920dd0d2344eb5ca4ab202a02787d025c4124c81ddb1388c919081900360a00190a250505050505050565b601e546040805160e160020a6319a8571b028152600481018490529051600092600160a060020a031691633350ae3691602480830192602092919082900301818787803b158015610e7e57600080fd5b505af1158015610e92573d6000803e3d6000fd5b505050506040513d6020811015610ea857600080fd5b505192915050565b601254600160a060020a031681565b60086020526000908152604090208054600182015460028301546003840154600485015460058601546006870154600790970154959694959394929391926001604060020a0380831693604060020a840490911692608060020a900460ff1691908a565b60175481565b600080548190600160a060020a03163314610f4357600080fd5b6002600554610100900460ff166009811115610f5b57fe5b14610f6557600080fd5b821515611036576005805461ff0019166108001790556015859055601e54600d546040805160e060020a631713e36f028152600060048201819052602482018190526044820181905260648201939093528151600160a060020a0390941693631713e36f93608480840194938390030190829087803b158015610fe757600080fd5b505af1158015610ffb573d6000803e3d6000fd5b505050506040513d604081101561101157600080fd5b508051602090910151909250905060008111156110315761103181612cba565b611199565b600a61104f600b54600a54612c9290919063ffffffff16565b1015611069576005805461ff001916610700179055611199565b6000851180156110795750600084115b151561108457600080fd5b601e54601654600d546040805160e060020a631713e36f0281526004810193909352602483018990526044830188905260648301919091528051600160a060020a0390931692631713e36f9260848082019392918290030181600087803b1580156110ee57600080fd5b505af1158015611102573d6000803e3d6000fd5b505050506040513d604081101561111857600080fd5b508051602090910151909250905060008111156111385761113881612cba565b81611144576006611147565b60035b6005805461ff00191661010083600981111561115f57fe5b021790555060408051831515815290517eee8ff7d835f8ff107aaab76dfc41ce5f2aaa37302cecf2c34c19a8476835039181900360200190a15b5050505050565b600054600160a060020a031633146111b757600080fd5b6000600554610100900460ff1660098111156111cf57fe5b146111d957600080fd5b601e546040805160e160020a63209a9d370281526004810186905260248101859052604481018490529051600160a060020a03909216916341353a6e9160648082019260009290919082900301818387803b15801561123757600080fd5b505af115801561124b573d6000803e3d6000fd5b505050601593909355505050565b601c54600160a060020a031681565b600154600160a060020a031681565b600960205260009081526040902054600160a060020a031681565b601154600160a060020a031681565b60195481565b60165481565b60185481565b6000808080600460055460ff918216916101009091041660098111156112d557fe5b60ff1610156112e357600080fd5b60055460ff16156112f357600080fd5b6005805460ff191660011790556004600554610100900460ff16600981111561131857fe5b141561155457336000908152600860205260409020935060026005850154608060020a900460ff16600381111561134b57fe5b1461135557600080fd5b60078401549250821561154f5760006007850155601754156114975761139860175461138c60185486612e6b90919063ffffffff16565b9063ffffffff612e8f16565b6011546040805160e060020a63a9059cbb028152336004820152602481018490529051929450600160a060020a039091169163a9059cbb916044808201926020929091908290030181600087803b1580156113f257600080fd5b505af1158015611406573d6000803e3d6000fd5b505050506040513d602081101561141c57600080fd5b5051151561142957600080fd5b60195461143c908463ffffffff612c9216565b601955604051339084156108fc029085906000818181858888f19350505050151561146657600080fd5b60195460408051918252602082018490528051339260008051602061376383398151915292908290030190a261154f565b6011546040805160e060020a63a9059cbb028152336004820152602481018690529051600160a060020a039092169163a9059cbb916044808201926020929091908290030181600087803b1580156114ee57600080fd5b505af1158015611502573d6000803e3d6000fd5b505050506040513d602081101561151857600080fd5b5051151561152557600080fd5b60408051600081526020810185905281513392600080516020613763833981519152928290030190a25b611820565b5060006009600554610100900460ff16600981111561156f57fe5b14156116dd57600a5415801561158757506000601354115b1561154f576012546040805160e060020a6370a082310281523060048201529051600160a060020a03909216916370a08231916024808201926020929091908290030181600087803b1580156115dc57600080fd5b505af11580156115f0573d6000803e3d6000fd5b505050506040513d602081101561160657600080fd5b5051601254601c546040805160e060020a63a9059cbb028152600160a060020a03928316600482015260248101859052905193945091169163a9059cbb916044808201926020929091908290030181600087803b15801561166657600080fd5b505af115801561167a573d6000803e3d6000fd5b505050506040513d602081101561169057600080fd5b5051151561169d57600080fd5b600060135560408051828152905133917f9bc1a31743566cd0e5b1b0fb56d9320df968aad59d37b887d5160e55f854c22f919081900360200190a2611820565b6006600554610100900460ff1660098111156116f557fe5b148061171657506008600554610100900460ff16600981111561171457fe5b145b8061173657506007600554610100900460ff16600981111561173457fe5b145b15611820576000601354111561154f576012546040805160e060020a6370a082310281523060048201529051600160a060020a03909216916370a08231916024808201926020929091908290030181600087803b15801561179657600080fd5b505af11580156117aa573d6000803e3d6000fd5b505050506040513d60208110156117c057600080fd5b5051601254601b546040805160e060020a63a9059cbb028152600160a060020a03928316600482015260248101859052905193945091169163a9059cbb916044808201926020929091908290030181600087803b15801561166657600080fd5b50506005805460ff191690555050565b60008080808080808080600360055460ff9182169161010090910416600981111561185757fe5b60ff16101561186557600080fd5b600160a060020a038a16151561187a57600080fd5b600160a060020a038a1660009081526008602052604090206005810154608060020a900460ff169950935060018960038111156118b357fe5b146118bd57611b58565b6004600554610100900460ff1660098111156118d557fe5b14806118f657506003600554610100900460ff1660098111156118f457fe5b145b156119e157601e54845460058601546040805160e060020a63b90bc51902815260048101939093526001604060020a0390911660248301528051600160a060020a039093169263b90bc5199260448082019392918290030181600087803b15801561196057600080fd5b505af1158015611974573d6000803e3d6000fd5b505050506040513d604081101561198a57600080fd5b5080516020909101516017549194509250156119c5578296506119be60175461138c60185486612e6b90919063ffffffff16565b95506119c9565b8295505b6119da601a54856002015484612ea6565b9750611b58565b6006600554610100900460ff1660098111156119f957fe5b1415611a9357601e5484546040805160e060020a63b957755f028152600481019290925251600160a060020a039092169163b957755f916024808201926020929091908290030181600087803b158015611a5257600080fd5b505af1158015611a66573d6000803e3d6000fd5b505050506040513d6020811015611a7c57600080fd5b5051601a5460028601549193506119da9184612ea6565b6008600554610100900460ff166009811115611aab57fe5b148015611abb5750601554845411155b15611ad2576119da601a5485600201546003612ea6565b60058054610100900460ff166009811115611ae957fe5b1415611b34578354158015611b13575060058401546000604060020a9091046001604060020a0316115b9050611b21601a5482612fc1565b97508015611b2f5760135494505b611b58565b6009600554610100900460ff166009811115611b4c57fe5b1415611b585760135494505b5050505091939590929450565b601d54600160a060020a031681565b6000808080426001600554610100900460ff166009811115611b9257fe5b148015611ba0575060035481105b8015611bae57506002548110155b1515611bb957600080fd5b33600090815260086020526040812095506005860154608060020a900460ff166003811115611be457fe5b14611bee57600080fd5b601d546040805160e060020a63b7ba88610281523360048201526000602482018190528251600160a060020a039094169363b7ba8861936044808501949193918390030190829087803b158015611c4457600080fd5b505af1158015611c58573d6000803e3d6000fd5b505050506040513d6040811015611c6e57600080fd5b5080516020909101519094509250670de0b6b3a7640000831015611c9157600080fd5b601e546002546003546040805160e460020a626bcfeb028152600481018c9052602481018890526001604060020a0389166044820152606481019390935260848301919091528051600160a060020a03909316926306bcfeb09260a48082019392918290030181600087803b158015611d0957600080fd5b505af1158015611d1d573d6000803e3d6000fd5b505050506040513d6040811015611d3357600080fd5b50805160209091015160058701805492885560018089018b9055600289018790554260038a0181905560048a0181905567ffffffffffffffff199094166001604060020a03938416176fffffffffffffffff00000000000000001916604060020a93891693909302929092178082559294509091608060020a60ff021916608060020a83021790555060068501869055600a80546001810190915560009081526009602052604090208054600160a060020a03191633179055600c54611dff908463ffffffff612ca416565b600c556005850154600d54611e22916001604060020a031663ffffffff612ca416565b600d5560006001604060020a0385161115611e8757600e54611e53906001604060020a03861663ffffffff612ca416565b600e5584541515611e8757600f54611e7a906001604060020a03861663ffffffff612ca416565b600f556010805460010190555b60028501546005860154865460018801546006890154604080519586526001604060020a03604060020a860481166020880152909416858501526060850192909252608084015260a08301525133917fc621da64f59309ddd7fcf675c75477fb4b303143e778d3446db97660267583cc919081900360c00190a250505050505050565b600054600160a060020a03163314611f2157600080fd5b6000600554610100900460ff166009811115611f3957fe5b14611f4357600080fd5b6012546040805160e060020a6370a0823102815230600482015290518392600160a060020a0316916370a082319160248083019260209291908290030181600087803b158015611f9257600080fd5b505af1158015611fa6573d6000803e3d6000fd5b505050506040513d6020811015611fbc57600080fd5b50511015611fc957600080fd5b601355565b6004805460408051602060026001851615610100026000190190941693909304601f810184900484028201840190925281815292918301828280156120545780601f1061202957610100808354040283529160200191612054565b820191906000526020600020905b81548152906001019060200180831161203757829003601f168201915b505050505081565b6001546000908190600160a060020a0316331461207857600080fd5b6001600554610100900460ff16600981111561209057fe5b14801561209f57506003544210155b15156120aa57600080fd5b6005805461ff00191661020017905560065415806120cb57506107d0600e54105b806120ec5750600a6120ea600b54600a54612c9290919063ffffffff16565b105b1561210d5760405160008051602061378383398151915290600090a1612261565b600e54600f54612125906103e863ffffffff612e6b16565b81151561212e57fe5b04915060065482111561224957601d60009054906101000a9004600160a060020a0316600160a060020a031663d36d5d956040518163ffffffff1660e060020a028152600401602060405180830381600087803b15801561218e57600080fd5b505af11580156121a2573d6000803e3d6000fd5b505050506040513d60208110156121b857600080fd5b5051600e546121cf906103e863ffffffff612e6b16565b8115156121d857fe5b04601a55506005805461ff001916610500179055601354601054818115156121fc57fe5b046013556010548181151561220d57fe5b066014556040805183815290517f2b82927943bd799a5f8a94ef8280be0d63ceaa02f16fad7794bce48bab040aec9181900360200190a1612261565b60405160008051602061378383398151915290600090a15b5050565b3360009081526008602052604081209060016005830154608060020a900460ff16600381111561229157fe5b1461229b57600080fd5b600554600390610100900460ff1660098111156122b457fe5b60ff16106122cd576122c6338361300e565b90506122da565b6122d73383613423565b90505b60408051600383810b900b8152905133917f5e5f983e9e732fe0a5fd0c144611a332038b93fd448e29a6114e0edf6ef9ae60919081900360200190a25050565b601e546040805160e360020a6311ab9fbb02815260048101859052602481018490529051600160a060020a0390921691638d5cfdd89160448082019260009290919082900301818387803b15801561237157600080fd5b505af1158015612385573d6000803e3d6000fd5b505050505050565b600054600160a060020a031681565b60006123a66136f1565b336000908152600860209081526040918290208251610140810184528154815260018201549281019290925260028101549282019290925260038083015460608301526004830154608083015260058301546001604060020a0380821660a0850152604060020a82041660c084015291929160e0840191608060020a90910460ff169081111561243257fe5b600381111561243d57fe5b8152600682015460208201526007909101546040918201528101519091506124699060fa906000612ea6565b91505090565b600081815260096020908152604080832054600160a060020a0316808452600890925282208054600182015460058301548594859485948594859485948594859485949293919284926001604060020a03604060020a82048116919081169060ff608060020a9091041660038111156124e457fe5b86600201548760060154886003015489600401549b509b509b509b509b509b509b509b509b509b5050509193959799509193959799565b600d5481565b600c5481565b60155481565b600154600160a060020a0316331461254457600080fd5b6002541561255157600080fd5b6003541561255e57600080fd5b600080fd5b60145481565b600a5481565b601b54600160a060020a031681565b60035481565b600f5481565b60105481565b600154600160a060020a031633146125a757600080fd5b600160a060020a03811615156125bc57600080fd5b60018054600160a060020a031916600160a060020a0392909216919091179055565b600554610100900460ff1681565b601e54600160a060020a031681565b600e5481565b600160a060020a0381166000908152600860205260408120805460018201546005830154849384938493849384938493849384936001604060020a03604060020a82048116919081169060ff608060020a90910416600381111561266157fe5b8560020154866006015487600301548860040154995099509950995099509950995099509950509193959799909294969850565b600054600160a060020a031633146126ac57600080fd5b6000600554610100900460ff1660098111156126c457fe5b146126ce57600080fd5b60135415156126dc57600080fd5b6002819055600754610e1002810160038190556005805461ff00191661010017905560408051838152602081019290925280517f07482a838bed9106d296a207b11a4432220a25319c144fae382b65c5fa5ba8299281900390910190a150565b60008080426001600554610100900460ff16600981111561275957fe5b148015612767575060035481105b801561277557506002548110155b151561278057600080fd5b336000908152600860205260409020935060016005850154608060020a900460ff1660038111156127ad57fe5b146127b757600080fd5b601d546040805160e060020a639bf3f7e5028152336004820152602481018890529051600160a060020a0390921691639bf3f7e5916044808201926020929091908290030181600087803b15801561280e57600080fd5b505af1158015612822573d6000803e3d6000fd5b505050506040513d602081101561283857600080fd5b5051600285015490935083101561284b57fe5b601e54845460058601546040805160e160020a635091fcbb0281526004810193909352602483018790526001604060020a03604060020a830481166044850152909116606483015251600160a060020a039092169163a123f976916084808201926020929091908290030181600087803b1580156128c857600080fd5b505af11580156128dc573d6000803e3d6000fd5b505050506040513d60208110156128f257600080fd5b50516002850154600c54919350612915918591610ce7919063ffffffff612c9216565b600c556005840154600d54612942916001604060020a0380861692610ce79290911663ffffffff612c9216565b600d556002840183905560058401805467ffffffffffffffff19166001604060020a038416908117909155604080518581526020810192909252805133927f70fe1474807d1512fc5a8442a895cfe582b9934114532a783890dc61059fec5192908290030190a25050505050565b60025481565b601a5481565b600054600160a060020a031633146129d357600080fd5b600160a060020a03811615156129e857600080fd5b60008054604051600160a060020a03808516939216917f8be0079c531659141344cd1fd0a4f28419497f9722a3daafe3b4186f6b6457e091a360008054600160a060020a031916600160a060020a0392909216919091179055565b600054600160a060020a03163314612a5a57600080fd5b6003600554610100900460ff166009811115612a7257fe5b14612a7c57600080fd5b60118054600160a060020a031916600160a060020a038516179055601782905560188190558115612ab657601954821115612ab657600080fd5b6011546040805160e060020a6370a0823102815230600482015290518392600160a060020a0316916370a082319160248083019260209291908290030181600087803b158015612b0557600080fd5b505af1158015612b19573d6000803e3d6000fd5b505050506040513d6020811015612b2f57600080fd5b50511015612b3c57600080fd5b601254601b546040805160e060020a6370a082310281523060048201529051600160a060020a039384169363a9059cbb93169184916370a08231916024808201926020929091908290030181600087803b158015612b9957600080fd5b505af1158015612bad573d6000803e3d6000fd5b505050506040513d6020811015612bc357600080fd5b50516040805160e060020a63ffffffff8616028152600160a060020a03909316600484015260248301919091525160448083019260209291908290030181600087803b158015612c1257600080fd5b505af1158015612c26573d6000803e3d6000fd5b505050506040513d6020811015612c3c57600080fd5b50511515612c4957600080fd5b6005805461ff0019166104001790556040517f7d17fda6d6587f17710a5fba0a4535b4571f72e3d864ba8088da81a88f1b41b190600090a1505050565b600b5481565b60135481565b600082821115612c9e57fe5b50900390565b600082820183811015612cb357fe5b9392505050565b600080600e541115612d6757601d60009054906101000a9004600160a060020a0316600160a060020a031663d36d5d956040518163ffffffff1660e060020a028152600401602060405180830381600087803b158015612d1957600080fd5b505af1158015612d2d573d6000803e3d6000fd5b505050506040513d6020811015612d4357600080fd5b5051600e54612d5a906103e863ffffffff612e6b16565b811515612d6357fe5b0490505b6032811015612d74575060325b601d60009054906101000a9004600160a060020a0316600160a060020a031663568914126040518163ffffffff1660e060020a028152600401602060405180830381600087803b158015612dc757600080fd5b505af1158015612ddb573d6000803e3d6000fd5b505050506040513d6020811015612df157600080fd5b5051600c54612e0790839063ffffffff612e6b16565b811515612e1057fe5b049050610fa0612e26828463ffffffff612e6b16565b811515612e2f57fe5b04601a81905560408051918252517f429e567391de3ca204da8f726ef76246b3d5c5de07f4c816f1c36d085396347a9181900360200190a15050565b6000828202831580612e875750828482811515612e8457fe5b04145b1515612cb357fe5b6000808284811515612e9d57fe5b04949350505050565b60008080836007811115612eb657fe5b1415612ec6576001199150612f87565b6001836007811115612ed457fe5b1415612ee4576000199150612f87565b6002836007811115612ef257fe5b1415612f015760009150612f87565b6003836007811115612f0f57fe5b1415612f1e5760019150612f87565b6004836007811115612f2c57fe5b1415612f3b5760029150612f87565b6005836007811115612f4957fe5b1415612f585760039150612f87565b6006836007811115612f6657fe5b1480612f7d57506007836007811115612f7b57fe5b145b15612f8757600491505b6006612fa2612f9586613668565b879063ffffffff612e6b16565b811515612fab57fe5b049050612fb882826136c0565b95945050505050565b6000808310158015612fd557506103e88311155b1515612fe057600080fd5b81612fec576000612cb3565b6103e8612ffa60c8856136c0565b60030b81151561300657fe5b059392505050565b600080808080806004600554610100900460ff16600981111561302d57fe5b148061304e57506003600554610100900460ff16600981111561304c57fe5b145b1561311157601e54875460058901546040805160e160020a6339b8454302815260048101939093526001604060020a0390911660248301528051600160a060020a03909316926373708a869260448082019392918290030181600087803b1580156130b857600080fd5b505af11580156130cc573d6000803e3d6000fd5b505050506040513d60408110156130e257600080fd5b508051602090910151601a5460028a01549296509093506131039184612ea6565b60078801859055945061327b565b60058054610100900460ff16600981111561312857fe5b1415613167578654158015613152575060058701546000604060020a9091046001604060020a0316115b9250613160601a5484612fc1565b945061327b565b6006600554610100900460ff16600981111561317f57fe5b141561321957601e5487546040805160e060020a63b957755f028152600481019290925251600160a060020a039092169163b957755f916024808201926020929091908290030181600087803b1580156131d857600080fd5b505af11580156131ec573d6000803e3d6000fd5b505050506040513d602081101561320257600080fd5b5051601a5460028901549193506131609184612ea6565b6008600554610100900460ff16600981111561323157fe5b1480156132415750601554875411155b1561325857613160601a5488600201546003612ea6565b6009600554610100900460ff16600981111561327057fe5b141561327b57600192505b601d546040805160e160020a6316b28e07028152600160a060020a038b81166004830152600389810b900b60248301526000604483018190529251931692632d651c0e9260648084019391929182900301818387803b1580156132dd57600080fd5b505af11580156132f1573d6000803e3d6000fd5b50505050600587018054608060020a60ff021916608160020a17905582156133cf5760135490506000601454111561333f5760145461333790829063ffffffff612ca416565b600060145590505b6012546040805160e060020a63a9059cbb028152600160a060020a038b81166004830152602482018590529151919092169163a9059cbb9160448083019260209291908290030181600087803b15801561339857600080fd5b505af11580156133ac573d6000803e3d6000fd5b505050506040513d60208110156133c257600080fd5b505115156133cf57600080fd5b60408051858152600387810b900b60208201528151600160a060020a038b16927f2019563c2bbadfe9749f66fa473401581af4884ee6c3412377546d93b9faed12928290030190a250929695505050505050565b601e54815460058301546040805160e460020a630fc4e47f02815260048101939093526001604060020a039091166024830152516000928392600160a060020a039091169163fc4e47f091604480820192869290919082900301818387803b15801561348e57600080fd5b505af11580156134a2573d6000803e3d6000fd5b5050600b80546001019055505060028301546134c29060fa906000612ea6565b601d546040805160e160020a6316b28e07028152600160a060020a038881166004830152600385810b900b6024830152600160448301529151939450911691632d651c0e9160648082019260009290919082900301818387803b15801561352857600080fd5b505af115801561353c573d6000803e3d6000fd5b505050506002830154600c5461355191612c92565b600c556005830154600d54613574916001604060020a031663ffffffff612c9216565b600d556005830154600e5461359891604060020a90046001604060020a0316612c92565b600e5582541580156135bf575060058301546000604060020a9091046001604060020a0316115b156135ff576005830154600f546135e591604060020a90046001604060020a0316612c92565b600f556010546000106135f457fe5b601080546000190190555b600583018054608060020a600302608060020a60ff021990911617905560408051600383810b900b81529051600160a060020a038616917f8d8a785b787c382648308849ac37417337540fc558703d45c2abb082ddfc8c09919081900360200190a29392505050565b6000670de0b6b3a76400008204816001821161368757600192506136b9565b6304000000821061369b57601a92506136b9565b60018211156136b25760028204915060010161369b565b8060010192505b5050919050565b6000828202600384900b1580612e8757508260030b8460030b8260030b8115156136e657fe5b0560030b14612cb357fe5b61014060405190810160405280600081526020016000815260200160008152602001600081526020016000815260200160006001604060020a0316815260200160006001604060020a031681526020016000600381111561374e57fe5b8152600060208201819052604090910152905600550af3de3b1ab8fa1af3a3483b476256985ff43083fbd1324f4e90e128fd396cb221d6ca70dfb11f8d618fef235ef7ae88ca1288f9aa3d41bd851e9c8f7012a0a165627a7a723058206d7cc05915f51a5e745d2badc50ced55e522c7d69cf3a20feebe65aedd3325260029",
  "source": "pragma solidity ^0.4.18;\n\nimport \"./Ratings.sol\";\nimport \"../interfaces/IRewardsModel.sol\";\nimport \"../interfaces/IUserStorage.sol\";\nimport \"../interfaces/IForecasting.sol\";\n\n// Forecasting and Rewards\ncontract Forecasting is IForecasting {\n    using SafeMathEx for uint64;\n    using SafeMathEx for uint256;\n\n    // Minimal number of participants to make the stats\n    uint256 constant MIN_NUMBER_OF_FORECASTS = 10;\n\n    // Min wings locked is 1 WINGS\n    uint256 constant WINGS_LOCKED_MINIMUM = 1 ether;\n\n    // Min FR involved in this FC which allows for spam checking\n    uint256 constant SPAM_FR_THRESHOLD = 2000;\n\n    // Interface to FR storage\n    IUserStorage public userStorage;\n\n    // Rewards logic\n    IRewardsModel public rewardsModel;\n\n    // Creates the contract\n    function Forecasting(\n        address _owner,\n        address _manager,\n        address _author,\n        address _foundation,\n        address _userStorage,\n        address _rewardsModel,\n        uint256 _durationInHours,\n        uint256 _spamThreshold,\n        uint256 _deviation\n    )  public Version(\"1.8.0\") isValidDuration(_durationInHours)\n    {\n        require(_spamThreshold <= 1000);\n        require(_deviation > 1000 && _deviation < 2000);\n\n        userStorage = IUserStorage(_userStorage);\n        wingsToken = userStorage.token();\n        owner = _owner;\n        manager = _manager;\n        author = _author;\n        foundation = _foundation;\n        duration = _durationInHours;\n        rewardsModel = IRewardsModel(_rewardsModel);\n        spamThreshold = _spamThreshold;\n        deviation = _deviation;\n        stage = Stage.Initial;\n\n        FORECASTING_CREATED(owner,duration);\n    }\n\n    function() public payable {\n        ethBalance += msg.value;\n    }\n\n    // Owner manually stops the process\n    function stop()\n        public onlyManager() beforeResultsAreReady()\n    {\n        // divide wings reserved for anti-spam between all forecasters\n        uint256 count = forecastsCount.sub(forecastsCancelled);\n        if (count > 0) {\n            uint256 totalReward = wingsRewardForSpamReport;\n            wingsRewardForSpamReport = totalReward / count;\n            wingsRewardForSpamReportRemainder = totalReward % count;\n        } else {\n            // After that, everybody can call takeReward to transfer Wings deposit to foundation address\n            forecastsCount = 0;\n        }\n\n        stage = Stage.StoppedByOwner;\n\n        FORECASTING_STOPPED(forecastsCount);\n    }\n\n    // Called after ctor when instance address is known\n    function setWingsDeposit(\n        uint256 _wingsReserveAmount\n    )\n        public\n        onlyOwner()\n        duringInitialStage()\n    {\n        // >= is against possible attack\n        require(wingsToken.balanceOf(address(this)) >= _wingsReserveAmount);\n        wingsRewardForSpamReport = _wingsReserveAmount;\n    }\n\n    // Creates flatscale buckets - very costly operation\n    function createFlatscaleBuckets(\n        uint256 _minAmount,\n        uint256 _maxAmount,\n        uint256 _step\n    )\n        public\n        onlyOwner()\n        duringInitialStage()\n    {\n        rewardsModel.createFlatscaleBuckets(_minAmount, _maxAmount, _step);\n        minAmount = _minAmount;\n    }\n\n    // Assigns timeframe and ensures anti-spam Wings are reserved.\n    // Transfers stage to Stage.InProgress\n    function startForecastingPeriod(\n        uint256 _startTimestamp\n    )\n        public\n        onlyOwner()\n        duringInitialStage()\n    {\n        require(wingsRewardForSpamReport != 0);\n\n        startTimestamp = _startTimestamp;\n        endTimestamp = _startTimestamp + (duration * 1 hours);\n        stage = Stage.InProgress;\n\n        FORECASTING_SET_TIMEFRAME(startTimestamp, endTimestamp);\n    }\n\n    // In case forecasting is timeable and function startForecastingPeriod we should overload setTime\n    function setTime(uint /*_start*/, uint /*_end*/) public onlyManager() before() {\n        revert();\n    }\n\n    // Account adds its forecast for the 1st time\n    function addForecast(\n        uint256 _amount,\n        bytes32 _message\n    )\n        public\n        duringForecastingPeriod()\n    {\n        Forecast storage f = forecasts[msg.sender];\n        require(f.state == FState.Invalid);\n\n        // Will fail if msg.sender is not in storage\n        uint64 FR;\n        uint256 wingsLocked;\n        (FR, wingsLocked) = userStorage.openProject(msg.sender, 0);\n\n        require(wingsLocked >= WINGS_LOCKED_MINIMUM);\n\n        (f.amount, f.weight) =\n            rewardsModel.addForecast(_amount, wingsLocked, FR, startTimestamp, endTimestamp);\n\n\n        uint256 ts = block.timestamp;\n\n        f.originalAmount = _amount;\n        f.wingsLocked = wingsLocked;\n        f.created_at = ts;\n        f.updated_at = ts;\n        f.rating = FR;\n        f.state = FState.Active;\n        f.message = _message;\n\n        userForecasts[forecastsCount++] = msg.sender;\n\n        totalWingsLocked = totalWingsLocked.add(wingsLocked);\n        totalWeight = totalWeight.add(f.weight);\n        if (FR > 0) {\n            totalFR = totalFR.add(FR);\n            if (f.amount == 0) {\n                totalFRForSpam = totalFRForSpam.add(FR);\n                ++totalForecastsForSpam;\n            }\n        }\n\n        FORECAST_ADD(msg.sender, f.wingsLocked, f.rating, f.weight, f.amount, f.originalAmount, f.message);\n    }\n\n    // Account changes its existing forecast\n    function changeForecast(\n        uint256 _amount,\n        bytes32 _message\n    )\n        public\n        duringForecastingPeriod()\n    {\n        Forecast storage f = forecasts[msg.sender];\n        require(f.state == FState.Active);\n\n        // XXX\n        uint256 newWingsLocked = userStorage.lockWings(msg.sender, 0);\n        assert(newWingsLocked >= f.wingsLocked);\n\n        if (f.amount == 0 && f.rating > 0) {\n            totalFRForSpam = totalFRForSpam.sub(f.rating);\n            assert(totalForecastsForSpam > 0);\n            --totalForecastsForSpam;\n        }\n\n        uint64 newWeight;\n        (f.amount, newWeight) =\n            rewardsModel.changeForecast(\n                f.amount, _amount, newWingsLocked,\n                f.weight, f.rating,\n                startTimestamp, endTimestamp//, f.created_at TODO remove change penalty or not\n            );\n\n        totalWingsLocked = totalWingsLocked.sub(f.wingsLocked).add(newWingsLocked);\n        totalWeight = totalWeight.sub(f.weight).add(newWeight);\n\n        uint256 ts = block.timestamp;\n\n        f.originalAmount = _amount;\n        f.wingsLocked = newWingsLocked;\n        f.weight = newWeight;\n        f.updated_at = ts;\n        f.message = _message;\n\n        if (f.amount == 0 && f.rating > 0) {\n            totalFRForSpam = totalFRForSpam.add(f.rating);\n            ++totalForecastsForSpam;\n        }\n\n        FORECAST_CHANGE(msg.sender, f.wingsLocked, f.amount, f.originalAmount, f.weight, f.message);\n    }\n\n    // Account adds more locked wings to its forecast to increase weight\n    function addNewWings(\n        uint256 _amount\n      )\n        public\n        duringForecastingPeriod()\n    {\n        Forecast storage f = forecasts[msg.sender];\n        require(f.state == FState.Active);\n\n        uint256 newWingsLocked = userStorage.lockWings(msg.sender, _amount);\n        assert(newWingsLocked >= f.wingsLocked);\n\n        uint64 newWeight = rewardsModel.addNewWings(f.amount, newWingsLocked, f.rating, f.weight);\n\n        totalWingsLocked = totalWingsLocked.sub(f.wingsLocked).add(newWingsLocked);\n        totalWeight = totalWeight.sub(f.weight).add(newWeight);\n\n        f.wingsLocked = newWingsLocked;\n        f.weight = newWeight;\n\n        FORECAST_ADD_WINGS(msg.sender, f.wingsLocked, newWeight);\n    }\n\n    // Account closes its forecast and gets wings unlocked.\n    // Depends on current stage:\n    // 1) if stats are not ready then this is considered cancellation and the account gets negative dFR;\n    // 2) if stats are made then the account gets dFR according to its accuracy\n    // and then it take rewards as soon as they are available\n    function closeForecast()\n        public\n    {\n        Forecast storage f = forecasts[msg.sender];\n        require(f.state == FState.Active);\n\n        int32 dFR;\n        if (uint8(stage) >= uint8(Stage.RewardsDistributed)) {\n            // Stats are calculated, doing close\n            dFR = closeForecastInternal(msg.sender, f);\n        } else {\n            // No stats made yet, doing cancel\n            dFR = cancelForecastInternal(msg.sender, f);\n        }\n\n        FORECAST_CLOSE(msg.sender, dFR);\n    }\n\n    // Determines spam or not.\n    // This fn is called after forecasting period finished and before crowdsale period.\n    // Spam state is switched on if weighted ratio of forecasts for bucket 0\n    // exceeds spamThreshold\n    function checkForSpam()\n        public\n        onlyManager()\n        afterForecastingPeriod()\n    {\n        stage = Stage.ReadyToMakeStats;\n\n        if (spamThreshold == 0 ||\n            totalFR < SPAM_FR_THRESHOLD ||\n            forecastsCount.sub(forecastsCancelled) < MIN_NUMBER_OF_FORECASTS\n        ) {\n            // spam checking is off for this project or not enough stats\n            FORECAST_NOT_DETECT_SPAM();\n            return;\n        }\n\n        uint256 spamFactor = totalFRForSpam.mul(1000) / totalFR;\n        if (spamFactor > spamThreshold) {\n            // valueOfPoll in spam case is simply FR ratio\n            valueOfPoll = totalFR.mul(1000) / userStorage.totalFR();\n            stage = Stage.IsSpam;\n\n            uint256 totalReward = wingsRewardForSpamReport;\n            wingsRewardForSpamReport = totalReward / totalForecastsForSpam;\n            wingsRewardForSpamReportRemainder = totalReward % totalForecastsForSpam;\n\n            FORECAST_DETECT_SPAM(spamFactor);\n        } else {\n          FORECAST_NOT_DETECT_SPAM();\n        }\n    }\n\n    // Rewards are distributed among forecasts in this function\n    // _amount - ETH collected by crowdsale if succeeded or min amount needed if it failed\n    function makeStats(\n        uint256 _amount,\n        uint256 _reward,\n        bool _crowdsaleSucceeded\n    )\n        public\n        onlyOwner()\n        afterCheckedForSpam()\n    {\n        // Not a spam, lets transfer Wings back to author\n        bool rewardsDistributed;\n        uint256 quartileCoefficient;\n\n        if (!_crowdsaleSucceeded) {\n            stage = Stage.CrowdsaleFailed;\n            minAmount = _amount;\n\n            (rewardsDistributed, quartileCoefficient)\n                = rewardsModel.distributeRewards(0, 0, 0, totalWeight);\n\n            if (quartileCoefficient > 0) {\n                determineValueOfPoll(quartileCoefficient);\n            }\n            return;\n        }\n\n        if (forecastsCount.sub(forecastsCancelled) < MIN_NUMBER_OF_FORECASTS) {\n            stage = Stage.ForecastingFailed;\n            return;\n        }\n\n        require(_amount > 0 && _reward > 0);\n\n        (rewardsDistributed, quartileCoefficient) =\n            rewardsModel.distributeRewards(deviation, _amount, _reward, totalWeight);\n\n        if (quartileCoefficient > 0) {\n            determineValueOfPoll(quartileCoefficient);\n        }\n\n        stage = rewardsDistributed ? Stage.RewardsDistributed : Stage.NoReward;\n\n        FORECAST_STATS_MADE(rewardsDistributed);\n    }\n\n    // Called by crowdsale contract to make sure rewards are here\n    // _reward - ETH or project's tokens to be rewarded\n    // _rewardProportion - if not zero then ETH is also rewarded\n    function prepareToGiveRewards(address _projectToken, uint256 _ethReward, uint256 _tokenReward)\n        public\n        onlyOwner()\n        whenRewardsDistributed()\n    {\n        projectToken = ERC20(_projectToken);\n        ethReward = _ethReward;\n        tokenReward = _tokenReward;\n\n        // Soft rules here (>=) are against possible attacks\n\n        if (_ethReward != 0) {\n            require(ethBalance >= _ethReward);\n        }\n\n        require(projectToken.balanceOf(address(this)) >= _tokenReward);\n\n        // authors have done everything they were required - lets return them Wings\n        require(wingsToken.transfer(author, wingsToken.balanceOf(address(this))));\n\n        stage = Stage.ReadyToGiveRewards;\n\n        FORECAST_READY_TO_GIVE_REWARDS();\n    }\n\n    // Account takes its reward in project's token\n    // (this is a distinct function because project's token can be 3rd party)\n    function takeReward()\n        public\n        afterResultsAreReady()\n        protectAgainstReentrancy()\n    {\n        if (stage == Stage.ReadyToGiveRewards) {\n            // give rewards to forecaster\n\n            Forecast storage f = forecasts[msg.sender];\n            require(f.state == FState.Closed); // be sure it's not zero\n\n            uint256 reward = f.rewardPending;\n\n            if (reward != 0) {\n                f.rewardPending = 0;\n\n                if (ethReward != 0) {\n                    uint256 tokensAmount = reward.mul(tokenReward).div(ethReward);\n\n                    require(projectToken.transfer(msg.sender, tokensAmount));\n                    ethBalance = ethBalance.sub(reward);\n                    require(msg.sender.send(reward));\n\n                    FORECAST_REWARD_TAKE(msg.sender, ethBalance, tokensAmount);\n                } else {\n                    require(projectToken.transfer(msg.sender, reward));\n                    FORECAST_REWARD_TAKE(msg.sender, 0, reward);\n                }\n            }\n            return;\n        }\n\n        uint256 toWithdraw = 0;\n\n        if (stage == Stage.StoppedByOwner) {\n            if (forecastsCount == 0 && wingsRewardForSpamReport > 0) {\n                // transfer everything to foundation in case of project cancelled and no forecasts\n                toWithdraw = wingsToken.balanceOf(address(this));\n                require(wingsToken.transfer(foundation, toWithdraw));\n                wingsRewardForSpamReport = 0;\n\n                FORECAST_DEPOSIT_WITHDRAW(msg.sender, toWithdraw);\n            }\n            return;\n        }\n\n        if (stage == Stage.NoReward || stage == Stage.CrowdsaleFailed || stage == Stage.ForecastingFailed) {\n            if (wingsRewardForSpamReport > 0) {\n                // return all Wings to author\n                // XXX:  what to do if CrowdsaleFailed ???\n                toWithdraw = wingsToken.balanceOf(address(this));\n                require(wingsToken.transfer(author, toWithdraw));\n                wingsRewardForSpamReport = 0;\n\n                FORECAST_DEPOSIT_WITHDRAW(msg.sender, toWithdraw);\n            }\n            return;\n        }\n    }\n\n    // Returns forecast state and pending results for a given address,\n    // User can see non-zero amounts while its forecast is active (not closed)\n    function getForecastStateAndResults(\n        address _user\n    )\n        public\n        constant\n        afterStatsMade()\n        returns(FState forecastState, int32 dFR, uint256 rewardInEth, uint256 rewardInProjectToken, uint256 rewardInWings)\n    {\n        require(_user != address(0));\n        var f = forecasts[_user];\n\n        forecastState = f.state;\n        if (f.state != FState.Active) {\n            return;\n        }\n\n        uint256 reward;\n        Levels.Quality q;\n\n        if (stage == Stage.ReadyToGiveRewards || stage == Stage.RewardsDistributed) {\n            (reward, q) = rewardsModel.getReward(f.amount, f.weight);\n            if (ethReward != 0) {\n                rewardInEth = reward;\n                rewardInProjectToken = reward.mul(tokenReward).div(ethReward);\n            } else {\n                rewardInProjectToken = reward;\n            }\n            dFR = Ratings.getFRChange(valueOfPoll, f.wingsLocked, q);\n        } else if (stage == Stage.NoReward) {\n            q = rewardsModel.getForecastQuality(f.amount);\n            dFR = Ratings.getFRChange(valueOfPoll, f.wingsLocked, q);\n        } else if (stage == Stage.CrowdsaleFailed && f.amount <= minAmount) {\n            // minimal positive reward\n            dFR = Ratings.getFRChange(valueOfPoll, f.wingsLocked, Levels.Quality.B);\n        } else if (stage == Stage.IsSpam) {\n            bool hasWingsReward = (f.amount == 0 && f.rating > 0);\n            dFR = Ratings.getFRChangeIfSpam(\n                valueOfPoll,\n                hasWingsReward\n            );\n            if (hasWingsReward) {\n                rewardInWings = wingsRewardForSpamReport;\n            }\n        } else if (stage == Stage.StoppedByOwner) {\n            rewardInWings = wingsRewardForSpamReport;\n        }\n    }\n\n    // Get FC data by user\n    function getByUser(address _user)\n        public\n        constant\n        returns (uint, uint, uint64, uint64, uint8, uint, bytes32, uint, uint)\n    {\n        var forecast = forecasts[_user];\n        return (forecast.amount, forecast.originalAmount, forecast.rating, forecast.weight, uint8(forecast.state), forecast.wingsLocked, forecast.message, forecast.created_at, forecast.updated_at);\n    }\n\n    // Get FC data by index\n    function get(uint _index)\n        public\n        constant\n        returns (address, uint, uint, uint64, uint64, uint8, uint, bytes32, uint, uint)\n    {\n        address owner = userForecasts[_index];\n        var forecast = forecasts[owner];\n        return (owner, forecast.amount, forecast.originalAmount, forecast.rating, forecast.weight, uint8(forecast.state), forecast.wingsLocked, forecast.message, forecast.created_at, forecast.updated_at);\n    }\n\n    // Will revert() if crowdsale range does not fit into buckets range\n    function approveCrowdsaleRange(uint256 _minimalGoal, uint256 _hardCap)\n        public\n        constant\n    {\n        rewardsModel.approveCrowdsaleRange(_minimalGoal, _hardCap);\n    }\n\n    // For custom crowdsales, fits totalCollected into range if custom crowdsale authors\n    // went a bit wrong with those results...\n    function fitCollectedValueIntoRange(uint256 _totalCollected)\n        public\n        constant\n        returns (uint256)\n    {\n        return rewardsModel.fitCollectedValueIntoRange(_totalCollected);\n    }\n\n    // calculates valueOfPoll\n    function determineValueOfPoll(\n        uint256 quartileCoefficient\n    )\n        internal\n    {\n        uint256 v;\n\n        // TODO: finally choose formula after some experiments\n        // Formula1 : with FR\n\n        if (totalFR > 0) {\n            v = totalFR.mul(1000) / userStorage.totalFR();\n        }\n        if (v < 50) v = 50;\n\n        v = v.mul(totalWingsLocked) / userStorage.totalLocked();\n\n        valueOfPoll = v.mul(quartileCoefficient) / 4000; // TODO adjust this \"4000\" to normalize to sane FR range\n\n        FORECAST_VALUE_OF_POLL(valueOfPoll);\n\n        // Formula2: without FR\n/*\n        v = totalWingsLocked.mul(1000) / userStorage.totalLocked();\n        v = v.mul(v).mul(quartileCoefficient);\n\n        valueOfPoll = v / 4000000; // TODO the same as in F1\n*/\n    }\n\n    // Close forecast implementation\n    function closeForecastInternal(\n        address _account,\n        Forecast storage _f\n    )\n        internal\n        returns (int32)\n    {\n        int32 dFR;\n        uint256 reward;\n        bool needTransferWings;\n        Levels.Quality q;\n\n        if (stage == Stage.ReadyToGiveRewards || stage == Stage.RewardsDistributed) {\n            // In these stages, if the account has some reward, it can take it\n            // by calling takeReward() after project owners close Forecasting\n            // and make tokens (and optionally ETH) available for rewarding\n\n            (reward, q) = rewardsModel.takeReward(_f.amount, _f.weight);\n            dFR = Ratings.getFRChange(valueOfPoll, _f.wingsLocked, q);\n            _f.rewardPending = reward;\n\n        } else if (stage == Stage.IsSpam) {\n            // Spam case: account takes its part of project owner's Wings deposit\n            // if it reported spam\n\n            needTransferWings = (_f.amount == 0 && _f.rating > 0);\n            dFR = Ratings.getFRChangeIfSpam(\n                valueOfPoll,\n                needTransferWings\n            );\n\n        } else if (stage == Stage.NoReward) {\n            // No rewards distributed because of out of range forecasts,\n            // Accounts still take dFR\n\n            q = rewardsModel.getForecastQuality(_f.amount);\n            dFR = Ratings.getFRChange(valueOfPoll, _f.wingsLocked, q);\n\n        } else if (stage == Stage.CrowdsaleFailed && _f.amount <= minAmount) {\n            // Crowdsale failed: accounts who voted for amounts <= collected\n            // take minimal positive dFR\n\n            dFR = Ratings.getFRChange(valueOfPoll, _f.wingsLocked, Levels.Quality.B);\n\n        } else if (stage == Stage.StoppedByOwner) {\n            // Project was cancelled by owner: Wings deposit is divided among forecasters\n\n            needTransferWings = true;\n        }\n\n        userStorage.closeProject(_account, dFR, false);\n\n        _f.state = FState.Closed;\n\n        if (needTransferWings) {\n            uint256 sum = wingsRewardForSpamReport;\n            if (wingsRewardForSpamReportRemainder > 0) {\n                sum = sum.add(wingsRewardForSpamReportRemainder);\n                wingsRewardForSpamReportRemainder = 0;\n            }\n\n            if (!wingsToken.transfer(_account, sum)) {\n                revert();\n            }\n        }\n\n        FORECAST_RESULT_TAKE(_account, reward, dFR);\n\n        return dFR;\n    }\n\n    // Cancel forecast implementation\n    function cancelForecastInternal(\n        address _account,\n        Forecast storage _f\n    )\n        internal\n        returns (int32)\n    {\n        rewardsModel.removeForecast(_f.amount, _f.weight);\n        ++forecastsCancelled;\n\n        int32 dFR = Ratings.getFRChange(250, _f.wingsLocked, Levels.Quality.E);\n\n        userStorage.closeProject(_account, dFR, true);\n\n        totalWingsLocked = totalWingsLocked.sub(_f.wingsLocked);\n        totalWeight = totalWeight.sub(_f.weight);\n        totalFR = totalFR.sub(_f.rating);\n        if (_f.amount == 0 && _f.rating > 0) {\n            totalFRForSpam = totalFRForSpam.sub(_f.rating);\n            assert(totalForecastsForSpam > 0);\n            --totalForecastsForSpam;\n        }\n\n        // account can post forecast again because of this state (if period allows)\n        //_f.state = FState.Invalid;\n\n        // XXX: returning back: account cannot reopen its FC\n        _f.state = FState.Cancelled;\n\n        FORECAST_CANCEL(_account, dFR);\n\n        return dFR;\n    }\n\n    // Gets FR change in case of forecast cancellation\n    function getFRCancelForecastChange() public view returns (int32 dFR) {\n      Forecast memory f = forecasts[msg.sender];\n      dFR = Ratings.getFRChange(250, f.wingsLocked, Levels.Quality.E);\n    }\n}\n",
  "sourcePath": "/Users/solidity/Desktop/github/master-contracts/private-contracts/contracts/forecasting/Forecasting.sol",
  "compiler": {
    "name": "solc",
    "version": "0.4.24+commit.e67f0147.Emscripten.clang"
  },
  "schemaVersion": "2.0.0",
  "updatedAt": "2018-06-26T10:56:13.582Z"
}