{
  "contractName": "Token",
  "abi": [
    {
      "constant": true,
      "inputs": [],
      "name": "name",
      "outputs": [
        {
          "name": "",
          "type": "string"
        }
      ],
      "payable": false,
      "stateMutability": "view",
      "type": "function"
    },
    {
      "constant": true,
      "inputs": [],
      "name": "totalSupply",
      "outputs": [
        {
          "name": "",
          "type": "uint256"
        }
      ],
      "payable": false,
      "stateMutability": "view",
      "type": "function"
    },
    {
      "constant": true,
      "inputs": [],
      "name": "MAX_ALLOCATIONS_COUNT",
      "outputs": [
        {
          "name": "",
          "type": "uint256"
        }
      ],
      "payable": false,
      "stateMutability": "view",
      "type": "function"
    },
    {
      "constant": true,
      "inputs": [],
      "name": "decimals",
      "outputs": [
        {
          "name": "",
          "type": "uint256"
        }
      ],
      "payable": false,
      "stateMutability": "view",
      "type": "function"
    },
    {
      "constant": false,
      "inputs": [
        {
          "name": "newOwner",
          "type": "address"
        }
      ],
      "name": "transferOwner",
      "outputs": [],
      "payable": false,
      "stateMutability": "nonpayable",
      "type": "function"
    },
    {
      "constant": true,
      "inputs": [
        {
          "name": "_owner",
          "type": "address"
        }
      ],
      "name": "balanceOf",
      "outputs": [
        {
          "name": "balance",
          "type": "uint256"
        }
      ],
      "payable": false,
      "stateMutability": "view",
      "type": "function"
    },
    {
      "constant": true,
      "inputs": [],
      "name": "DAYS_28",
      "outputs": [
        {
          "name": "",
          "type": "uint256"
        }
      ],
      "payable": false,
      "stateMutability": "view",
      "type": "function"
    },
    {
      "constant": true,
      "inputs": [],
      "name": "accountsToAllocate",
      "outputs": [
        {
          "name": "",
          "type": "uint256"
        }
      ],
      "payable": false,
      "stateMutability": "view",
      "type": "function"
    },
    {
      "constant": false,
      "inputs": [],
      "name": "Ownable",
      "outputs": [],
      "payable": false,
      "stateMutability": "nonpayable",
      "type": "function"
    },
    {
      "constant": true,
      "inputs": [],
      "name": "owner",
      "outputs": [
        {
          "name": "",
          "type": "address"
        }
      ],
      "payable": false,
      "stateMutability": "view",
      "type": "function"
    },
    {
      "constant": true,
      "inputs": [],
      "name": "symbol",
      "outputs": [
        {
          "name": "",
          "type": "string"
        }
      ],
      "payable": false,
      "stateMutability": "view",
      "type": "function"
    },
    {
      "constant": true,
      "inputs": [],
      "name": "multisignature",
      "outputs": [
        {
          "name": "",
          "type": "address"
        }
      ],
      "payable": false,
      "stateMutability": "view",
      "type": "function"
    },
    {
      "constant": true,
      "inputs": [
        {
          "name": "_owner",
          "type": "address"
        },
        {
          "name": "_spender",
          "type": "address"
        }
      ],
      "name": "allowance",
      "outputs": [
        {
          "name": "remaining",
          "type": "uint256"
        }
      ],
      "payable": false,
      "stateMutability": "view",
      "type": "function"
    },
    {
      "constant": true,
      "inputs": [],
      "name": "DAYS_31",
      "outputs": [
        {
          "name": "",
          "type": "uint256"
        }
      ],
      "payable": false,
      "stateMutability": "view",
      "type": "function"
    },
    {
      "inputs": [
        {
          "name": "_accountsToAllocate",
          "type": "uint256"
        },
        {
          "name": "_multisignature",
          "type": "address"
        }
      ],
      "payable": false,
      "stateMutability": "nonpayable",
      "type": "constructor"
    },
    {
      "anonymous": false,
      "inputs": [
        {
          "indexed": true,
          "name": "account",
          "type": "address"
        },
        {
          "indexed": false,
          "name": "amount",
          "type": "uint256"
        }
      ],
      "name": "ALLOCATION",
      "type": "event"
    },
    {
      "anonymous": false,
      "inputs": [
        {
          "indexed": true,
          "name": "owner",
          "type": "address"
        },
        {
          "indexed": false,
          "name": "account",
          "type": "address"
        },
        {
          "indexed": false,
          "name": "amount",
          "type": "uint256"
        }
      ],
      "name": "PREMINER_ADDED",
      "type": "event"
    },
    {
      "anonymous": false,
      "inputs": [
        {
          "indexed": true,
          "name": "account",
          "type": "address"
        },
        {
          "indexed": false,
          "name": "time",
          "type": "uint256"
        }
      ],
      "name": "PREMINE_ALLOCATION_ADDED",
      "type": "event"
    },
    {
      "anonymous": false,
      "inputs": [
        {
          "indexed": true,
          "name": "account",
          "type": "address"
        },
        {
          "indexed": false,
          "name": "timestamp",
          "type": "uint256"
        },
        {
          "indexed": false,
          "name": "amount",
          "type": "uint256"
        }
      ],
      "name": "PREMINE_RELEASE",
      "type": "event"
    },
    {
      "anonymous": false,
      "inputs": [
        {
          "indexed": true,
          "name": "oldPreminer",
          "type": "address"
        },
        {
          "indexed": false,
          "name": "newPreminer",
          "type": "address"
        },
        {
          "indexed": false,
          "name": "newRecipient",
          "type": "address"
        }
      ],
      "name": "PREMINER_CHANGED",
      "type": "event"
    },
    {
      "anonymous": false,
      "inputs": [
        {
          "indexed": true,
          "name": "from",
          "type": "address"
        },
        {
          "indexed": true,
          "name": "to",
          "type": "address"
        },
        {
          "indexed": false,
          "name": "value",
          "type": "uint256"
        }
      ],
      "name": "Transfer",
      "type": "event"
    },
    {
      "anonymous": false,
      "inputs": [
        {
          "indexed": true,
          "name": "owner",
          "type": "address"
        },
        {
          "indexed": true,
          "name": "spender",
          "type": "address"
        },
        {
          "indexed": false,
          "name": "value",
          "type": "uint256"
        }
      ],
      "name": "Approval",
      "type": "event"
    },
    {
      "constant": false,
      "inputs": [
        {
          "name": "user",
          "type": "address"
        },
        {
          "name": "balance",
          "type": "uint256"
        }
      ],
      "name": "allocate",
      "outputs": [],
      "payable": false,
      "stateMutability": "nonpayable",
      "type": "function"
    },
    {
      "constant": false,
      "inputs": [
        {
          "name": "_to",
          "type": "address"
        },
        {
          "name": "_value",
          "type": "uint256"
        }
      ],
      "name": "transfer",
      "outputs": [
        {
          "name": "success",
          "type": "bool"
        }
      ],
      "payable": false,
      "stateMutability": "nonpayable",
      "type": "function"
    },
    {
      "constant": false,
      "inputs": [
        {
          "name": "_from",
          "type": "address"
        },
        {
          "name": "_to",
          "type": "address"
        },
        {
          "name": "_value",
          "type": "uint256"
        }
      ],
      "name": "transferFrom",
      "outputs": [
        {
          "name": "success",
          "type": "bool"
        }
      ],
      "payable": false,
      "stateMutability": "nonpayable",
      "type": "function"
    },
    {
      "constant": false,
      "inputs": [
        {
          "name": "_spender",
          "type": "address"
        },
        {
          "name": "_value",
          "type": "uint256"
        }
      ],
      "name": "approve",
      "outputs": [
        {
          "name": "success",
          "type": "bool"
        }
      ],
      "payable": false,
      "stateMutability": "nonpayable",
      "type": "function"
    },
    {
      "constant": false,
      "inputs": [
        {
          "name": "preminer",
          "type": "address"
        },
        {
          "name": "recipient",
          "type": "address"
        },
        {
          "name": "initialBalance",
          "type": "uint256"
        },
        {
          "name": "monthlyPayment",
          "type": "uint256"
        }
      ],
      "name": "addPreminer",
      "outputs": [],
      "payable": false,
      "stateMutability": "nonpayable",
      "type": "function"
    },
    {
      "constant": false,
      "inputs": [
        {
          "name": "_preminer",
          "type": "address"
        },
        {
          "name": "_newPreminer",
          "type": "address"
        },
        {
          "name": "_newRecipient",
          "type": "address"
        }
      ],
      "name": "disablePreminer",
      "outputs": [],
      "payable": false,
      "stateMutability": "nonpayable",
      "type": "function"
    },
    {
      "constant": false,
      "inputs": [
        {
          "name": "_preminer",
          "type": "address"
        },
        {
          "name": "_time",
          "type": "uint256"
        }
      ],
      "name": "addPremineAllocation",
      "outputs": [],
      "payable": false,
      "stateMutability": "nonpayable",
      "type": "function"
    },
    {
      "constant": true,
      "inputs": [
        {
          "name": "_preminer",
          "type": "address"
        }
      ],
      "name": "getPreminer",
      "outputs": [
        {
          "name": "",
          "type": "address"
        },
        {
          "name": "",
          "type": "bool"
        },
        {
          "name": "",
          "type": "uint256"
        },
        {
          "name": "",
          "type": "uint256"
        },
        {
          "name": "",
          "type": "uint256"
        }
      ],
      "payable": false,
      "stateMutability": "view",
      "type": "function"
    },
    {
      "constant": true,
      "inputs": [
        {
          "name": "_preminer",
          "type": "address"
        },
        {
          "name": "_index",
          "type": "uint256"
        }
      ],
      "name": "getPreminerAllocation",
      "outputs": [
        {
          "name": "",
          "type": "uint256"
        }
      ],
      "payable": false,
      "stateMutability": "view",
      "type": "function"
    },
    {
      "constant": false,
      "inputs": [],
      "name": "releasePremine",
      "outputs": [],
      "payable": false,
      "stateMutability": "nonpayable",
      "type": "function"
    }
  ],
  "bytecode": "0x60c0604052600560808190527f57494e475300000000000000000000000000000000000000000000000000000060a09081526200003e9190816200010a565b506040805180820190915260058082527f57494e4753000000000000000000000000000000000000000000000000000000602090920191825262000085916006916200010a565b5060126007556a52b7d2dcc80cd2e40000006008556224ea006009556228de80600a55601a600b55348015620000ba57600080fd5b506040516040806200128b8339810160405280516020909101516003805433600160a060020a031991821617909155600c92909255600d8054909216600160a060020a03909116179055620001af565b828054600181600116156101000203166002900490600052602060002090601f016020900481019282601f106200014d57805160ff19168380011785556200017d565b828001600101855582156200017d579182015b828111156200017d57825182559160200191906001019062000160565b506200018b9291506200018f565b5090565b620001ac91905b808211156200018b576000815560010162000196565b90565b6110cc80620001bf6000396000f3006080604052600436106101245763ffffffff60e060020a60003504166306fdde038114610129578063095ea7b3146101b357806318160ddd146101eb57806323b872dd14610212578063287bd2061461023c578063313ce567146102515780634517a273146102665780634fb2e45d1461027d57806370a082311461029e57806371215af6146102bf5780637915785e146102d45780638afc3605146102e95780638da5cb5b146102fe57806395d89b411461032f5780639fd859ee14610344578063a9059cbb14610371578063b1b6a6ed14610395578063b4d40694146103b9578063b78b52df1461040f578063ce79429414610433578063dd62ed3e14610448578063ed4080b11461046f578063efaf90c814610493578063fa885868146104a8575b600080fd5b34801561013557600080fd5b5061013e6104d5565b6040805160208082528351818301528351919283929083019185019080838360005b83811015610178578181015183820152602001610160565b50505050905090810190601f1680156101a55780820380516001836020036101000a031916815260200191505b509250505060405180910390f35b3480156101bf57600080fd5b506101d7600160a060020a0360043516602435610563565b604080519115158252519081900360200190f35b3480156101f757600080fd5b50610200610583565b60408051918252519081900360200190f35b34801561021e57600080fd5b506101d7600160a060020a0360043581169060243516604435610589565b34801561024857600080fd5b506102006105ab565b34801561025d57600080fd5b506102006105b1565b34801561027257600080fd5b5061027b6105b7565b005b34801561028957600080fd5b5061027b600160a060020a0360043516610728565b3480156102aa57600080fd5b50610200600160a060020a0360043516610769565b3480156102cb57600080fd5b50610200610784565b3480156102e057600080fd5b5061020061078a565b3480156102f557600080fd5b5061027b610790565b34801561030a57600080fd5b506103136107a4565b60408051600160a060020a039092168252519081900360200190f35b34801561033b57600080fd5b5061013e6107b3565b34801561035057600080fd5b5061027b600160a060020a036004358116906024358116906044351661080e565b34801561037d57600080fd5b506101d7600160a060020a03600435166024356109f7565b3480156103a157600080fd5b5061027b600160a060020a0360043516602435610a0f565b3480156103c557600080fd5b506103da600160a060020a0360043516610b6a565b60408051600160a060020a03909616865293151560208601528484019290925260608401526080830152519081900360a00190f35b34801561041b57600080fd5b5061027b600160a060020a0360043516602435610ba9565b34801561043f57600080fd5b50610313610c50565b34801561045457600080fd5b50610200600160a060020a0360043581169060243516610c5f565b34801561047b57600080fd5b50610200600160a060020a0360043516602435610c8a565b34801561049f57600080fd5b50610200610cb6565b3480156104b457600080fd5b5061027b600160a060020a0360043581169060243516604435606435610cbc565b6005805460408051602060026001851615610100026000190190941693909304601f8101849004840282018401909252818152929183018282801561055b5780601f106105305761010080835404028352916020019161055b565b820191906000526020600020905b81548152906001019060200180831161053e57829003601f168201915b505050505081565b600c54600090819081106101245761057b8484610e1e565b949350505050565b60085481565b600c5460009081908110610124576105a2858585610e84565b95945050505050565b600b5481565b60075481565b600c54600090819081908110610124573360008181526004602052604090206003015460ff161515600114156105ec57600080fd5b3360009081526004602052604090208054909450600160a060020a0316151561061457600080fd5b836002015492505b8360040154831015610722576000838152600585016020526040902054421115610712576000838152600585016020526040902054151561065c57610717565b8354600160a060020a0316600090815260016020819052604090912054908501546106879190610f6f565b8454600160a060020a0390811660009081526001602081815260408084209590955560028901889055885488845260058a018252928590205491890154855192835290820152835191909216927f2b577ec402ae31a9dbaa519b3cd7528c3b7a6132629249b3f16ce9bcf647d060928290030190a26000838152600585016020526040812055610717565b610722565b60019092019161061c565b50505050565b600354600160a060020a031633141561076657600160a060020a038116156107665760038054600160a060020a031916600160a060020a0383161790555b50565b600160a060020a031660009081526001602052604090205490565b60095481565b600c5481565b60038054600160a060020a03191633179055565b600354600160a060020a031681565b6006805460408051602060026001851615610100026000190190941693909304601f8101849004840282018401909252818152929183018282801561055b5780601f106105305761010080835404028352916020019161055b565b600d546000908190600160a060020a0316331461082a57600080fd5b600160a060020a038516600090815260046020526040902060030154859060ff1615156001141561085a57600080fd5b600160a060020a038087166000908152600460205260409020805490945016158061089e5750600160a060020a038581166000908152600460205260409020541615155b156108a857600080fd5b600160a060020a03858116600090815260046020819052604090912085548154908416600160a060020a031991821617808355600180890154818501556002808a0154908501556003808a018054918601805460ff1990811660ff94851615151782558c8901549888019890985593909416968b169690961790935581549093168217905590549091161515141561093f57600080fd5b600091505b600160a060020a038516600090815260046020819052604090912001548210156109a857600082815260058085016020908152604080842054600160a060020a038a1685526004835281852087865290930190915290912055600190910190610944565b60408051600160a060020a03878116825286811660208301528251908916927f330696c840f54ff24ce8bae2a98b5f5e34bd0970eccbfccbcf4424eae61dc882928290030190a2505050505050565b600c54600090819081106101245761057b8484610f93565b6003546000908190600160a060020a031633141561072257600c5460019060001081141561012457600160a060020a038516600090815260046020526040902060030154859060ff16151560011415610a6757600080fd5b600160a060020a0380871660009081526004602052604090208054909550161580610a90575084155b80610aa05750600b548460040154145b15610aaa57600080fd5b600084600401541115610b02576004840154600019016000908152600585016020526040902054925084831115610ae057600080fd5b8460095484011115610af157600080fd5b84600a5484011015610b0257600080fd5b60048401805460018101909155600090815260058501602090815260409182902087905581518781529151600160a060020a038916927fab1193fa0c6ffb2c7b295e9c7c2f18c9f0dadec10a9ef42faddc81b2d297d7d892908290030190a2505b5050505050565b600160a060020a03908116600090815260046020819052604090912080546003820154600183015460028401549390940154919094169460ff90941693565b600354600160a060020a0316331415610c4c57600c5460019060001081141561012457600160a060020a0383166000908152600160205260409020548390151561012457600160a060020a038416600081815260016020908152604091829020869055600c8054600019019055815186815291517f5c2c648b474524b772a4d3e35f7341f362b572552f301e69c2cd14e4d5f9f1809281900390910190a2610722565b5050565b600d54600160a060020a031681565b600160a060020a03918216600090815260026020908152604080832093909416825291909152205490565b600160a060020a0391909116600090815260046020908152604080832093835260059093019052205490565b600a5481565b610cc4611045565b600354600160a060020a0316331415610b6357600c5460019060001081141561012457600160a060020a038087166000908152600460205260409020548791161515610124576040805160a081018252600160a060020a038816808252602080830188905260008385018190526060840181905260808401819052918252600190529190912054909350610d589086610f6f565b600160a060020a038781166000908152600160208181526040808420959095558b841680845260048083529386902089518154600160a060020a031916961695861781558983015193810193909355888601516002840155606089015160038401805460ff191691151591909117905560808901519290930191909155600c805460001901905583519283528201889052825190927f3c2b25086aaee14acb2109f85b8d41811b10bd6811d9206899bf9c613f3ba4ac928290030190a250505050505050565b336000818152600260209081526040808320600160a060020a038716808552908352818420869055815186815291519394909390927f8c5be1e5ebec7d5bd14f71427d1e84f3dd0314c0f7b2291e5b200ac8c7c3b925928290030190a350600192915050565b600160a060020a03808416600090815260026020908152604080832033845282528083205493861683526001909152812054909190610ec39084610f6f565b600160a060020a038086166000908152600160205260408082209390935590871681522054610ef29084611025565b600160a060020a038616600090815260016020526040902055610f158184611025565b600160a060020a0380871660008181526002602090815260408083203384528252918290209490945580518781529051928816939192600080516020611081833981519152929181900390910190a3506001949350505050565b6000828201610f8c848210801590610f875750838210155b611039565b9392505050565b33600090815260016020526040812054610fad9083611025565b3360009081526001602052604080822092909255600160a060020a03851681522054610fd99083610f6f565b600160a060020a0384166000818152600160209081526040918290209390935580518581529051919233926000805160206110818339815191529281900390910190a350600192915050565b600061103383831115611039565b50900390565b80151561076657600080fd5b60a0604051908101604052806000600160a060020a0316815260200160008152602001600081526020016000151581526020016000815250905600ddf252ad1be2c89b69c2b068fc378daa952ba7f163c4a11628f55a4df523b3efa165627a7a72305820a3071ee2909aca62eca7012713e559f7eb2c5eae4fc892d0af57beb752b4afab0029",
  "source": "pragma solidity ^0.4.18;\n\ncontract WingsOwnable {\n  address public owner;\n\n  function Ownable() {\n    owner = msg.sender;\n  }\n\n  modifier onlyOwner() {\n    if (msg.sender == owner)\n      _;\n  }\n\n  function transferOwner(address newOwner) onlyOwner {\n    if (newOwner != address(0)) owner = newOwner;\n  }\n\n}\n\ncontract WingsERC20 {\n  uint public totalSupply;\n  function balanceOf(address who) constant returns (uint);\n  function allowance(address owner, address spender) constant returns (uint);\n\n  function transfer(address to, uint value) returns (bool ok);\n  function transferFrom(address from, address to, uint value) returns (bool ok);\n  function approve(address spender, uint value) returns (bool ok);\n  event Transfer(address indexed from, address indexed to, uint value);\n  event Approval(address indexed owner, address indexed spender, uint value);\n}\n\ncontract WingsSafeMath {\n  function safeMul(uint a, uint b) internal returns (uint) {\n    uint c = a * b;\n    assert(a == 0 || c / a == b);\n    return c;\n  }\n\n  function safeSub(uint a, uint b) internal returns (uint) {\n    assert(b <= a);\n    return a - b;\n  }\n\n  function safeAdd(uint a, uint b) internal returns (uint) {\n    uint c = a + b;\n    assert(c>=a && c>=b);\n    return c;\n  }\n\n  function assert(bool assertion) internal {\n    if (!assertion) throw;\n  }\n}\n\ncontract WingsStandardToken is WingsERC20, WingsSafeMath {\n\n  mapping(address => uint) balances;\n  mapping (address => mapping (address => uint)) allowed;\n\n  function transfer(address _to, uint _value) returns (bool success) {\n    balances[msg.sender] = safeSub(balances[msg.sender], _value);\n    balances[_to] = safeAdd(balances[_to], _value);\n    Transfer(msg.sender, _to, _value);\n    return true;\n  }\n\n  function transferFrom(address _from, address _to, uint _value) returns (bool success) {\n    var _allowance = allowed[_from][msg.sender];\n\n    balances[_to] = safeAdd(balances[_to], _value);\n    balances[_from] = safeSub(balances[_from], _value);\n    allowed[_from][msg.sender] = safeSub(_allowance, _value);\n    Transfer(_from, _to, _value);\n    return true;\n  }\n\n  function balanceOf(address _owner) constant returns (uint balance) {\n    return balances[_owner];\n  }\n\n  function approve(address _spender, uint _value) returns (bool success) {\n    allowed[msg.sender][_spender] = _value;\n    Approval(msg.sender, _spender, _value);\n    return true;\n  }\n\n  function allowance(address _owner, address _spender) constant returns (uint remaining) {\n    return allowed[_owner][_spender];\n  }\n\n}\n\n/*\n  Wings ERC20 Token.\n  Added allocation for users who participiated in Wings Campaign.\n\n  Important!\n  We have to run pre-mine allocation first.\n  And only then rest of users.\n  Or it's not going to work due to whenAllocation logic.\n*/\ncontract Token is WingsStandardToken, WingsOwnable {\n  // Account allocation event\n  event ALLOCATION(address indexed account, uint amount);\n\n  /*\n    Premine events\n  */\n  event PREMINER_ADDED(address indexed owner, address account, uint amount);\n  event PREMINE_ALLOCATION_ADDED(address indexed account, uint time);\n  event PREMINE_RELEASE(address indexed account, uint timestamp, uint amount);\n  event PREMINER_CHANGED(address indexed oldPreminer, address newPreminer, address newRecipient);\n\n  /*\n    Premine structure\n  */\n  struct Preminer {\n    address account;\n    uint monthlyPayment;\n    uint latestAllocation;\n    bool disabled;\n\n    uint allocationsCount;\n    mapping(uint => uint) allocations;\n  }\n\n  /*\n    List of preminers\n  */\n  mapping(address => Preminer) preminers;\n\n  /*\n    Token Name & Token Symbol & Decimals\n  */\n  string public name = \"WINGS\";\n  string public symbol = \"WINGS\";\n  uint public decimals = 18;\n\n  /*\n    Total supply\n  */\n  uint public totalSupply = 10**26;//100000000000000000000000000;\n\n  /*\n    Premine allocation interval\n  */\n  uint public DAYS_28 = 2419200;\n  uint public DAYS_31 = 2678400;\n\n  /*\n    Maximum premine allocations count\n  */\n  uint public MAX_ALLOCATIONS_COUNT = 26;\n\n  /*\n    How many accounts allocated?\n  */\n  uint public accountsToAllocate;\n\n  /*\n    Multisignature\n  */\n  address public multisignature;\n\n  /*\n    Only multisignature\n  */\n  modifier onlyMultisignature() {\n    if (msg.sender != multisignature) {\n      throw;\n    }\n\n    _;\n  }\n\n  /*\n    When preminer is not disabled\n  */\n  modifier whenPreminerIsntDisabled(address _account) {\n    if (preminers[_account].disabled == true) {\n      throw;\n    }\n\n    _;\n  }\n\n  /*\n    Modifier for checking is allocation completed.\n    Maybe we should add here pre-mine accounts too.\n  */\n  modifier whenAllocation(bool value) {\n    if ((accountsToAllocate > 0) == value) {\n      _;\n    } else {\n      throw;\n    }\n  }\n\n  /*\n    Check if user already allocated\n  */\n  modifier whenAccountHasntAllocated(address user) {\n    if (balances[user] == 0) {\n      _;\n    } else {\n      throw;\n    }\n  }\n\n  /*\n    Check if preminer already added\n  */\n  modifier whenPremineHasntAllocated(address preminer) {\n    if (preminers[preminer].account == address(0)) {\n      _;\n    } else {\n      throw;\n    }\n  }\n\n  function Token(uint _accountsToAllocate, address _multisignature) {\n    /*\n      Maybe we should calculate it in allocation and pre-mine.\n      I mean total supply\n    */\n    owner = msg.sender;\n    accountsToAllocate = _accountsToAllocate;\n    multisignature = _multisignature;\n  }\n\n  /*\n    Allocate tokens for users.\n    Only owner and only while allocation active.\n\n    Should check if user allocated already (no double allocations)\n  */\n  function allocate(address user, uint balance) onlyOwner() whenAllocation(true) whenAccountHasntAllocated(user) {\n    balances[user] = balance;\n\n    accountsToAllocate--;\n    ALLOCATION(user, balance);\n  }\n\n  /*\n    Standard Token functional\n  */\n  function transfer(address _to, uint _value) whenAllocation(false) returns (bool success) {\n    return super.transfer(_to, _value);\n  }\n\n  function transferFrom(address _from, address _to, uint _value) whenAllocation(false) returns (bool success) {\n    return super.transferFrom(_from, _to, _value);\n  }\n\n  function approve(address _spender, uint _value) whenAllocation(false) returns (bool success) {\n    return super.approve(_spender, _value);\n  }\n\n  /*\n    Premine functionality\n  */\n\n  /*\n    Add pre-mine account\n  */\n  function addPreminer(address preminer, address recipient, uint initialBalance, uint monthlyPayment) onlyOwner() whenAllocation(true) whenPremineHasntAllocated(preminer) {\n    var premine = Preminer(\n        recipient,\n        monthlyPayment,\n        0,\n        false,\n        0\n      );\n\n\n    balances[recipient] = safeAdd(balances[recipient], initialBalance);\n    preminers[preminer] = premine;\n    accountsToAllocate--;\n    PREMINER_ADDED(preminer, premine.account, initialBalance);\n  }\n\n  /*\n    Disable pre-miner\n  */\n  function disablePreminer(address _preminer, address _newPreminer, address _newRecipient) onlyMultisignature() whenPreminerIsntDisabled(_preminer) {\n    var oldPreminer = preminers[_preminer];\n\n    if (oldPreminer.account == address(0) || preminers[_newPreminer].account != address(0)) {\n      throw;\n    }\n\n    preminers[_newPreminer] = oldPreminer;\n    preminers[_newPreminer].account = _newRecipient;\n    oldPreminer.disabled = true;\n\n    if(preminers[_newPreminer].disabled == true) {\n      throw;\n    }\n\n    for (uint i = 0; i < preminers[_newPreminer].allocationsCount; i++) {\n      preminers[_newPreminer].allocations[i] = oldPreminer.allocations[i];\n    }\n\n    PREMINER_CHANGED(_preminer, _newPreminer, _newRecipient);\n  }\n\n  /*\n    Add pre-mine allocation\n  */\n  function addPremineAllocation(address _preminer, uint _time) onlyOwner() whenAllocation(true) whenPreminerIsntDisabled(_preminer) {\n    var preminer = preminers[_preminer];\n\n    if (preminer.account == address(0) ||  _time == 0 || preminer.allocationsCount == MAX_ALLOCATIONS_COUNT) {\n      throw;\n    }\n\n    if (preminer.allocationsCount > 0) {\n      var previousAllocation = preminer.allocations[preminer.allocationsCount-1];\n\n      if (previousAllocation > _time) {\n        throw;\n      }\n\n      if (previousAllocation + DAYS_28 > _time) {\n        throw;\n      }\n\n      if (previousAllocation + DAYS_31 < _time) {\n        throw;\n      }\n    }\n\n    preminer.allocations[preminer.allocationsCount++] = _time;\n    PREMINE_ALLOCATION_ADDED(_preminer, _time);\n  }\n\n  /*\n    Get preminer\n  */\n  function getPreminer(address _preminer) constant returns (address, bool, uint, uint, uint) {\n    var preminer = preminers[_preminer];\n\n    return (preminer.account, preminer.disabled, preminer.monthlyPayment, preminer.latestAllocation, preminer.allocationsCount);\n  }\n\n  /*\n    Get preminer allocation time by index\n  */\n  function getPreminerAllocation(address _preminer, uint _index) constant returns (uint) {\n    return preminers[_preminer].allocations[_index];\n  }\n\n  /*\n    Release premine when preminer asking\n    Gas usage: 0x5786 or 22406 GAS.\n    Maximum is 26 months of pre-mine in case of Wings. So should be enough to execute it.\n  */\n  function releasePremine() whenAllocation(false) whenPreminerIsntDisabled(msg.sender) {\n    var preminer = preminers[msg.sender];\n\n    if (preminer.account == address(0)) {\n      throw;\n    }\n\n    for (uint i = preminer.latestAllocation; i < preminer.allocationsCount; i++) {\n      if (preminer.allocations[i] < block.timestamp) {\n        if (preminer.allocations[i] == 0) {\n          continue;\n        }\n\n        balances[preminer.account] = safeAdd(balances[preminer.account], preminer.monthlyPayment);\n        preminer.latestAllocation = i;\n\n        PREMINE_RELEASE(preminer.account, preminer.allocations[i], preminer.monthlyPayment);\n        preminer.allocations[i] = 0;\n      } else {\n        break;\n      }\n    }\n  }\n}\n",
  "sourcePath": "/Users/solidity/Desktop/github/master-contracts/private-contracts/contracts/Token.sol",
  "compiler": {
    "name": "solc",
    "version": "0.4.24+commit.e67f0147.Emscripten.clang"
  },
  "schemaVersion": "2.0.0",
  "updatedAt": "2018-06-14T10:22:14.814Z"
}