{
  "contractName": "UserStorage",
  "abi": [
    {
      "constant": true,
      "inputs": [],
      "name": "allowMigrations",
      "outputs": [
        {
          "name": "",
          "type": "bool"
        }
      ],
      "payable": false,
      "stateMutability": "view",
      "type": "function"
    },
    {
      "constant": true,
      "inputs": [],
      "name": "D2",
      "outputs": [
        {
          "name": "",
          "type": "uint256"
        }
      ],
      "payable": false,
      "stateMutability": "view",
      "type": "function"
    },
    {
      "constant": true,
      "inputs": [],
      "name": "D3",
      "outputs": [
        {
          "name": "",
          "type": "uint256"
        }
      ],
      "payable": false,
      "stateMutability": "view",
      "type": "function"
    },
    {
      "constant": true,
      "inputs": [],
      "name": "totalLocked",
      "outputs": [
        {
          "name": "",
          "type": "uint256"
        }
      ],
      "payable": false,
      "stateMutability": "view",
      "type": "function"
    },
    {
      "constant": true,
      "inputs": [
        {
          "name": "",
          "type": "address"
        }
      ],
      "name": "accounts",
      "outputs": [
        {
          "name": "wingsBalance",
          "type": "uint256"
        },
        {
          "name": "wingsLocked",
          "type": "uint256"
        },
        {
          "name": "nActiveProjects",
          "type": "uint64"
        },
        {
          "name": "FR",
          "type": "uint64"
        },
        {
          "name": "lastOpenTimestamp",
          "type": "uint64"
        }
      ],
      "payable": false,
      "stateMutability": "view",
      "type": "function"
    },
    {
      "constant": true,
      "inputs": [],
      "name": "semanticVersion",
      "outputs": [
        {
          "name": "",
          "type": "string"
        }
      ],
      "payable": false,
      "stateMutability": "view",
      "type": "function"
    },
    {
      "constant": true,
      "inputs": [],
      "name": "owner",
      "outputs": [
        {
          "name": "",
          "type": "address"
        }
      ],
      "payable": false,
      "stateMutability": "view",
      "type": "function"
    },
    {
      "constant": true,
      "inputs": [],
      "name": "D1",
      "outputs": [
        {
          "name": "",
          "type": "uint256"
        }
      ],
      "payable": false,
      "stateMutability": "view",
      "type": "function"
    },
    {
      "constant": true,
      "inputs": [],
      "name": "totalReserved",
      "outputs": [
        {
          "name": "",
          "type": "uint256"
        }
      ],
      "payable": false,
      "stateMutability": "view",
      "type": "function"
    },
    {
      "constant": true,
      "inputs": [],
      "name": "totalFR",
      "outputs": [
        {
          "name": "",
          "type": "uint256"
        }
      ],
      "payable": false,
      "stateMutability": "view",
      "type": "function"
    },
    {
      "constant": false,
      "inputs": [
        {
          "name": "newOwner",
          "type": "address"
        }
      ],
      "name": "transferOwnership",
      "outputs": [],
      "payable": false,
      "stateMutability": "nonpayable",
      "type": "function"
    },
    {
      "constant": true,
      "inputs": [],
      "name": "token",
      "outputs": [
        {
          "name": "",
          "type": "address"
        }
      ],
      "payable": false,
      "stateMutability": "view",
      "type": "function"
    },
    {
      "inputs": [
        {
          "name": "_token",
          "type": "address"
        },
        {
          "name": "_owner",
          "type": "address"
        }
      ],
      "payable": false,
      "stateMutability": "nonpayable",
      "type": "constructor"
    },
    {
      "anonymous": false,
      "inputs": [
        {
          "indexed": true,
          "name": "account",
          "type": "address"
        }
      ],
      "name": "ACCOUNT_ADDED",
      "type": "event"
    },
    {
      "anonymous": false,
      "inputs": [
        {
          "indexed": true,
          "name": "account",
          "type": "address"
        },
        {
          "indexed": false,
          "name": "amount",
          "type": "uint256"
        },
        {
          "indexed": false,
          "name": "totalReserved",
          "type": "uint256"
        }
      ],
      "name": "WINGS_RESERVED",
      "type": "event"
    },
    {
      "anonymous": false,
      "inputs": [
        {
          "indexed": true,
          "name": "account",
          "type": "address"
        },
        {
          "indexed": false,
          "name": "forecastingContract",
          "type": "address"
        }
      ],
      "name": "PROJECT_ADDED",
      "type": "event"
    },
    {
      "anonymous": false,
      "inputs": [
        {
          "indexed": true,
          "name": "account",
          "type": "address"
        },
        {
          "indexed": false,
          "name": "forecastingContract",
          "type": "address"
        }
      ],
      "name": "PROJECT_OPENED",
      "type": "event"
    },
    {
      "anonymous": false,
      "inputs": [
        {
          "indexed": true,
          "name": "account",
          "type": "address"
        },
        {
          "indexed": false,
          "name": "from",
          "type": "address"
        },
        {
          "indexed": false,
          "name": "dFR",
          "type": "int32"
        },
        {
          "indexed": false,
          "name": "newFR",
          "type": "uint64"
        }
      ],
      "name": "PROJECT_CLOSED",
      "type": "event"
    },
    {
      "anonymous": false,
      "inputs": [
        {
          "indexed": true,
          "name": "account",
          "type": "address"
        },
        {
          "indexed": false,
          "name": "amount",
          "type": "uint256"
        }
      ],
      "name": "WINGS_RELEASED",
      "type": "event"
    },
    {
      "anonymous": false,
      "inputs": [
        {
          "indexed": true,
          "name": "previousOwner",
          "type": "address"
        },
        {
          "indexed": true,
          "name": "newOwner",
          "type": "address"
        }
      ],
      "name": "OwnershipTransferred",
      "type": "event"
    },
    {
      "constant": false,
      "inputs": [],
      "name": "lockMigrations",
      "outputs": [],
      "payable": false,
      "stateMutability": "nonpayable",
      "type": "function"
    },
    {
      "constant": false,
      "inputs": [
        {
          "name": "_D1",
          "type": "uint256"
        },
        {
          "name": "_D2",
          "type": "uint256"
        },
        {
          "name": "_D3",
          "type": "uint256"
        }
      ],
      "name": "setupDecayParams",
      "outputs": [],
      "payable": false,
      "stateMutability": "nonpayable",
      "type": "function"
    },
    {
      "constant": false,
      "inputs": [
        {
          "name": "_account",
          "type": "address"
        },
        {
          "name": "_dFR",
          "type": "int32"
        }
      ],
      "name": "migrateFR",
      "outputs": [],
      "payable": false,
      "stateMutability": "nonpayable",
      "type": "function"
    },
    {
      "constant": false,
      "inputs": [
        {
          "name": "_amount",
          "type": "uint256"
        }
      ],
      "name": "reserveWings",
      "outputs": [],
      "payable": false,
      "stateMutability": "nonpayable",
      "type": "function"
    },
    {
      "constant": false,
      "inputs": [
        {
          "name": "_account",
          "type": "address"
        },
        {
          "name": "_forecastingContract",
          "type": "address"
        }
      ],
      "name": "addProject",
      "outputs": [],
      "payable": false,
      "stateMutability": "nonpayable",
      "type": "function"
    },
    {
      "constant": false,
      "inputs": [
        {
          "name": "_account",
          "type": "address"
        },
        {
          "name": "_amount",
          "type": "uint256"
        }
      ],
      "name": "openProject",
      "outputs": [
        {
          "name": "FR",
          "type": "uint64"
        },
        {
          "name": "locked",
          "type": "uint256"
        }
      ],
      "payable": false,
      "stateMutability": "nonpayable",
      "type": "function"
    },
    {
      "constant": false,
      "inputs": [
        {
          "name": "_account",
          "type": "address"
        },
        {
          "name": "_amount",
          "type": "uint256"
        }
      ],
      "name": "lockWings",
      "outputs": [
        {
          "name": "wingsLocked",
          "type": "uint256"
        }
      ],
      "payable": false,
      "stateMutability": "nonpayable",
      "type": "function"
    },
    {
      "constant": false,
      "inputs": [
        {
          "name": "_account",
          "type": "address"
        },
        {
          "name": "_dFR",
          "type": "int32"
        },
        {
          "name": "_cancelProject",
          "type": "bool"
        }
      ],
      "name": "closeProject",
      "outputs": [],
      "payable": false,
      "stateMutability": "nonpayable",
      "type": "function"
    },
    {
      "constant": false,
      "inputs": [
        {
          "name": "_maxAmount",
          "type": "uint256"
        }
      ],
      "name": "releaseWings",
      "outputs": [
        {
          "name": "released",
          "type": "uint256"
        }
      ],
      "payable": false,
      "stateMutability": "nonpayable",
      "type": "function"
    },
    {
      "constant": true,
      "inputs": [
        {
          "name": "_account",
          "type": "address"
        }
      ],
      "name": "getFR",
      "outputs": [
        {
          "name": "FR",
          "type": "uint64"
        }
      ],
      "payable": false,
      "stateMutability": "view",
      "type": "function"
    },
    {
      "constant": true,
      "inputs": [
        {
          "name": "_account",
          "type": "address"
        }
      ],
      "name": "getWingsBalance",
      "outputs": [
        {
          "name": "balance",
          "type": "uint256"
        }
      ],
      "payable": false,
      "stateMutability": "view",
      "type": "function"
    },
    {
      "constant": true,
      "inputs": [
        {
          "name": "_account",
          "type": "address"
        }
      ],
      "name": "getLockedWings",
      "outputs": [
        {
          "name": "locked",
          "type": "uint256"
        }
      ],
      "payable": false,
      "stateMutability": "view",
      "type": "function"
    }
  ],
  "bytecode": "0x60806040523480156200001157600080fd5b50604051604080620018f9833981016040818152825160209384015182840190925260058084527f312e302e3000000000000000000000000000000000000000000000000000000094840194855260008054600160a060020a031916331790559093919291620000859160019190620000c6565b505060028054600160a060020a03938416600160a060020a031991821617909155600080549290931691161790556006805460ff191660011790556200016b565b828054600181600116156101000203166002900490600052602060002090601f016020900481019282601f106200010957805160ff191683800117855562000139565b8280016001018555821562000139579182015b82811115620001395782518255916020019190600101906200011c565b50620001479291506200014b565b5090565b6200016891905b8082111562000147576000815560010162000152565b90565b61177e806200017b6000396000f3006080604052600436106101235763ffffffff60e060020a600035041662affc2f81146101285780630526ee4a14610151578063066cb6541461017a57806306e59901146101a157806317870e59146101b95780632d651c0e146101ce5780633b954207146101fa5780633ebc9371146102215780633fcf41f1146102365780634f8f3f671461024e57806353aa3ea71461028b57806356891412146102ac5780635e5c06e2146102c157806388b9022f146103195780638da5cb5b146103a35780639bf3f7e5146103d4578063a919eac0146103f8578063b7ba886114610416578063c6ca550c1461045d578063c71b0e1c14610472578063cf567d9914610487578063d36d5d95146104a8578063f2fde38b146104bd578063fc0c546a146104de575b600080fd5b34801561013457600080fd5b5061014f600160a060020a03600435811690602435166104f3565b005b34801561015d57600080fd5b5061016661062a565b604080519115158252519081900360200190f35b34801561018657600080fd5b5061018f610633565b60408051918252519081900360200190f35b3480156101ad57600080fd5b5061014f600435610639565b3480156101c557600080fd5b5061014f6106f8565b3480156101da57600080fd5b5061014f600160a060020a036004351660243560030b604435151561072c565b34801561020657600080fd5b5061014f600160a060020a036004351660243560030b610a45565b34801561022d57600080fd5b5061018f610bf4565b34801561024257600080fd5b5061018f600435610bfa565b34801561025a57600080fd5b5061026f600160a060020a0360043516610d81565b604080516001604060020a039092168252519081900360200190f35b34801561029757600080fd5b5061018f600160a060020a0360043516610daf565b3480156102b857600080fd5b5061018f610dca565b3480156102cd57600080fd5b506102e2600160a060020a0360043516610dd0565b6040805195865260208601949094526001604060020a03928316858501529082166060850152166080830152519081900360a00190f35b34801561032557600080fd5b5061032e610e10565b6040805160208082528351818301528351919283929083019185019080838360005b83811015610368578181015183820152602001610350565b50505050905090810190601f1680156103955780820380516001836020036101000a031916815260200191505b509250505060405180910390f35b3480156103af57600080fd5b506103b8610e9d565b60408051600160a060020a039092168252519081900360200190f35b3480156103e057600080fd5b5061018f600160a060020a0360043516602435610eac565b34801561040457600080fd5b5061014f600435602435604435610fd4565b34801561042257600080fd5b5061043a600160a060020a036004351660243561104a565b604080516001604060020a03909316835260208301919091528051918290030190f35b34801561046957600080fd5b5061018f61144f565b34801561047e57600080fd5b5061018f611455565b34801561049357600080fd5b5061018f600160a060020a036004351661145b565b3480156104b457600080fd5b5061018f611479565b3480156104c957600080fd5b5061014f600160a060020a036004351661147f565b3480156104ea57600080fd5b506103b8611506565b60008054600160a060020a0316331461050b57600080fd5b600160a060020a0382161580159061052b5750600160a060020a03831615155b151561053657600080fd5b6000600160a060020a038085166000908152600a602090815260408083209387168352600393840190915290205460ff169081111561057157fe5b1461057b57610625565b50600160a060020a0382166000908152600a602052604090206002810154608060020a90046001604060020a031615156105b8576105b883611515565b600160a060020a038381166000818152600a602090815260408083209487168084526003909501825291829020805460ff191660011790558151938452905191927fdceba8857a00287743f53c6c9d5c7be9388bbf45952e4964873f834cba127fec929081900390910190a25b505050565b60065460ff1681565b60085481565b336000908152600a602052604090206002810154608060020a90046001604060020a0316151561066c5761066c33611515565b60008211156106aa5761067f33836115a7565b8054610691908363ffffffff6116d316565b81556003546106a6908363ffffffff6116d316565b6003555b336000818152600a60209081526040918290205482518681529182015281517fbc186fd9416afeb1ac99613de1635c5bb5a9d5ddff8e6a1c5066841c3e176902929181900390910190a25050565b600054600160a060020a0316331461070f57600080fd5b60065460ff16151561072057600080fd5b6006805460ff19169055565b600080846001600160a060020a038216158015906107795750600160a060020a0382166000908152600a60205260409020600201546001604060020a03608060020a909104161515811515145b151561078457600080fd5b866002600160a060020a0382166000908152600a6020908152604080832033845260039081019092529091205460ff16908111156107be57fe5b146107c857600080fd5b600160a060020a0388166000908152600a6020526040812060028101549096506001604060020a0316116107f857fe5b60008760030b131561086857600285015461082790604060020a90046001604060020a0316600389900b6116e9565b600286018054604060020a608060020a031916604060020a6001604060020a03938416021790556005546108609160038a900b166116d3565b600555610942565b60008760030b1215610942576002850154600088900360030b94506001604060020a03604060020a9091048116908516106108db5760028501546005546108be91604060020a90046001604060020a0316611704565b600555600285018054604060020a608060020a0319169055610942565b6005546108f7906001604060020a03861663ffffffff61170416565b600555600285015461091990604060020a90046001604060020a031685611716565b8560020160086101000a8154816001604060020a0302191690836001604060020a031602179055505b8561094e576003610951565b60005b336000908152600380880160205260409091208054909160ff1990911690600190849081111561097d57fe5b021790555060028501805467ffffffffffffffff1981166001604060020a039182166000190190911690811790915515156109d45760018501546004546109c99163ffffffff61170416565b600455600060018601555b60028501546040805133815260038a810b900b60208201526001604060020a03604060020a909304929092168282015251600160a060020a038a16917fecc9238928864c1f43d2487a1453276abca8bc34fe57e32319b3dac6716abfea919081900360600190a25050505050505050565b600080548190600160a060020a03163314610a5f57600080fd5b60065460ff161515610a7057600080fd5b600160a060020a0384166000908152600a602052604090206002810154909250608060020a90046001604060020a03161515610aaf57610aaf84611515565b60008360030b1315610b2a576002820154610ade90604060020a90046001604060020a0316600385900b6116e9565b6002830180546001604060020a0392909216604060020a02604060020a608060020a0319909216919091179055600554610b2290600385900b63ffffffff6116d316565b600555610bee565b60008360030b1215610bee57506002810154600083900360030b906001604060020a03604060020a90910481169082161015610bb4576002820154610b7f90604060020a90046001604060020a031682611716565b600283018054604060020a608060020a031916604060020a6001604060020a0393841602179055600554610b22918316611704565b6002820154600554610bd591604060020a90046001604060020a0316611704565b600555600282018054604060020a608060020a03191690555b50505050565b60095481565b6000803360018115801590610c3e5750600160a060020a0382166000908152600a60205260409020600201546001604060020a03608060020a909104161515811515145b1515610c4957600080fd5b336000908152600a6020526040902060018101548154919450610c72919063ffffffff61170416565b93508415610c8b5783851115610c8757600080fd5b8493505b6002546040805160e060020a63a9059cbb028152336004820152602481018790529051600160a060020a039092169163a9059cbb916044808201926020929091908290030181600087803b158015610ce257600080fd5b505af1158015610cf6573d6000803e3d6000fd5b505050506040513d6020811015610d0c57600080fd5b50511515610d1957600080fd5b8254610d2b908563ffffffff61170416565b8355600354610d40908563ffffffff61170416565b60035560408051858152905133917fbbb6fc9c1e6e3148e59c3382361d225fecae9b6bc8fcc86dc762674b5fe428fc919081900360200190a2505050919050565b600160a060020a03166000908152600a6020526040902060020154604060020a90046001604060020a031690565b600160a060020a03166000908152600a602052604090205490565b60045481565b600a602052600090815260409020805460018201546002909201549091906001604060020a0380821691604060020a8104821691608060020a9091041685565b60018054604080516020600284861615610100026000190190941693909304601f81018490048402820184019092528181529291830182828015610e955780601f10610e6a57610100808354040283529160200191610e95565b820191906000526020600020905b815481529060010190602001808311610e7857829003601f168201915b505050505081565b600054600160a060020a031681565b60008080846001600160a060020a03821615801590610efa5750600160a060020a0382166000908152600a60205260409020600201546001604060020a03608060020a909104161515811515145b1515610f0557600080fd5b866002600160a060020a0382166000908152600a6020908152604080832033845260039081019092529091205460ff1690811115610f3f57fe5b14610f4957600080fd5b600160a060020a0388166000908152600a6020526040902060018101548154919650610f7b919063ffffffff61170416565b935083871115610f8a57600080fd5b861515610f95578396505b6001850154610faa908863ffffffff6116d316565b6001860155600454610fc2908863ffffffff6116d316565b60045550505050600101549392505050565b600054600160a060020a03163314610feb57600080fd5b600083118015610ffa57508282115b801561100557508181115b8015611012575061072181105b151561101d57600080fd5b6201518080840260075582810260085581026009556110426103e86004815b04611704565b600b55505050565b6000806000806000806000806007541180156110695750600754600854115b80156110785750600854600954115b151561108357600080fd5b886001600160a060020a038216158015906110cd5750600160a060020a0382166000908152600a60205260409020600201546001604060020a03608060020a909104161515811515145b15156110d857600080fd5b8a6001600160a060020a0382166000908152600a6020908152604080832033845260039081019092529091205460ff169081111561111257fe5b1461111c57600080fd5b600160a060020a038c166000908152600a6020908152604080832033845260038101909252909120805460ff19166002179055600181015481549199506111639190611704565b9650868b111561117257600080fd5b8a151561117d57869a505b6001880154611192908c63ffffffff6116d316565b60018901556004546111aa908c63ffffffff6116d316565b60045560028801805467ffffffffffffffff19811660016001604060020a0392831601821617918290554297506000604060020a9092041611156113c0576002880154611208908790608060020a90046001604060020a0316611704565b935060095484111561122e57600288018054604060020a608060020a03191690556113c0565b6008548411156112fd578760020160089054906101000a90046001604060020a03166001604060020a03169450620f42406112c36112af6103e861127f60085460095461170490919063ffffffff16565b6112a66103e861129a6008548c61170490919063ffffffff16565b9063ffffffff61172e16565b81151561103c57fe5b600b5461129a90899063ffffffff61172e16565b8115156112cc57fe5b049450848860020160086101000a8154816001604060020a0302191690836001604060020a031602179055506113c0565b6007548411156113c0578760020160089054906101000a90046001604060020a03166001604060020a031694506103e861138a61137d6103e8600461134f60075460085461170490919063ffffffff16565b61136a6103e861129a6007548d61170490919063ffffffff16565b81151561137357fe5b0481151561103c57fe5b879063ffffffff61172e16565b81151561139357fe5b049450848860020160086101000a8154816001604060020a0302191690836001604060020a031602179055505b6002880180546001604060020a03808916608060020a02608060020a60c060020a0319909216919091179182905560018a0154604080513381529051604060020a9094049092169c509a50600160a060020a038e16917fa3014a06fda4192cfba488d79b45871c0f5de8a9870034d13bdb2a8c84a10aaf9181900360200190a250505050505050509250929050565b60075481565b60035481565b600160a060020a03166000908152600a602052604090206001015490565b60055481565b600054600160a060020a0316331461149657600080fd5b600160a060020a03811615156114ab57600080fd5b60008054604051600160a060020a03808516939216917f8be0079c531659141344cd1fd0a4f28419497f9722a3daafe3b4186f6b6457e091a360008054600160a060020a031916600160a060020a0392909216919091179055565b600254600160a060020a031681565b600160a060020a0381166000908152600a602052604090206002810154608060020a90046001604060020a03161561154957fe5b600281018054608060020a60c060020a031916608060020a426001604060020a031602179055604051600160a060020a038316907ff56cfd92d0fe1f47c04942ef8eef3987b581fbd265e11f2d8f82f6944e03693290600090a25050565b6002546040805160e160020a636eb1769f028152600160a060020a0385811660048301523060248301529151600093929092169163dd62ed3e9160448082019260209290919082900301818787803b15801561160257600080fd5b505af1158015611616573d6000803e3d6000fd5b505050506040513d602081101561162c57600080fd5b505190508181101561163d57600080fd5b6002546040805160e060020a6323b872dd028152600160a060020a03868116600483015230602483015260448201869052915191909216916323b872dd9160648083019260209291908290030181600087803b15801561169c57600080fd5b505af11580156116b0573d6000803e3d6000fd5b505050506040513d60208110156116c657600080fd5b5051151561062557600080fd5b6000828201838110156116e257fe5b9392505050565b60008282016001604060020a0380851690821610156116e257fe5b60008282111561171057fe5b50900390565b60006001604060020a03808416908316111561171057fe5b600082820283158061174a575082848281151561174757fe5b04145b15156116e257fe00a165627a7a72305820c93da32e808dc9446d9c00cc794c207bf266d0674eabcb8e3c2c82a5748ccd470029",
  "source": "pragma solidity ^0.4.18;\nimport \"../interfaces/IUserStorage.sol\";\nimport \"./SafeMathEx.sol\";\nimport \"zeppelin-solidity/contracts/token/ERC20.sol\";\n\n// Central storage for accounts implementation\ncontract UserStorage is IUserStorage {\n    using SafeMathEx for uint256;\n    using SafeMathEx for uint64;\n\n    // This means that in timeframe D1..D2 account can lose 1/4 of its FR at most\n    uint256 constant FIRST_DECAY_PERIOD_PART = 4;\n\n    // Promille coefficient of max decay in the 1st decay period, i.e. 1000-1000/FIRST_DECAY_PERIOD_PART\n    uint256 decayCoefficient;\n\n    // Ctor\n    function UserStorage(address _token, address _owner) public Version(\"1.0.0\") {\n        token = ERC20(_token);\n        owner = _owner;\n\n        allowMigrations = true;\n    }\n\n    // Lock migrations of accounts and their FR\n    function lockMigrations() public onlyOwner() isPossibleToMigrate() {\n      allowMigrations = false;\n    }\n\n    // Sets decay parameters,\n    // all args are time periods in days, assumed (but not required) that _D3-_D2 < _D2-_D1\n    function setupDecayParams(\n        uint256 _D1,\n        uint256 _D2,\n        uint256 _D3\n    )\n        public\n        onlyOwner()\n    {\n        require(_D1 > 0 && _D2 > _D1 && _D3 > _D2 && _D3 < 365*5);\n        D1 = _D1 * 1 days;\n        D2 = _D2 * 1 days;\n        D3 = _D3 * 1 days;\n        decayCoefficient = SafeMathEx.sub(1000, 1000/FIRST_DECAY_PERIOD_PART);\n    }\n\n    // Special function to setup already known account and assign it some dFR from alpha version projects\n    function migrateFR(\n        address _account,\n        int32 _dFR\n    )\n        public\n        onlyOwner()\n        isPossibleToMigrate()\n    {\n        AccountData storage a = accounts[_account];\n        if (a.lastOpenTimestamp == 0) {\n            addAccount(_account);\n        }\n\n        if (_dFR > 0) {\n            a.FR = a.FR.add64(uint64(_dFR));\n            totalFR = totalFR.add(uint256(_dFR));\n        } else if (_dFR < 0) {\n            uint64 toSub = uint64(-_dFR);\n            if (toSub < a.FR) {\n                a.FR = a.FR.sub64(toSub);\n                totalFR = totalFR.sub(toSub);\n            } else {\n                totalFR = totalFR.sub(a.FR);\n                a.FR = 0;\n            }\n        }\n    }\n\n    // Reserve some more WINGS for account.\n    // Called by account to reserve WINGS for itself.\n    function reserveWings(\n        uint256 _amount\n    )\n        public\n    {\n        AccountData storage a = accounts[msg.sender];\n        if (a.lastOpenTimestamp == 0) {\n            addAccount(msg.sender);\n        }\n\n        if (_amount > 0) {\n            deposit(msg.sender, _amount);\n            a.wingsBalance = a.wingsBalance.add(_amount);\n            totalReserved = totalReserved.add(_amount);\n        }\n\n        WINGS_RESERVED(msg.sender, _amount, accounts[msg.sender].wingsBalance);\n    }\n\n    // Adds a new project to an account: places address of Forecasting contract\n    // Called by owner\n    function addProject(\n        address _account,\n        address _forecastingContract\n    )\n        public\n        onlyOwner()\n    {\n        require(_forecastingContract != address(0) && _account != address(0));\n\n        if (accounts[_account].projects[_forecastingContract] != ProjectState.DoesNotExist) {\n          // Just return if project already added\n          return;\n        }\n\n        AccountData storage a = accounts[_account];\n        if (a.lastOpenTimestamp == 0) {\n            addAccount(_account);\n        }\n\n        // Now this Rewards contract is allowed to manipulate _account's FR\n        accounts[_account].projects[_forecastingContract] = ProjectState.Reserved;\n\n        PROJECT_ADDED(_account, _forecastingContract);\n    }\n\n    // Forecasting contract makes locks wings from account\n    // Called by Forecasting contract\n    function openProject(\n        address _account,\n        uint256 _amount\n    )\n        public\n        decayParamsAreSet()\n        accountMustExist(_account, true)\n        projectMustBeReserved(_account)\n        returns (uint64 FR, uint256 locked)\n    {\n        AccountData storage a = accounts[_account];\n        a.projects[msg.sender] = ProjectState.Active;\n\n        uint256 diff = a.wingsBalance.sub(a.wingsLocked);\n        require(_amount <= diff);\n\n        if (_amount == 0) {\n          _amount = diff;\n        }\n\n        a.wingsLocked = a.wingsLocked.add(_amount);\n        totalLocked = totalLocked.add(_amount);\n\n        ++a.nActiveProjects;\n\n        uint256 ts = block.timestamp;\n\n        if (a.FR > 0) {\n            uint256 newFR;\n            uint256 dT = ts.sub(a.lastOpenTimestamp);\n            if (dT > D3) {\n                // All decay periods expired, rating is lost\n                a.FR = 0;\n            } else if (dT > D2) {\n                // the 2nd decay period, FR goes down rapidly\n\n                newFR = a.FR;\n\n                newFR = newFR.mul(decayCoefficient).mul(\n                    SafeMathEx.sub(\n                        1000,\n                        dT.sub(D2).mul(1000) / D3.sub(D2)\n                    )\n                ) / 1000000;\n\n                a.FR = uint64(newFR);\n            } else if (dT > D1) {\n                // the 1st decay period, FR goes down slowly\n\n                newFR = a.FR;\n\n                newFR = newFR.mul(\n                    SafeMathEx.sub(\n                        1000,\n                        dT.sub(D1).mul(1000) / D2.sub(D1) / FIRST_DECAY_PERIOD_PART\n                    )\n                ) / 1000;\n\n                a.FR = uint64(newFR);\n            }\n        }\n\n        a.lastOpenTimestamp = uint64(ts);\n\n        FR = a.FR;\n        locked = a.wingsLocked;\n\n        PROJECT_OPENED(_account, msg.sender);\n    }\n\n    // Locks WINGS upto given amount (to increase weight)\n    // Called by Forecasting contract\n    function lockWings(\n        address _account,\n        uint256 _amount\n    )\n        public\n        accountMustExist(_account, true)\n        projectMustBeActive(_account)\n        returns (uint256 wingsLocked)\n    {\n        AccountData storage a = accounts[_account];\n        uint256 diff = a.wingsBalance.sub(a.wingsLocked);\n\n        require(_amount <= diff);\n\n        if (_amount == 0) {\n          _amount = diff;\n        }\n\n        a.wingsLocked = a.wingsLocked.add(_amount);\n        totalLocked = totalLocked.add(_amount);\n\n        wingsLocked = a.wingsLocked;\n    }\n\n    // Forecasting contract changes account's FR and deactivates itself in the storage\n    // Called by Forecasting contract\n    function closeProject(\n        address _account,\n        int32 _dFR,\n        bool _cancelProject\n    )\n        public\n        accountMustExist(_account, true)\n        projectMustBeActive(_account)\n    {\n        AccountData storage a = accounts[_account];\n        assert(a.nActiveProjects > 0);\n\n        if (_dFR > 0) {\n            a.FR = SafeMathEx.add64(a.FR, uint64(_dFR));\n            totalFR = totalFR.add(uint64(_dFR));\n        } else if (_dFR < 0) {\n            uint64 absD = uint64(-_dFR);\n            if (absD >= a.FR) {\n                totalFR = totalFR.sub(a.FR);\n                a.FR = 0;\n            } else {\n                totalFR = totalFR.sub(absD);\n                a.FR = SafeMathEx.sub64(a.FR, absD);\n            }\n        }\n\n        a.projects[msg.sender] = _cancelProject ? ProjectState.DoesNotExist : ProjectState.Closed;\n        if (--a.nActiveProjects == 0) {\n            totalLocked = totalLocked.sub(a.wingsLocked);\n            a.wingsLocked = 0;\n        }\n\n       PROJECT_CLOSED(_account, msg.sender, _dFR, a.FR);\n    }\n\n    // Releases (i.e. withdraws) WINGS reserved by account\n    // Called by account\n    // Returns WINGS released\n    function releaseWings(uint256 _maxAmount)\n        public\n        accountMustExist(msg.sender, true)\n        returns (uint256 released)\n    {\n        AccountData storage a = accounts[msg.sender];\n        released = a.wingsBalance.sub(a.wingsLocked);\n\n        if (_maxAmount != 0) {\n          require(_maxAmount <= released);\n          released = _maxAmount;\n        }\n\n        if (!token.transfer(msg.sender, released)) {\n            revert();\n        }\n\n        a.wingsBalance = a.wingsBalance.sub(released);\n        totalReserved = totalReserved.sub(released);\n\n        WINGS_RELEASED(msg.sender, released);\n    }\n\n    // Gets FR by address\n    function getFR(\n        address _account\n    )\n        public\n        constant\n        returns (uint64 FR)\n    {\n        FR = accounts[_account].FR;\n    }\n\n    // Gets reserved WINGS by address\n    function getWingsBalance(\n        address _account\n    )\n        public\n        constant\n        returns (uint256 balance)\n    {\n        balance = accounts[_account].wingsBalance;\n    }\n\n    // Gets locked WINGS by address\n    function getLockedWings(\n        address _account\n    )\n        public\n        constant\n        returns (uint256 locked)\n    {\n        locked = accounts[_account].wingsLocked;\n    }\n\n    // Adds a new account to storage\n    function addAccount(\n        address _newAccount\n    )\n        internal\n    {\n        AccountData storage a = accounts[_newAccount];\n        assert(a.lastOpenTimestamp == 0);\n        a.lastOpenTimestamp = uint64(block.timestamp);\n\n        ACCOUNT_ADDED(_newAccount);\n    }\n\n    // Makes a transfer of Wings from account to storage\n    function deposit(\n        address _account,\n        uint256 _value\n    )\n        internal\n    {\n        uint256 allocated = token.allowance(_account, address(this));\n        require(allocated >= _value);\n        if (!token.transferFrom(_account, address(this), _value)) {\n            revert();\n        }\n    }\n}\n",
  "sourcePath": "/Users/solidity/Desktop/github/master-contracts/private-contracts/contracts/forecasting/UserStorage.sol",
  "compiler": {
    "name": "solc",
    "version": "0.4.24+commit.e67f0147.Emscripten.clang"
  },
  "schemaVersion": "2.0.0",
  "updatedAt": "2018-06-26T10:56:13.623Z"
}