{
  "contractName": "Wings",
  "abi": [
    {
      "constant": true,
      "inputs": [],
      "name": "rewardsModelFactory",
      "outputs": [
        {
          "name": "",
          "type": "address"
        }
      ],
      "payable": false,
      "stateMutability": "view",
      "type": "function"
    },
    {
      "constant": true,
      "inputs": [],
      "name": "daoFactory",
      "outputs": [
        {
          "name": "",
          "type": "address"
        }
      ],
      "payable": false,
      "stateMutability": "view",
      "type": "function"
    },
    {
      "constant": true,
      "inputs": [],
      "name": "crowdsaleFactory",
      "outputs": [
        {
          "name": "",
          "type": "address"
        }
      ],
      "payable": false,
      "stateMutability": "view",
      "type": "function"
    },
    {
      "constant": true,
      "inputs": [],
      "name": "userStorage",
      "outputs": [
        {
          "name": "",
          "type": "address"
        }
      ],
      "payable": false,
      "stateMutability": "view",
      "type": "function"
    },
    {
      "constant": true,
      "inputs": [],
      "name": "semanticVersion",
      "outputs": [
        {
          "name": "",
          "type": "string"
        }
      ],
      "payable": false,
      "stateMutability": "view",
      "type": "function"
    },
    {
      "constant": true,
      "inputs": [],
      "name": "owner",
      "outputs": [
        {
          "name": "",
          "type": "address"
        }
      ],
      "payable": false,
      "stateMutability": "view",
      "type": "function"
    },
    {
      "constant": true,
      "inputs": [],
      "name": "forecastingFactory",
      "outputs": [
        {
          "name": "",
          "type": "address"
        }
      ],
      "payable": false,
      "stateMutability": "view",
      "type": "function"
    },
    {
      "constant": true,
      "inputs": [],
      "name": "tokenFactory",
      "outputs": [
        {
          "name": "",
          "type": "address"
        }
      ],
      "payable": false,
      "stateMutability": "view",
      "type": "function"
    },
    {
      "constant": true,
      "inputs": [],
      "name": "totalDAOsCount",
      "outputs": [
        {
          "name": "",
          "type": "uint256"
        }
      ],
      "payable": false,
      "stateMutability": "view",
      "type": "function"
    },
    {
      "constant": false,
      "inputs": [
        {
          "name": "newOwner",
          "type": "address"
        }
      ],
      "name": "transferOwnership",
      "outputs": [],
      "payable": false,
      "stateMutability": "nonpayable",
      "type": "function"
    },
    {
      "constant": true,
      "inputs": [],
      "name": "token",
      "outputs": [
        {
          "name": "",
          "type": "address"
        }
      ],
      "payable": false,
      "stateMutability": "view",
      "type": "function"
    },
    {
      "inputs": [
        {
          "name": "_token",
          "type": "address"
        }
      ],
      "payable": false,
      "stateMutability": "nonpayable",
      "type": "constructor"
    },
    {
      "anonymous": false,
      "inputs": [
        {
          "indexed": false,
          "name": "userStorage",
          "type": "address"
        },
        {
          "indexed": false,
          "name": "crowdsale",
          "type": "address"
        },
        {
          "indexed": false,
          "name": "forecasting",
          "type": "address"
        },
        {
          "indexed": false,
          "name": "rewards",
          "type": "address"
        },
        {
          "indexed": false,
          "name": "token",
          "type": "address"
        },
        {
          "indexed": false,
          "name": "dao",
          "type": "address"
        }
      ],
      "name": "WINGS_SETUP_FACTORIES",
      "type": "event"
    },
    {
      "anonymous": false,
      "inputs": [
        {
          "indexed": true,
          "name": "dao",
          "type": "address"
        }
      ],
      "name": "WINGS_DAO_ADD",
      "type": "event"
    },
    {
      "anonymous": false,
      "inputs": [
        {
          "indexed": true,
          "name": "previousOwner",
          "type": "address"
        },
        {
          "indexed": true,
          "name": "newOwner",
          "type": "address"
        }
      ],
      "name": "OwnershipTransferred",
      "type": "event"
    },
    {
      "constant": false,
      "inputs": [
        {
          "name": "_userStorage",
          "type": "address"
        },
        {
          "name": "_crowdsaleFactory",
          "type": "address"
        },
        {
          "name": "_forecastingFactory",
          "type": "address"
        },
        {
          "name": "_rewardsModelFactory",
          "type": "address"
        },
        {
          "name": "_tokenFactory",
          "type": "address"
        },
        {
          "name": "_daoFactory",
          "type": "address"
        },
        {
          "name": "_frDecay1",
          "type": "uint256"
        },
        {
          "name": "_frDecay2",
          "type": "uint256"
        },
        {
          "name": "_frDecay3",
          "type": "uint256"
        },
        {
          "name": "_wingsReserveAmount",
          "type": "uint256"
        },
        {
          "name": "_wingsReserveAmountForCustomCrowdsale",
          "type": "uint256"
        }
      ],
      "name": "setup",
      "outputs": [],
      "payable": false,
      "stateMutability": "nonpayable",
      "type": "function"
    },
    {
      "constant": false,
      "inputs": [
        {
          "name": "_name",
          "type": "string"
        },
        {
          "name": "_tokenName",
          "type": "string"
        },
        {
          "name": "_tokenSymbol",
          "type": "string"
        },
        {
          "name": "_infoHash",
          "type": "bytes32"
        },
        {
          "name": "_customCrowdsale",
          "type": "address"
        }
      ],
      "name": "createDAO",
      "outputs": [],
      "payable": false,
      "stateMutability": "nonpayable",
      "type": "function"
    },
    {
      "constant": false,
      "inputs": [
        {
          "name": "_account",
          "type": "address"
        },
        {
          "name": "_dFR",
          "type": "int32"
        }
      ],
      "name": "migrateFR",
      "outputs": [],
      "payable": false,
      "stateMutability": "nonpayable",
      "type": "function"
    },
    {
      "constant": false,
      "inputs": [],
      "name": "lockMigrations",
      "outputs": [],
      "payable": false,
      "stateMutability": "nonpayable",
      "type": "function"
    },
    {
      "constant": false,
      "inputs": [
        {
          "name": "_destination",
          "type": "address"
        }
      ],
      "name": "withdrawWings",
      "outputs": [],
      "payable": false,
      "stateMutability": "nonpayable",
      "type": "function"
    },
    {
      "constant": false,
      "inputs": [
        {
          "name": "_daoId",
          "type": "bytes32"
        }
      ],
      "name": "addForecasterToDAO",
      "outputs": [],
      "payable": false,
      "stateMutability": "nonpayable",
      "type": "function"
    },
    {
      "constant": true,
      "inputs": [
        {
          "name": "_daoId",
          "type": "bytes32"
        }
      ],
      "name": "getDAOById",
      "outputs": [
        {
          "name": "_dao",
          "type": "address"
        }
      ],
      "payable": false,
      "stateMutability": "view",
      "type": "function"
    },
    {
      "constant": true,
      "inputs": [
        {
          "name": "_n",
          "type": "uint256"
        }
      ],
      "name": "getDAOId",
      "outputs": [
        {
          "name": "_id",
          "type": "bytes32"
        }
      ],
      "payable": false,
      "stateMutability": "view",
      "type": "function"
    },
    {
      "constant": true,
      "inputs": [
        {
          "name": "_user",
          "type": "address"
        }
      ],
      "name": "getUserDAOsCount",
      "outputs": [
        {
          "name": "_count",
          "type": "uint256"
        }
      ],
      "payable": false,
      "stateMutability": "view",
      "type": "function"
    },
    {
      "constant": true,
      "inputs": [
        {
          "name": "_user",
          "type": "address"
        },
        {
          "name": "_n",
          "type": "uint256"
        }
      ],
      "name": "getUserDAOsId",
      "outputs": [
        {
          "name": "_id",
          "type": "bytes32"
        }
      ],
      "payable": false,
      "stateMutability": "view",
      "type": "function"
    }
  ],
  "bytecode": "0x60806040523480156200001157600080fd5b5060405160208062001989833981016040818152915182820190925260058082527f312e302e300000000000000000000000000000000000000000000000000000006020830190815260008054600160a060020a031916331790556200007b9160019190620000ac565b505060098054600160a060020a03909216600160a060020a0319928316179055600080549091163317905562000151565b828054600181600116156101000203166002900490600052602060002090601f016020900481019282601f10620000ef57805160ff19168380011785556200011f565b828001600101855582156200011f579182015b828111156200011f57825182559160200191906001019062000102565b506200012d92915062000131565b5090565b6200014e91905b808211156200012d576000815560010162000138565b90565b61182880620001616000396000f3006080604052600436106101035763ffffffff60e060020a60003504166303f8008c8114610108578063174114c11461013b57806317870e591461016c5780632eb2140a146101835780633b9542071461026957806348f7f2a314610290578063658e4506146102a5578063663d3454146102ba5780636c8d0bcf1461030b57806375e580791461032f57806388b9022f146103445780638da5cb5b146103ce578063a9549f81146103e3578063aa22b56b146103fb578063b31f190514610413578063e759ce6a1461042b578063e77772fe14610440578063e99a6fa214610455578063ecda01ba14610476578063f2fde38b1461048b578063fc0c546a146104ac575b600080fd5b34801561011457600080fd5b50610129600160a060020a03600435166104c1565b60408051918252519081900360200190f35b34801561014757600080fd5b506101506104dc565b60408051600160a060020a039092168252519081900360200190f35b34801561017857600080fd5b506101816104eb565b005b34801561018f57600080fd5b506040805160206004803580820135601f810184900484028501840190955284845261018194369492936024939284019190819084018382808284375050604080516020601f89358b018035918201839004830284018301909452808352979a99988101979196509182019450925082915084018382808284375050604080516020601f89358b018035918201839004830284018301909452808352979a9998810197919650918201945092508291508401838280828437509497505084359550505050602090910135600160a060020a031690506105f6565b34801561027557600080fd5b50610181600160a060020a036004351660243560030b610af7565b34801561029c57600080fd5b50610150610c0e565b3480156102b157600080fd5b50610150610c1d565b3480156102c657600080fd5b50610181600160a060020a0360043581169060243581169060443581169060643581169060843581169060a4351660c43560e435610104356101243561014435610c2c565b34801561031757600080fd5b50610129600160a060020a03600435166024356111b0565b34801561033b57600080fd5b506101506111d8565b34801561035057600080fd5b506103596111e7565b6040805160208082528351818301528351919283929083019185019080838360005b8381101561039357818101518382015260200161037b565b50505050905090810190601f1680156103c05780820380516001836020036101000a031916815260200191505b509250505060405180910390f35b3480156103da57600080fd5b50610150611274565b3480156103ef57600080fd5b50610129600435611283565b34801561040757600080fd5b50610150600435611295565b34801561041f57600080fd5b506101816004356112b0565b34801561043757600080fd5b506101506114b7565b34801561044c57600080fd5b506101506114c6565b34801561046157600080fd5b50610181600160a060020a03600435166114d5565b34801561048257600080fd5b5061012961161a565b34801561049757600080fd5b50610181600160a060020a0360043516611620565b3480156104b857600080fd5b506101506116a7565b600160a060020a031660009081526007602052604090205490565b600d54600160a060020a031681565b600054600160a060020a0316331461050257600080fd5b600a54600160a060020a0316158015906105265750600b54600160a060020a031615155b801561053c5750600c54600160a060020a031615155b80156105525750600d54600160a060020a031615155b80156105685750600e54600160a060020a031615155b801561057e5750600f54600160a060020a031615155b151561058957600080fd5b600a60009054906101000a9004600160a060020a0316600160a060020a03166317870e596040518163ffffffff1660e060020a028152600401600060405180830381600087803b1580156105dc57600080fd5b505af11580156105f0573d6000803e3d6000fd5b50505050565b600a5460009081908190600160a060020a0316158015906106215750600b54600160a060020a031615155b80156106375750600c54600160a060020a031615155b801561064d5750600d54600160a060020a031615155b80156106635750600e54600160a060020a031615155b80156106795750600f54600160a060020a031615155b151561068457600080fd5b61069933600160a060020a03861615156116b6565b92506002886040518082805190602001908083835b602083106106cd5780518252601f1990920191602091820191016106ae565b51815160209384036101000a600019018019909216911617905260405191909301945091925050808303816000865af115801561070e573d6000803e3d6000fd5b5050506040513d602081101561072357600080fd5b5051600081815260046020526040902054909250600160a060020a03161561074a57600080fd5b600f5460405160e060020a63fc7976890281523060648201819052336084830181905260a4830186905260c4830189905260e0600484019081528c5160e48501528c51600160a060020a039095169463fc797689948e948e948e94919390928b928f9290918291602482019160448101916101049091019060208d019080838360005b838110156107e55781810151838201526020016107cd565b50505050905090810190601f1680156108125780820380516001836020036101000a031916815260200191505b5084810383528a5181528a516020918201918c019080838360005b8381101561084557818101518382015260200161082d565b50505050905090810190601f1680156108725780820380516001836020036101000a031916815260200191505b5084810382528951815289516020918201918b019080838360005b838110156108a557818101518382015260200161088d565b50505050905090810190601f1680156108d25780820380516001836020036101000a031916815260200191505b509a5050505050505050505050602060405180830381600087803b1580156108f957600080fd5b505af115801561090d573d6000803e3d6000fd5b505050506040513d602081101561092357600080fd5b50516009546002546040805160e060020a63a9059cbb028152600160a060020a0380861660048301526024820193909352905193945091169163a9059cbb916044808201926020929091908290030181600087803b15801561098457600080fd5b505af1158015610998573d6000803e3d6000fd5b505050506040513d60208110156109ae57600080fd5b505115156109bb57600080fd5b600c54600d54600e54600b54600a546040805160e060020a63e8ca2773028152600160a060020a0396871660048201529486166024860152928516604485015290841660648401528784166084840152831660a483015260c48201869052519183169163e8ca27739160e48082019260009290919082900301818387803b158015610a4557600080fd5b505af1158015610a59573d6000803e3d6000fd5b50505060008381526004602090815260408083208054600160a060020a031916600160a060020a038716908117909155600880546001818101909255855260058452828520889055338552600684528285206007855283862080549283019055908552909252808320869055519092507f577ad6851ac3f8b7f66c34895d6ef040bc9ee3900d0e6640a5e98feb2e47980b9190a25050505050505050565b600054600160a060020a03163314610b0e57600080fd5b600a54600160a060020a031615801590610b325750600b54600160a060020a031615155b8015610b485750600c54600160a060020a031615155b8015610b5e5750600d54600160a060020a031615155b8015610b745750600e54600160a060020a031615155b8015610b8a5750600f54600160a060020a031615155b1515610b9557600080fd5b600a546040805160e060020a633b954207028152600160a060020a038581166004830152600385810b900b602483015291519190921691633b95420791604480830192600092919082900301818387803b158015610bf257600080fd5b505af1158015610c06573d6000803e3d6000fd5b505050505050565b600f54600160a060020a031681565b600b54600160a060020a031681565b600054600160a060020a03163314610c4357600080fd5b600a8054600160a060020a0319908116600160a060020a038e81169190911792839055600b805483168e8316179055600c805483168d8316179055600d805483168c8316179055600e805483168b8316179055600f805490921689821617909155600284905560038390556009546040805160e160020a637e062a350281529051918316939092169163fc0c546a9160048083019260209291908290030181600087803b158015610cf357600080fd5b505af1158015610d07573d6000803e3d6000fd5b505050506040513d6020811015610d1d57600080fd5b5051600160a060020a031614610d3257600080fd5b600a546040805160e060020a638da5cb5b02815290513092600160a060020a031691638da5cb5b9160048083019260209291908290030181600087803b158015610d7b57600080fd5b505af1158015610d8f573d6000803e3d6000fd5b505050506040513d6020811015610da557600080fd5b5051600160a060020a031614610dba57600080fd5b600b546040805160e060020a63d68220c702815290513092600160a060020a03169163d68220c79160048083019260209291908290030181600087803b158015610e0357600080fd5b505af1158015610e17573d6000803e3d6000fd5b505050506040513d6020811015610e2d57600080fd5b5051600160a060020a031614610e4257600080fd5b600c546040805160e060020a63d68220c702815290513092600160a060020a03169163d68220c79160048083019260209291908290030181600087803b158015610e8b57600080fd5b505af1158015610e9f573d6000803e3d6000fd5b505050506040513d6020811015610eb557600080fd5b5051600160a060020a031614610eca57600080fd5b600d546040805160e060020a63d68220c702815290513092600160a060020a03169163d68220c79160048083019260209291908290030181600087803b158015610f1357600080fd5b505af1158015610f27573d6000803e3d6000fd5b505050506040513d6020811015610f3d57600080fd5b5051600160a060020a031614610f5257600080fd5b600e546040805160e060020a63d68220c702815290513092600160a060020a03169163d68220c79160048083019260209291908290030181600087803b158015610f9b57600080fd5b505af1158015610faf573d6000803e3d6000fd5b505050506040513d6020811015610fc557600080fd5b5051600160a060020a031614610fda57600080fd5b600f546040805160e060020a63d68220c702815290513092600160a060020a03169163d68220c79160048083019260209291908290030181600087803b15801561102357600080fd5b505af1158015611037573d6000803e3d6000fd5b505050506040513d602081101561104d57600080fd5b5051600160a060020a03161461106257600080fd5b600a546040805160e660020a6302a467ab0281526004810188905260248101879052604481018690529051600160a060020a039092169163a919eac09160648082019260009290919082900301818387803b1580156110c057600080fd5b505af11580156110d4573d6000803e3d6000fd5b505050507fa14e1f828226fa0fc6d4c805340ce075e72eacd0d3fe23486602cab2f66a2c5c8b8b8b8b8b8b6040518087600160a060020a0316600160a060020a0316815260200186600160a060020a0316600160a060020a0316815260200185600160a060020a0316600160a060020a0316815260200184600160a060020a0316600160a060020a0316815260200183600160a060020a0316600160a060020a0316815260200182600160a060020a0316600160a060020a03168152602001965050505050505060405180910390a15050505050505050505050565b600160a060020a03919091166000908152600660209081526040808320938352929052205490565b600a54600160a060020a031681565b60018054604080516020600284861615610100026000190190941693909304601f8101849004840282018401909252818152929183018282801561126c5780601f106112415761010080835404028352916020019161126c565b820191906000526020600020905b81548152906001019060200180831161124f57829003601f168201915b505050505081565b600054600160a060020a031681565b60009081526005602052604090205490565b600090815260046020526040902054600160a060020a031690565b600a546000908190600160a060020a0316158015906112d95750600b54600160a060020a031615155b80156112ef5750600c54600160a060020a031615155b80156113055750600d54600160a060020a031615155b801561131b5750600e54600160a060020a031615155b80156113315750600f54600160a060020a031615155b151561133c57600080fd5b600083815260046020526040902054600160a060020a0316915081151561136257600080fd5b81905080600160a060020a03166375e580796040518163ffffffff1660e060020a028152600401602060405180830381600087803b1580156113a357600080fd5b505af11580156113b7573d6000803e3d6000fd5b505050506040513d60208110156113cd57600080fd5b50516040805160e260020a63265f44710281529051600160a060020a039283169262affc2f9233929186169163997d11c4916004808201926020929091908290030181600087803b15801561142157600080fd5b505af1158015611435573d6000803e3d6000fd5b505050506040513d602081101561144b57600080fd5b50516040805160e060020a63ffffffff8616028152600160a060020a03938416600482015292909116602483015251604480830192600092919082900301818387803b15801561149a57600080fd5b505af11580156114ae573d6000803e3d6000fd5b50505050505050565b600c54600160a060020a031681565b600e54600160a060020a031681565b60008054600160a060020a031633146114ed57600080fd5b600160a060020a038216151561150257600080fd5b6009546040805160e060020a6370a082310281523060048201529051600160a060020a03909216916370a08231916024808201926020929091908290030181600087803b15801561155257600080fd5b505af1158015611566573d6000803e3d6000fd5b505050506040513d602081101561157c57600080fd5b505190508015611616576009546040805160e060020a63a9059cbb028152600160a060020a038581166004830152602482018590529151919092169163a9059cbb9160448083019260209291908290030181600087803b1580156115df57600080fd5b505af11580156115f3573d6000803e3d6000fd5b505050506040513d602081101561160957600080fd5b5051151561161657600080fd5b5050565b60085481565b600054600160a060020a0316331461163757600080fd5b600160a060020a038116151561164c57600080fd5b60008054604051600160a060020a03808516939216917f8be0079c531659141344cd1fd0a4f28419497f9722a3daafe3b4186f6b6457e091a360008054600160a060020a031916600160a060020a0392909216919091179055565b600954600160a060020a031681565b600080826116c6576002546116ca565b6003545b6009546040805160e160020a636eb1769f028152600160a060020a038881166004830152306024830152915193955091169163dd62ed3e916044808201926020929091908290030181600087803b15801561172457600080fd5b505af1158015611738573d6000803e3d6000fd5b505050506040513d602081101561174e57600080fd5b505190508181101561175f57600080fd5b6009546040805160e060020a6323b872dd028152600160a060020a03878116600483015230602483015260448201869052915191909216916323b872dd9160648083019260209291908290030181600087803b1580156117be57600080fd5b505af11580156117d2573d6000803e3d6000fd5b505050506040513d60208110156117e857600080fd5b505115156117f557600080fd5b50929150505600a165627a7a723058202070057d5f750c99a3bdfa3c4877379b2ae2dc79a71deae19cd35adfc69a1d610029",
  "source": "pragma solidity ^0.4.18;\n\nimport \"zeppelin-solidity/contracts/ownership/Ownable.sol\";\nimport \"zeppelin-solidity/contracts/token/ERC20.sol\";\nimport \"./factories/ForecastingFactory.sol\";\nimport \"./factories/CrowdsaleFactory.sol\";\nimport \"./factories/RewardsModelFactory.sol\";\nimport \"./factories/DAOFactory.sol\";\nimport \"./interfaces/IUserStorage.sol\";\nimport \"./interfaces/IDAO.sol\";\nimport \"./helpers/Version.sol\";\n\ncontract Wings is Ownable, Version {\n    event WINGS_SETUP_FACTORIES(address userStorage, address crowdsale, address forecasting, address rewards, address token, address dao);\n    event WINGS_DAO_ADD(address indexed dao);\n\n    // Default wings anti-spam reserve amount\n    uint256 wingsReserveAmount;\n\n    // Wings anti-spam reserve amount for custom Crowdsale contract\n    // TODO: review this (10000 ???)\n    uint256 wingsReserveAmountForCustomCrowdsale;\n\n    modifier isReady() {\n        require(\n            userStorage != address(0) &&\n            crowdsaleFactory != address(0) &&\n            forecastingFactory != address(0) &&\n            rewardsModelFactory != address(0) &&\n            tokenFactory != address(0) &&\n            daoFactory != address(0)\n        );\n        _;\n    }\n\n    // DAOs\n    mapping(bytes32 => address) daos;\n\n    // DAOs ids\n    mapping(uint => bytes32) daosIds;\n\n    // User DAOs\n    mapping(address => mapping(uint => bytes32)) myDAOsIds;\n    mapping(address => uint) myDAOsCount;\n\n    // Total number of DAOs\n    uint public totalDAOsCount;\n\n    // WINGS token\n    ERC20 public token;\n\n    // FR Storage\n    IUserStorage public userStorage;\n\n    // Factories\n    CrowdsaleFactory public crowdsaleFactory;\n    ForecastingFactory public forecastingFactory;\n    RewardsModelFactory public rewardsModelFactory;\n    TokenFactory public tokenFactory;\n    DAOFactory public daoFactory;\n\n    function Wings(\n        address _token\n    ) Version(\"1.0.0\")\n        public\n    {\n        token = ERC20(_token);\n        owner = msg.sender;\n    }\n\n    // Sets up initial or new versions of FR storage and factories: strictly all in a single TX\n    function setup(\n        address _userStorage,\n        address _crowdsaleFactory,\n        address _forecastingFactory,\n        address _rewardsModelFactory,\n        address _tokenFactory,\n        address _daoFactory,\n        uint256 _frDecay1,\n        uint256 _frDecay2,\n        uint256 _frDecay3,\n        uint256 _wingsReserveAmount,\n        uint256 _wingsReserveAmountForCustomCrowdsale\n    )\n        public\n        onlyOwner()\n    {\n        userStorage = IUserStorage(_userStorage);\n        crowdsaleFactory = CrowdsaleFactory(_crowdsaleFactory);\n        forecastingFactory = ForecastingFactory(_forecastingFactory);\n        rewardsModelFactory = RewardsModelFactory(_rewardsModelFactory);\n        tokenFactory = TokenFactory(_tokenFactory);\n        daoFactory = DAOFactory(_daoFactory);\n        wingsReserveAmount = _wingsReserveAmount;\n        wingsReserveAmountForCustomCrowdsale = _wingsReserveAmountForCustomCrowdsale;\n\n        require(userStorage.token() == address(token));\n        require(userStorage.owner() == address(this));\n        require(crowdsaleFactory.wings() == address(this));\n        require(forecastingFactory.wings() == address(this));\n        require(rewardsModelFactory.wings() == address(this));\n        require(tokenFactory.wings() == address(this));\n        require(daoFactory.wings() == address(this));\n\n        userStorage.setupDecayParams(_frDecay1, _frDecay2, _frDecay3);\n\n        WINGS_SETUP_FACTORIES(_userStorage, _crowdsaleFactory, _forecastingFactory, _rewardsModelFactory, _tokenFactory, _daoFactory);\n    }\n\n    function createDAO(\n        string _name,\n        string _tokenName,\n        string _tokenSymbol,\n        bytes32 _infoHash,\n        address _customCrowdsale\n    )\n        public\n        isReady()\n    {\n        uint256 reserveAmount = transferReserveAmount(msg.sender, (_customCrowdsale != address(0)));\n\n        bytes32 daoId = sha256(_name);\n        require(daos[daoId] == address(0));\n\n        address dao = DAOFactory(daoFactory).create(\n            _name,\n            _tokenName,\n            _tokenSymbol,\n            address(this),  //manager\n            msg.sender,     //owner\n            daoId,\n            _infoHash\n        );\n\n        require(token.transfer(dao, wingsReserveAmount));\n\n        IDAO(dao).setupParameters(\n            forecastingFactory,\n            rewardsModelFactory,\n            tokenFactory,\n            crowdsaleFactory,\n            _customCrowdsale,\n            userStorage,\n            reserveAmount\n        );\n\n        daos[daoId] = dao;\n        daosIds[totalDAOsCount++] = daoId;\n        myDAOsIds[msg.sender][myDAOsCount[msg.sender]++] = daoId;\n        WINGS_DAO_ADD(dao);\n    }\n\n    function migrateFR(\n        address _account,\n        int32 _dFR\n    )\n        public\n        onlyOwner()\n        isReady()\n    {\n        userStorage.migrateFR(_account, _dFR);\n    }\n\n    function lockMigrations()\n        public\n        onlyOwner()\n        isReady()\n    {\n        userStorage.lockMigrations();\n    }\n\n    // Wings owner is able to transfer all WINGS got stuck at this contract to any address\n    function withdrawWings(address _destination)\n        public\n        onlyOwner()\n    {\n        require (_destination != address(0));\n        uint256 balance = token.balanceOf(address(this));\n        if (balance != 0) {\n            require(token.transfer(_destination, balance));\n        }\n    }\n\n    function addForecasterToDAO(bytes32 _daoId)\n        public\n        isReady()\n    {\n        address addr = daos[_daoId];\n        require(addr != address(0));\n\n        IDAO dao = IDAO(addr);\n        IUserStorage(dao.userStorage()).addProject(msg.sender, dao.forecasting());\n    }\n\n    /*\n      Get DAO by Id\n    */\n    function getDAOById(bytes32 _daoId) public constant returns (address _dao) {\n        return daos[_daoId];\n    }\n\n    /*\n      Get DAO Id by index\n    */\n    function getDAOId(uint _n) public constant returns (bytes32 _id) {\n        return daosIds[_n];\n    }\n\n    /*\n      Get user daos count\n    */\n    function getUserDAOsCount(address _user) public constant returns (uint _count) {\n        return myDAOsCount[_user];\n    }\n\n    /*\n      Get user daos id\n    */\n    function getUserDAOsId(address _user, uint _n) public constant returns (bytes32 _id) {\n        return myDAOsIds[_user][_n];\n    }\n\n    // Transfer anti-spam reserve to this contract\n    function transferReserveAmount(\n        address _from,\n        bool _isCustomCrowdsale\n    )\n        internal\n        returns (uint256 reserveAmount)\n    {\n        reserveAmount = _isCustomCrowdsale ? wingsReserveAmountForCustomCrowdsale : wingsReserveAmount;\n        uint256 allocated = token.allowance(_from, address(this));\n        require(allocated >= reserveAmount);\n        require(token.transferFrom(_from, address(this), reserveAmount));\n    }\n}\n",
  "sourcePath": "/Users/solidity/Desktop/github/private-contracts/contracts/Wings.sol",
  "compiler": {
    "name": "solc",
    "version": "0.4.24+commit.e67f0147.Emscripten.clang"
  },
  "schemaVersion": "2.0.0",
  "updatedAt": "2018-06-13T08:55:56.685Z"
}